{
  "_format": "hh-sol-artifact-1",
  "contractName": "JobEscrow",
  "sourceName": "contracts/JobEscrow.sol",
  "abi": [
    {
      "inputs": [
        {
          "internalType": "address",
          "name": "_client",
          "type": "address"
        },
        {
          "internalType": "uint256",
          "name": "_budget",
          "type": "uint256"
        }
      ],
      "stateMutability": "nonpayable",
      "type": "constructor"
    },
    {
      "inputs": [],
      "name": "ReentrancyGuardReentrantCall",
      "type": "error"
    },
    {
      "anonymous": false,
      "inputs": [],
      "name": "DisputeRaised",
      "type": "event"
    },
    {
      "anonymous": false,
      "inputs": [
        {
          "indexed": false,
          "internalType": "uint256",
          "name": "amount",
          "type": "uint256"
        }
      ],
      "name": "FullPaymentReleased",
      "type": "event"
    },
    {
      "anonymous": false,
      "inputs": [
        {
          "indexed": false,
          "internalType": "uint256",
          "name": "amount",
          "type": "uint256"
        }
      ],
      "name": "Funded",
      "type": "event"
    },
    {
      "anonymous": false,
      "inputs": [
        {
          "indexed": true,
          "internalType": "uint256",
          "name": "milestoneId",
          "type": "uint256"
        },
        {
          "indexed": false,
          "internalType": "uint256",
          "name": "amount",
          "type": "uint256"
        }
      ],
      "name": "MilestoneAdded",
      "type": "event"
    },
    {
      "anonymous": false,
      "inputs": [
        {
          "indexed": true,
          "internalType": "uint256",
          "name": "milestoneId",
          "type": "uint256"
        },
        {
          "indexed": false,
          "internalType": "uint256",
          "name": "amount",
          "type": "uint256"
        }
      ],
      "name": "MilestonePaid",
      "type": "event"
    },
    {
      "anonymous": false,
      "inputs": [
        {
          "indexed": false,
          "internalType": "uint256",
          "name": "amount",
          "type": "uint256"
        }
      ],
      "name": "RefundIssued",
      "type": "event"
    },
    {
      "inputs": [
        {
          "internalType": "string",
          "name": "_description",
          "type": "string"
        },
        {
          "internalType": "uint256",
          "name": "_amount",
          "type": "uint256"
        }
      ],
      "name": "addMilestone",
      "outputs": [],
      "stateMutability": "nonpayable",
      "type": "function"
    },
    {
      "inputs": [],
      "name": "client",
      "outputs": [
        {
          "internalType": "address",
          "name": "",
          "type": "address"
        }
      ],
      "stateMutability": "view",
      "type": "function"
    },
    {
      "inputs": [],
      "name": "fund",
      "outputs": [],
      "stateMutability": "payable",
      "type": "function"
    },
    {
      "inputs": [],
      "name": "fundFromMarketplace",
      "outputs": [],
      "stateMutability": "payable",
      "type": "function"
    },
    {
      "inputs": [
        {
          "internalType": "uint256",
          "name": "_milestoneId",
          "type": "uint256"
        }
      ],
      "name": "getMilestone",
      "outputs": [
        {
          "internalType": "string",
          "name": "description",
          "type": "string"
        },
        {
          "internalType": "uint256",
          "name": "amount",
          "type": "uint256"
        },
        {
          "internalType": "bool",
          "name": "isCompleted",
          "type": "bool"
        },
        {
          "internalType": "bool",
          "name": "isPaid",
          "type": "bool"
        }
      ],
      "stateMutability": "view",
      "type": "function"
    },
    {
      "inputs": [],
      "name": "getMilestoneCount",
      "outputs": [
        {
          "internalType": "uint256",
          "name": "",
          "type": "uint256"
        }
      ],
      "stateMutability": "view",
      "type": "function"
    },
    {
      "inputs": [],
      "name": "isDisputed",
      "outputs": [
        {
          "internalType": "bool",
          "name": "",
          "type": "bool"
        }
      ],
      "stateMutability": "view",
      "type": "function"
    },
    {
      "inputs": [],
      "name": "lockedAmount",
      "outputs": [
        {
          "internalType": "uint256",
          "name": "",
          "type": "uint256"
        }
      ],
      "stateMutability": "view",
      "type": "function"
    },
    {
      "inputs": [],
      "name": "marketplace",
      "outputs": [
        {
          "internalType": "address",
          "name": "",
          "type": "address"
        }
      ],
      "stateMutability": "view",
      "type": "function"
    },
    {
      "inputs": [
        {
          "internalType": "uint256",
          "name": "",
          "type": "uint256"
        }
      ],
      "name": "milestones",
      "outputs": [
        {
          "internalType": "string",
          "name": "description",
          "type": "string"
        },
        {
          "internalType": "uint256",
          "name": "amount",
          "type": "uint256"
        },
        {
          "internalType": "bool",
          "name": "isCompleted",
          "type": "bool"
        },
        {
          "internalType": "bool",
          "name": "isPaid",
          "type": "bool"
        }
      ],
      "stateMutability": "view",
      "type": "function"
    },
    {
      "inputs": [
        {
          "internalType": "uint256",
          "name": "_amount",
          "type": "uint256"
        }
      ],
      "name": "payWorker",
      "outputs": [],
      "stateMutability": "nonpayable",
      "type": "function"
    },
    {
      "inputs": [],
      "name": "raiseDispute",
      "outputs": [],
      "stateMutability": "nonpayable",
      "type": "function"
    },
    {
      "inputs": [
        {
          "internalType": "uint256",
          "name": "_amount",
          "type": "uint256"
        }
      ],
      "name": "refundClient",
      "outputs": [],
      "stateMutability": "nonpayable",
      "type": "function"
    },
    {
      "inputs": [],
      "name": "releaseFullPayment",
      "outputs": [],
      "stateMutability": "nonpayable",
      "type": "function"
    },
    {
      "inputs": [
        {
          "internalType": "uint256",
          "name": "_milestoneId",
          "type": "uint256"
        }
      ],
      "name": "releaseMilestonePayment",
      "outputs": [],
      "stateMutability": "nonpayable",
      "type": "function"
    },
    {
      "inputs": [],
      "name": "releasedAmount",
      "outputs": [
        {
          "internalType": "uint256",
          "name": "",
          "type": "uint256"
        }
      ],
      "stateMutability": "view",
      "type": "function"
    },
    {
      "inputs": [
        {
          "internalType": "address",
          "name": "_worker",
          "type": "address"
        }
      ],
      "name": "setWorker",
      "outputs": [],
      "stateMutability": "nonpayable",
      "type": "function"
    },
    {
      "inputs": [],
      "name": "totalBudget",
      "outputs": [
        {
          "internalType": "uint256",
          "name": "",
          "type": "uint256"
        }
      ],
      "stateMutability": "view",
      "type": "function"
    },
    {
      "inputs": [],
      "name": "worker",
      "outputs": [
        {
          "internalType": "address",
          "name": "",
          "type": "address"
        }
      ],
      "stateMutability": "view",
      "type": "function"
    }
  ],
  "bytecode": "0x60a0346100af57601f6111d038819003918201601f19168301916001600160401b038311848410176100b45780849260409485528339810103126100af578051906001600160a01b03821682036100af57602001516001600055608091909152600280546001600160a01b0319163317905560035560405161110590816100cb823960805181818161022d01528181610461015281816105920152818161096f01528181610aa00152610bc80152f35b600080fd5b634e487b7160e01b600052604160045260246000fdfe608080604052600436101561001357600080fd5b60003560e01c9081630335729e14610bf757508063109e94cf14610bb25780631600ceac14610a8c5780632442e1cb14610a0e57806343eed51c1461092057806345d30a17146109025780634d547ada146108d95780636ab28bc8146108bb5780636daa2d441461086157806384b62c28146105205780638f4cf24714610502578063abc8c7af146104d9578063b00bf238146104b8578063b60d428814610452578063c26f6d44146103bc578063c78da39a1461039e578063cd0c15bf14610216578063e89e4ed6146101bc5763f5bd346a146100f057600080fd5b346101b75760203660031901126101b757600080808060043561011e60018060a01b03600254163314610f71565b6101266110ad565b60045461013582821015610fb0565b6001546001600160a01b031690610158908390610153841515610e75565b610ff1565b60045561016782600554610eb6565b6005555af1610174610ec3565b5015610181576001600055005b60405162461bcd60e51b815260206004820152600e60248201526d14185e5b595b9d0819985a5b195960921b6044820152606490fd5b600080fd5b346101b75760203660031901126101b7576004356007548110156101b7576101e390610cd3565b506101ed81610d42565b906102126002600183015492015460405193849360ff808460081c1693169185610c17565b0390f35b346101b75760203660031901126101b757600435337f00000000000000000000000000000000000000000000000000000000000000006001600160a01b031614801561038a575b61026690610de6565b61027560ff6006541615610e32565b61027d6110ad565b61028a6007548210610f31565b61029381610cd3565b506002810190815460ff8160081c166103565761030e6020927f3af368126e502abc57fe61217a2e2ffc37e0753a9bc218ab9976a49a996e44499461010160016004549301946102e7865480951015610fb0565b6001546102fe906001600160a01b03161515610e75565b61ffff1916179055600454610ff1565b60045561031e8154600554610eb6565b600555610347600080808060018060a01b03600154168654905af1610341610ec3565b50610ef3565b54604051908152a26001600055005b60405162461bcd60e51b815260206004820152600c60248201526b105b1c9958591e481c185a5960a21b6044820152606490fd5b506002546001600160a01b0316331461025d565b346101b75760003660031901126101b7576020600354604051908152f35b346101b75760203660031901126101b7576004356001600160a01b038116908190036101b7576103f760018060a01b03600254163314610f71565b6001546001600160a01b038116610418576001600160a01b03191617600155005b60405162461bcd60e51b815260206004820152601260248201527115dbdc9ad95c88185b1c9958591e481cd95d60721b6044820152606490fd5b60003660031901126101b757337f00000000000000000000000000000000000000000000000000000000000000006001600160a01b03161480156104a4575b61049a90610de6565b6104a2610ffe565b005b506002546001600160a01b03163314610491565b60003660031901126101b75761049a60018060a01b03600254163314610f71565b346101b75760003660031901126101b7576002546040516001600160a01b039091168152602090f35b346101b75760003660031901126101b7576020600754604051908152f35b346101b75760403660031901126101b75760043567ffffffffffffffff81116101b757366023820112156101b757806004013561055c81610cb7565b9161056a6040519384610c95565b81835236602483830101116101b75781600092602460209301838601378301015260243590337f00000000000000000000000000000000000000000000000000000000000000006001600160a01b031614801561084d575b6105cb90610de6565b6007548260005b82811061082c5750600354106107f657604051916105ef83610c79565b82526020820191838352604081019260008452606082019260008452680100000000000000008110156107ca5780600161062c9201600755610cd3565b9290926107e0575180519067ffffffffffffffff82116107ca576106508454610d08565b601f8111610782575b50602090601f8311600114610717576002949392916000918361070c575b50508160011b916000199060031b1c19161782555b516001820155019151151560ff8019845416911617825551151561ff0082549160081b169061ff0019161790556007549060001982019182116106f65760207feb0a448faf1db18876f6c843c35c660823db4038188aedad797bd3ef46ada37191604051908152a2005b634e487b7160e01b600052601160045260246000fd5b015190508880610677565b90601f1983169185600052816000209260005b81811061076a575091600193918560029897969410610751575b505050811b01825561068c565b015160001960f88460031b161c19169055888080610744565b9293602060018192878601518155019501930161072a565b846000526020600020601f840160051c810191602085106107c0575b601f0160051c01905b8181106107b45750610659565b600081556001016107a7565b909150819061079e565b634e487b7160e01b600052604160045260246000fd5b634e487b7160e01b600052600060045260246000fd5b60405162461bcd60e51b815260206004820152600e60248201526d115e18d959591cc8189d5919d95d60921b6044820152606490fd5b906108466001918261083d85610cd3565b50015490610eb6565b91016105d2565b506002546001600160a01b031633146105c2565b346101b75760003660031901126101b75761088760018060a01b03600254163314610f71565b600160ff1960065416176006557fa9f218df296bdff29869b6b40927376285db89e1726d55dc7a5583eab3f72c42600080a1005b346101b75760003660031901126101b7576020600454604051908152f35b346101b75760003660031901126101b7576001546040516001600160a01b039091168152602090f35b346101b75760003660031901126101b7576020600554604051908152f35b346101b75760203660031901126101b75760043561094960018060a01b03600254163314610f71565b6109516110ad565b6109648160045461015382821015610fb0565b6004556000808080847f00000000000000000000000000000000000000000000000000000000000000006001600160a01b03165af16109a1610ec3565b50156109d95760207fbe39882973eff28580f04c2c5cdc775cd9865cffc8840773d131ab12471c9a6291604051908152a16001600055005b60405162461bcd60e51b815260206004820152600d60248201526c1499599d5b990819985a5b1959609a1b6044820152606490fd5b346101b75760203660031901126101b757610a37600435610a326007548210610f31565b610cd3565b50604051610a4481610c79565b6102126060610a5284610d42565b92838152600260018601549586602084015201549060ff80831615159283604084015260081c161515928391015260405194859485610c17565b346101b75760003660031901126101b757337f00000000000000000000000000000000000000000000000000000000000000006001600160a01b0316148015610b9e575b610ad990610de6565b610ae860ff6006541615610e32565b610af06110ad565b6004548015610b6757602081610b5960008080807faa6d367d5992c5523770ae4393ecc654f576cc5e6ff6c59059255713934bfca39760018060a01b0360015416610b3c811515610e75565b82600455610b4c82600554610eb6565b6005555af1610341610ec3565b604051908152a16001600055005b60405162461bcd60e51b815260206004820152600f60248201526e139bc8199d5b991cc81b1bd8dad959608a1b6044820152606490fd5b506002546001600160a01b03163314610ad0565b346101b75760003660031901126101b7576040517f00000000000000000000000000000000000000000000000000000000000000006001600160a01b03168152602090f35b346101b75760003660031901126101b75760209060ff6006541615158152f35b9290949391946080845280519081608086015260005b828110610c635750509060a0826000826060969588010152601f8019910116850101956020850152151560408401521515910152565b80602080928401015160a0828901015201610c2d565b6080810190811067ffffffffffffffff8211176107ca57604052565b90601f8019910116810190811067ffffffffffffffff8211176107ca57604052565b67ffffffffffffffff81116107ca57601f01601f191660200190565b600754811015610cf25760076000526003602060002091020190600090565b634e487b7160e01b600052603260045260246000fd5b90600182811c92168015610d38575b6020831014610d2257565b634e487b7160e01b600052602260045260246000fd5b91607f1691610d17565b9060405191826000825492610d5684610d08565b8084529360018116908115610dc45750600114610d7d575b50610d7b92500383610c95565b565b90506000929192526020600020906000915b818310610da8575050906020610d7b9282010138610d6e565b6020919350806001915483858901015201910190918492610d8f565b905060209250610d7b94915060ff191682840152151560051b82010138610d6e565b15610ded57565b60405162461bcd60e51b815260206004820152601a60248201527f4f6e6c7920636c69656e74206f72206d61726b6574706c6163650000000000006044820152606490fd5b15610e3957565b60405162461bcd60e51b815260206004820152601460248201527310dbdb9d1c9858dd081a5cc8191a5cdc1d5d195960621b6044820152606490fd5b15610e7c57565b60405162461bcd60e51b8152602060048201526012602482015271139bc81ddbdc9ad95c881cd95b1958dd195960721b6044820152606490fd5b919082018092116106f657565b3d15610eee573d90610ed482610cb7565b91610ee26040519384610c95565b82523d6000602084013e565b606090565b15610efa57565b60405162461bcd60e51b815260206004820152600f60248201526e151c985b9cd9995c8819985a5b1959608a1b6044820152606490fd5b15610f3857565b60405162461bcd60e51b8152602060048201526011602482015270496e76616c6964206d696c6573746f6e6560781b6044820152606490fd5b15610f7857565b60405162461bcd60e51b815260206004820152601060248201526f4f6e6c79206d61726b6574706c61636560801b6044820152606490fd5b15610fb757565b60405162461bcd60e51b8152602060048201526012602482015271496e73756666696369656e742066756e647360701b6044820152606490fd5b919082039182116106f657565b60035434036110745760045461103e57346004557fc4c14883ae9fd8e26d5d59e3485ed29fd126d781d7e498a4ca5c54c8268e49366020604051348152a1565b60405162461bcd60e51b815260206004820152600e60248201526d105b1c9958591e48199d5b99195960921b6044820152606490fd5b60405162461bcd60e51b8152602060048201526011602482015270135d5cdd081b585d18da08189d5919d95d607a1b6044820152606490fd5b6002600054146110be576002600055565b633ee5aeb560e01b60005260046000fdfea26469706673582212209aa824d6d0846d9f6374b72d74bc8fc7b5f276ae60b5e7e650b16ea6c1b98de464736f6c634300081c0033",
  "linkReferences": {},
  "deployedLinkReferences": {}
}