{
  "_format": "hh-sol-artifact-1",
  "contractName": "JobEscrow",
  "sourceName": "contracts/JobEscrow.sol",
  "abi": [
    {
      "inputs": [
        {
          "internalType": "address",
          "name": "_client",
          "type": "address"
        },
        {
          "internalType": "uint256",
          "name": "_budget",
          "type": "uint256"
        }
      ],
      "stateMutability": "nonpayable",
      "type": "constructor"
    },
    {
      "inputs": [],
      "name": "ReentrancyGuardReentrantCall",
      "type": "error"
    },
    {
      "anonymous": false,
      "inputs": [],
      "name": "DisputeRaised",
      "type": "event"
    },
    {
      "anonymous": false,
      "inputs": [],
      "name": "EscrowCompleted",
      "type": "event"
    },
    {
      "anonymous": false,
      "inputs": [
        {
          "indexed": true,
          "internalType": "address",
          "name": "worker",
          "type": "address"
        },
        {
          "indexed": false,
          "internalType": "uint256",
          "name": "amount",
          "type": "uint256"
        }
      ],
      "name": "FullPaymentReleased",
      "type": "event"
    },
    {
      "anonymous": false,
      "inputs": [
        {
          "indexed": false,
          "internalType": "uint256",
          "name": "amount",
          "type": "uint256"
        }
      ],
      "name": "Funded",
      "type": "event"
    },
    {
      "anonymous": false,
      "inputs": [
        {
          "indexed": true,
          "internalType": "address",
          "name": "worker",
          "type": "address"
        },
        {
          "indexed": false,
          "internalType": "uint256",
          "name": "amount",
          "type": "uint256"
        }
      ],
      "name": "PartialPaymentReleased",
      "type": "event"
    },
    {
      "anonymous": false,
      "inputs": [
        {
          "indexed": true,
          "internalType": "address",
          "name": "client",
          "type": "address"
        },
        {
          "indexed": false,
          "internalType": "uint256",
          "name": "amount",
          "type": "uint256"
        }
      ],
      "name": "RefundIssued",
      "type": "event"
    },
    {
      "anonymous": false,
      "inputs": [
        {
          "indexed": true,
          "internalType": "address",
          "name": "worker",
          "type": "address"
        }
      ],
      "name": "WorkerSet",
      "type": "event"
    },
    {
      "inputs": [],
      "name": "USDC_ADDRESS",
      "outputs": [
        {
          "internalType": "address",
          "name": "",
          "type": "address"
        }
      ],
      "stateMutability": "view",
      "type": "function"
    },
    {
      "inputs": [],
      "name": "cancelAndRefund",
      "outputs": [],
      "stateMutability": "nonpayable",
      "type": "function"
    },
    {
      "inputs": [],
      "name": "client",
      "outputs": [
        {
          "internalType": "address",
          "name": "",
          "type": "address"
        }
      ],
      "stateMutability": "view",
      "type": "function"
    },
    {
      "inputs": [],
      "name": "fundFromMarketplace",
      "outputs": [],
      "stateMutability": "nonpayable",
      "type": "function"
    },
    {
      "inputs": [],
      "name": "isCompleted",
      "outputs": [
        {
          "internalType": "bool",
          "name": "",
          "type": "bool"
        }
      ],
      "stateMutability": "view",
      "type": "function"
    },
    {
      "inputs": [],
      "name": "isDisputed",
      "outputs": [
        {
          "internalType": "bool",
          "name": "",
          "type": "bool"
        }
      ],
      "stateMutability": "view",
      "type": "function"
    },
    {
      "inputs": [],
      "name": "isFunded",
      "outputs": [
        {
          "internalType": "bool",
          "name": "",
          "type": "bool"
        }
      ],
      "stateMutability": "view",
      "type": "function"
    },
    {
      "inputs": [],
      "name": "lockedAmount",
      "outputs": [
        {
          "internalType": "uint256",
          "name": "",
          "type": "uint256"
        }
      ],
      "stateMutability": "view",
      "type": "function"
    },
    {
      "inputs": [],
      "name": "marketplace",
      "outputs": [
        {
          "internalType": "address",
          "name": "",
          "type": "address"
        }
      ],
      "stateMutability": "view",
      "type": "function"
    },
    {
      "inputs": [
        {
          "internalType": "uint256",
          "name": "_amount",
          "type": "uint256"
        }
      ],
      "name": "payWorker",
      "outputs": [],
      "stateMutability": "nonpayable",
      "type": "function"
    },
    {
      "inputs": [],
      "name": "raiseDispute",
      "outputs": [],
      "stateMutability": "nonpayable",
      "type": "function"
    },
    {
      "inputs": [
        {
          "internalType": "uint256",
          "name": "_amount",
          "type": "uint256"
        }
      ],
      "name": "refundClient",
      "outputs": [],
      "stateMutability": "nonpayable",
      "type": "function"
    },
    {
      "inputs": [],
      "name": "releaseFullPayment",
      "outputs": [],
      "stateMutability": "nonpayable",
      "type": "function"
    },
    {
      "inputs": [],
      "name": "releasedAmount",
      "outputs": [
        {
          "internalType": "uint256",
          "name": "",
          "type": "uint256"
        }
      ],
      "stateMutability": "view",
      "type": "function"
    },
    {
      "inputs": [
        {
          "internalType": "address",
          "name": "_worker",
          "type": "address"
        }
      ],
      "name": "setWorker",
      "outputs": [],
      "stateMutability": "nonpayable",
      "type": "function"
    },
    {
      "inputs": [],
      "name": "totalBudget",
      "outputs": [
        {
          "internalType": "uint256",
          "name": "",
          "type": "uint256"
        }
      ],
      "stateMutability": "view",
      "type": "function"
    },
    {
      "inputs": [],
      "name": "usdc",
      "outputs": [
        {
          "internalType": "contract IERC20",
          "name": "",
          "type": "address"
        }
      ],
      "stateMutability": "view",
      "type": "function"
    },
    {
      "inputs": [],
      "name": "worker",
      "outputs": [
        {
          "internalType": "address",
          "name": "",
          "type": "address"
        }
      ],
      "stateMutability": "view",
      "type": "function"
    }
  ],
  "bytecode": "0x610100346101b657601f6114fe38819003918201601f19168301916001600160401b038311848410176101bb5780849260409485528339810103126101b65780516001600160a01b038116918282036101b657602001519160016000551561017157811561012c5760a0523360c05260e05273a0b86991c6218b36c1d19d4a2e9eb0ce3606eb4860805260405161132c90816101d282396080518181816102240152818161056201528181610a5301528181610b2601528181610c430152610ddf015260a051818181610a1001528181610c0401528181610cfa0152610f68015260c05181818161012a015281816103cc01528181610501015281816107de015281816108470152818161097d01528181610b6c0152610f24015260e05181818161037d01526105a70152f35b60405162461bcd60e51b815260206004820152601760248201527f427564676574206d75737420626520706f7369746976650000000000000000006044820152606490fd5b60405162461bcd60e51b815260206004820152601660248201527f496e76616c696420636c69656e742061646472657373000000000000000000006044820152606490fd5b600080fd5b634e487b7160e01b600052604160045260246000fdfe608080604052600436101561001357600080fd5b60003560e01c9081630335729e14610f9757508063109e94cf14610f525780631600ceac14610ce65780632009dc6514610b555780633e413bee14610b1057806343eed51c1461096357806345d30a17146109455780634d547ada1461091c5780636ab28bc8146108fe5780636daa2d44146108305780637c6543031461080d578063abc8c7af146107c8578063b00bf238146104ee578063bb09d9b7146104bf578063c26f6d44146103a0578063c78da39a14610365578063f5bd346a146101105763fa391c64146100e557600080fd5b3461010b57600036600319011261010b57602060ff60045460101c166040519015158152f35b600080fd5b3461010b57602036600319011261010b57600435610158337f00000000000000000000000000000000000000000000000000000000000000006001600160a01b031614611179565b61017860ff60045461016e828260081c166111f9565b60101c1615610ffd565b6101806112d4565b61021e60208260045461019560ff8216611049565b6101a082151561123a565b600254906101b083831015611286565b6001546001600160a01b0316916101d39084906101ce851515611082565b6112c7565b806002556101e3846003546110c3565b60035515610351575b5060405163a9059cbb60e01b81526001600160a01b039091166004820152602481019190915291829081906044820190565b038160007f00000000000000000000000000000000000000000000000000000000000000006001600160a01b03165af190811561034557600091610316575b50156102db576001546040519182526001600160a01b0316907f2d3c7fffdd3b36026d3b4cfc202d8d1d942dbdc6350c8f56693809510a3fb5ae90602090a260ff60045460101c166102b1575b6001600055005b7f8726cb855b6e2f06382a782d2b5c208d25a81aa30625c042c9671aa5d0d4db37600080a16102aa565b60405162461bcd60e51b81526020600482015260136024820152721554d110c81c185e5b595b9d0819985a5b1959606a1b6044820152606490fd5b610338915060203d60201161033e575b61033081836110e6565b81019061111e565b8261025d565b503d610326565b6040513d6000823e3d90fd5b62ff000019166201000017600455856101ec565b3461010b57600036600319011261010b5760206040517f00000000000000000000000000000000000000000000000000000000000000008152f35b3461010b57602036600319011261010b576004356001600160a01b0381169081900361010b576103fa337f00000000000000000000000000000000000000000000000000000000000000006001600160a01b031614611179565b6001546001600160a01b038116610485578115610447576001600160a01b03191681176001557f54841e992da2f7bcaa3127409f02e1849c79072740593c398d6670f65f995fa7600080a2005b60405162461bcd60e51b8152602060048201526016602482015275496e76616c696420776f726b6572206164647265737360501b6044820152606490fd5b60405162461bcd60e51b815260206004820152601260248201527115dbdc9ad95c88185b1c9958591e481cd95d60721b6044820152606490fd5b3461010b57600036600319011261010b57602060405173a0b86991c6218b36c1d19d4a2e9eb0ce3606eb488152f35b3461010b57600036600319011261010b577f00000000000000000000000000000000000000000000000000000000000000006001600160a01b0316610534338214611179565b61053c6112d4565b60ff6004541661079257600254610759576040516370a0823160e01b81523060048201527f00000000000000000000000000000000000000000000000000000000000000006001600160a01b03169190602081602481865afa90811561034557600091610727575b507f000000000000000000000000000000000000000000000000000000000000000092604051926323b872dd60e01b845260048401523060248401528360448401526020836064816000855af19081156103455761060f60209260249560009161070a575b50611136565b6040516370a0823160e01b815230600482015293849182905afa80156103455783926000916106d1575b5090610644916112c7565b0361068c576020817fc4c14883ae9fd8e26d5d59e3485ed29fd126d781d7e498a4ca5c54c8268e493692600255600160ff196004541617600455604051908152a16001600055005b60405162461bcd60e51b815260206004820152601860248201527f496e636f72726563742066756e64696e6720616d6f756e7400000000000000006044820152606490fd5b919250506020813d602011610702575b816106ee602093836110e6565b8101031261010b5751829190610644610639565b3d91506106e1565b6107219150843d861161033e5761033081836110e6565b87610609565b90506020813d602011610751575b81610742602093836110e6565b8101031261010b5751836105a4565b3d9150610735565b60405162461bcd60e51b8152602060048201526011602482015270416c7265616479206861732066756e647360781b6044820152606490fd5b60405162461bcd60e51b815260206004820152600e60248201526d105b1c9958591e48199d5b99195960921b6044820152606490fd5b3461010b57600036600319011261010b576040517f00000000000000000000000000000000000000000000000000000000000000006001600160a01b03168152602090f35b3461010b57600036600319011261010b57602060ff600454166040519015158152f35b3461010b57600036600319011261010b57610875337f00000000000000000000000000000000000000000000000000000000000000006001600160a01b031614611179565b60045461088860ff8260101c1615610ffd565b60ff8160081c166108c65761ff001916610100176004557fa9f218df296bdff29869b6b40927376285db89e1726d55dc7a5583eab3f72c42600080a1005b60405162461bcd60e51b815260206004820152601060248201526f105b1c9958591e48191a5cdc1d5d195960821b6044820152606490fd5b3461010b57600036600319011261010b576020600254604051908152f35b3461010b57600036600319011261010b576001546040516001600160a01b039091168152602090f35b3461010b57600036600319011261010b576020600354604051908152f35b3461010b57602036600319011261010b576004356109ab337f00000000000000000000000000000000000000000000000000000000000000006001600160a01b031614611179565b6109c160ff60045461016e828260081c166111f9565b6109c96112d4565b6004546109d860ff8216611049565b6109e382151561123a565b6109f6826002546101ce82821015611286565b8060025515610afc575b5060405163a9059cbb60e01b81527f00000000000000000000000000000000000000000000000000000000000000006001600160a01b0381166004830152602482018390526020828060448101038160007f00000000000000000000000000000000000000000000000000000000000000006001600160a01b03165af190811561034557610aba6020927fa171b6942063c6f2800ce40a780edce37baa2b618571b11eedd1e69e626e7d7694600091610adf575b506111b8565b6040519384526001600160a01b031692a260ff60045460101c166102b1576001600055005b610af69150843d861161033e5761033081836110e6565b86610ab4565b62ff00001916620100001760045581610a00565b3461010b57600036600319011261010b576040517f00000000000000000000000000000000000000000000000000000000000000006001600160a01b03168152602090f35b3461010b57600036600319011261010b57610b9a337f00000000000000000000000000000000000000000000000000000000000000006001600160a01b031614611179565b610bbb60ff600454610bb1828260101c1615610ffd565b60081c1615610fba565b610bc36112d4565b600454610bd260ff8216611049565b60028054600090915562ff0000199091166201000017600490815560405163a9059cbb60e01b81526001600160a01b037f00000000000000000000000000000000000000000000000000000000000000009081169282019290925260248101839052906020828060448101038160007f00000000000000000000000000000000000000000000000000000000000000006001600160a01b03165af190811561034557610ca96020927fa171b6942063c6f2800ce40a780edce37baa2b618571b11eedd1e69e626e7d7694600091610adf57506111b8565b6040519384526001600160a01b031692a27f8726cb855b6e2f06382a782d2b5c208d25a81aa30625c042c9671aa5d0d4db37600080a16001600055005b3461010b57600036600319011261010b57337f00000000000000000000000000000000000000000000000000000000000000006001600160a01b0316148015610f20575b15610edb57610d4660ff60045461016e828260081c1615610fba565b610d4e6112d4565b600454610d5d60ff8216611049565b600254908115610ea457602082610dd9926201000060018060a01b036001541691610d89831515611082565b6000600255610d9a846003546110c3565b60035562ff0000191617600490815560405163a9059cbb60e01b81526001600160a01b0390921690820152602481019190915291829081906044820190565b038160007f00000000000000000000000000000000000000000000000000000000000000006001600160a01b03165af1801561034557610e2091600091610e855750611136565b6001546040519182526001600160a01b0316907fa1f31d6eb45c9b14e87669177b616a1606332d1b22274b92488de1f768f064af90602090a27f8726cb855b6e2f06382a782d2b5c208d25a81aa30625c042c9671aa5d0d4db37600080a16001600055005b610e9e915060203d60201161033e5761033081836110e6565b83610609565b60405162461bcd60e51b815260206004820152600f60248201526e139bc8199d5b991cc81b1bd8dad959608a1b6044820152606490fd5b60405162461bcd60e51b815260206004820152601a60248201527f4f6e6c7920636c69656e74206f72206d61726b6574706c6163650000000000006044820152606490fd5b50337f00000000000000000000000000000000000000000000000000000000000000006001600160a01b031614610d2a565b3461010b57600036600319011261010b576040517f00000000000000000000000000000000000000000000000000000000000000006001600160a01b03168152602090f35b3461010b57600036600319011261010b5760209060ff60045460081c1615158152f35b15610fc157565b60405162461bcd60e51b815260206004820152601460248201527310dbdb9d1c9858dd081a5cc8191a5cdc1d5d195960621b6044820152606490fd5b1561100457565b60405162461bcd60e51b815260206004820152601860248201527f457363726f7720616c726561647920636f6d706c6574656400000000000000006044820152606490fd5b1561105057565b60405162461bcd60e51b815260206004820152600a602482015269139bdd08199d5b99195960b21b6044820152606490fd5b1561108957565b60405162461bcd60e51b8152602060048201526012602482015271139bc81ddbdc9ad95c881cd95b1958dd195960721b6044820152606490fd5b919082018092116110d057565b634e487b7160e01b600052601160045260246000fd5b90601f8019910116810190811067ffffffffffffffff82111761110857604052565b634e487b7160e01b600052604160045260246000fd5b9081602091031261010b5751801515810361010b5790565b1561113d57565b60405162461bcd60e51b81526020600482015260146024820152731554d110c81d1c985b9cd9995c8819985a5b195960621b6044820152606490fd5b1561118057565b60405162461bcd60e51b815260206004820152601060248201526f4f6e6c79206d61726b6574706c61636560801b6044820152606490fd5b156111bf57565b60405162461bcd60e51b81526020600482015260126024820152711554d110c81c99599d5b990819985a5b195960721b6044820152606490fd5b1561120057565b60405162461bcd60e51b815260206004820152601260248201527113db9b1e481dda195b88191a5cdc1d5d195960721b6044820152606490fd5b1561124157565b60405162461bcd60e51b815260206004820152601760248201527f416d6f756e74206d75737420626520706f7369746976650000000000000000006044820152606490fd5b1561128d57565b60405162461bcd60e51b8152602060048201526012602482015271496e73756666696369656e742066756e647360701b6044820152606490fd5b919082039182116110d057565b6002600054146112e5576002600055565b633ee5aeb560e01b60005260046000fdfea2646970667358221220d052ae8b690a410ec8f8dfc8ab5b4ded7849c80d74cc408f337e983d15eb8bee64736f6c634300081c0033",
  "linkReferences": {},
  "deployedLinkReferences": {}
}