{
  "_format": "hh-sol-artifact-1",
  "contractName": "JobMarketplace",
  "sourceName": "contracts/JobMarketplace.sol",
  "abi": [
    {
      "inputs": [
        {
          "internalType": "address",
          "name": "_arbitration",
          "type": "address"
        },
        {
          "internalType": "address",
          "name": "_reputationSystem",
          "type": "address"
        },
        {
          "internalType": "address",
          "name": "_workerRegistry",
          "type": "address"
        }
      ],
      "stateMutability": "nonpayable",
      "type": "constructor"
    },
    {
      "inputs": [
        {
          "internalType": "address",
          "name": "owner",
          "type": "address"
        }
      ],
      "name": "OwnableInvalidOwner",
      "type": "error"
    },
    {
      "inputs": [
        {
          "internalType": "address",
          "name": "account",
          "type": "address"
        }
      ],
      "name": "OwnableUnauthorizedAccount",
      "type": "error"
    },
    {
      "inputs": [],
      "name": "ReentrancyGuardReentrantCall",
      "type": "error"
    },
    {
      "anonymous": false,
      "inputs": [
        {
          "indexed": true,
          "internalType": "uint256",
          "name": "jobId",
          "type": "uint256"
        },
        {
          "indexed": true,
          "internalType": "address",
          "name": "worker",
          "type": "address"
        }
      ],
      "name": "ApplicationSubmitted",
      "type": "event"
    },
    {
      "anonymous": false,
      "inputs": [
        {
          "indexed": true,
          "internalType": "uint256",
          "name": "jobId",
          "type": "uint256"
        },
        {
          "indexed": false,
          "internalType": "uint256",
          "name": "disputeId",
          "type": "uint256"
        }
      ],
      "name": "DisputeRaised",
      "type": "event"
    },
    {
      "anonymous": false,
      "inputs": [
        {
          "indexed": true,
          "internalType": "uint256",
          "name": "jobId",
          "type": "uint256"
        },
        {
          "indexed": false,
          "internalType": "bool",
          "name": "clientWon",
          "type": "bool"
        }
      ],
      "name": "DisputeResolved",
      "type": "event"
    },
    {
      "anonymous": false,
      "inputs": [
        {
          "indexed": true,
          "internalType": "uint256",
          "name": "jobId",
          "type": "uint256"
        },
        {
          "indexed": false,
          "internalType": "address",
          "name": "escrowContract",
          "type": "address"
        }
      ],
      "name": "EscrowCreated",
      "type": "event"
    },
    {
      "anonymous": false,
      "inputs": [
        {
          "indexed": true,
          "internalType": "uint256",
          "name": "jobId",
          "type": "uint256"
        }
      ],
      "name": "JobCancelled",
      "type": "event"
    },
    {
      "anonymous": false,
      "inputs": [
        {
          "indexed": true,
          "internalType": "uint256",
          "name": "jobId",
          "type": "uint256"
        },
        {
          "indexed": true,
          "internalType": "address",
          "name": "client",
          "type": "address"
        },
        {
          "indexed": false,
          "internalType": "string",
          "name": "title",
          "type": "string"
        },
        {
          "indexed": false,
          "internalType": "uint256",
          "name": "categoryId",
          "type": "uint256"
        },
        {
          "indexed": false,
          "internalType": "uint256",
          "name": "budget",
          "type": "uint256"
        }
      ],
      "name": "JobPosted",
      "type": "event"
    },
    {
      "anonymous": false,
      "inputs": [
        {
          "indexed": true,
          "internalType": "address",
          "name": "previousOwner",
          "type": "address"
        },
        {
          "indexed": true,
          "internalType": "address",
          "name": "newOwner",
          "type": "address"
        }
      ],
      "name": "OwnershipTransferred",
      "type": "event"
    },
    {
      "anonymous": false,
      "inputs": [
        {
          "indexed": true,
          "internalType": "uint256",
          "name": "jobId",
          "type": "uint256"
        },
        {
          "indexed": true,
          "internalType": "address",
          "name": "worker",
          "type": "address"
        },
        {
          "indexed": false,
          "internalType": "uint256",
          "name": "amount",
          "type": "uint256"
        }
      ],
      "name": "PaymentReleased",
      "type": "event"
    },
    {
      "anonymous": false,
      "inputs": [
        {
          "indexed": true,
          "internalType": "uint256",
          "name": "jobId",
          "type": "uint256"
        },
        {
          "indexed": false,
          "internalType": "string",
          "name": "workHash",
          "type": "string"
        }
      ],
      "name": "WorkSubmitted",
      "type": "event"
    },
    {
      "anonymous": false,
      "inputs": [
        {
          "indexed": true,
          "internalType": "uint256",
          "name": "jobId",
          "type": "uint256"
        },
        {
          "indexed": true,
          "internalType": "address",
          "name": "worker",
          "type": "address"
        }
      ],
      "name": "WorkerSelected",
      "type": "event"
    },
    {
      "inputs": [],
      "name": "USDC_ADDRESS",
      "outputs": [
        {
          "internalType": "address",
          "name": "",
          "type": "address"
        }
      ],
      "stateMutability": "view",
      "type": "function"
    },
    {
      "inputs": [
        {
          "internalType": "uint256",
          "name": "_jobId",
          "type": "uint256"
        }
      ],
      "name": "acceptWorkAndPay",
      "outputs": [],
      "stateMutability": "nonpayable",
      "type": "function"
    },
    {
      "inputs": [
        {
          "internalType": "uint256",
          "name": "",
          "type": "uint256"
        }
      ],
      "name": "activeJobIds",
      "outputs": [
        {
          "internalType": "uint256",
          "name": "",
          "type": "uint256"
        }
      ],
      "stateMutability": "view",
      "type": "function"
    },
    {
      "inputs": [
        {
          "internalType": "uint256",
          "name": "",
          "type": "uint256"
        }
      ],
      "name": "activeJobIndex",
      "outputs": [
        {
          "internalType": "uint256",
          "name": "",
          "type": "uint256"
        }
      ],
      "stateMutability": "view",
      "type": "function"
    },
    {
      "inputs": [
        {
          "internalType": "uint256",
          "name": "_jobId",
          "type": "uint256"
        },
        {
          "internalType": "string",
          "name": "_coverLetterHash",
          "type": "string"
        },
        {
          "internalType": "string",
          "name": "_workHistoryHash",
          "type": "string"
        }
      ],
      "name": "applyToJob",
      "outputs": [],
      "stateMutability": "nonpayable",
      "type": "function"
    },
    {
      "inputs": [],
      "name": "arbitration",
      "outputs": [
        {
          "internalType": "contract Arbitration",
          "name": "",
          "type": "address"
        }
      ],
      "stateMutability": "view",
      "type": "function"
    },
    {
      "inputs": [
        {
          "internalType": "uint256",
          "name": "_jobId",
          "type": "uint256"
        }
      ],
      "name": "cancelJob",
      "outputs": [],
      "stateMutability": "nonpayable",
      "type": "function"
    },
    {
      "inputs": [
        {
          "internalType": "address",
          "name": "",
          "type": "address"
        },
        {
          "internalType": "uint256",
          "name": "",
          "type": "uint256"
        }
      ],
      "name": "clientJobs",
      "outputs": [
        {
          "internalType": "uint256",
          "name": "",
          "type": "uint256"
        }
      ],
      "stateMutability": "view",
      "type": "function"
    },
    {
      "inputs": [
        {
          "internalType": "uint256",
          "name": "_jobId",
          "type": "uint256"
        }
      ],
      "name": "fundJobEscrow",
      "outputs": [],
      "stateMutability": "nonpayable",
      "type": "function"
    },
    {
      "inputs": [],
      "name": "getActiveJobCount",
      "outputs": [
        {
          "internalType": "uint256",
          "name": "",
          "type": "uint256"
        }
      ],
      "stateMutability": "view",
      "type": "function"
    },
    {
      "inputs": [],
      "name": "getActiveJobs",
      "outputs": [
        {
          "internalType": "uint256[]",
          "name": "",
          "type": "uint256[]"
        }
      ],
      "stateMutability": "view",
      "type": "function"
    },
    {
      "inputs": [
        {
          "internalType": "uint256",
          "name": "_jobId",
          "type": "uint256"
        }
      ],
      "name": "getApplications",
      "outputs": [
        {
          "components": [
            {
              "internalType": "address",
              "name": "worker",
              "type": "address"
            },
            {
              "internalType": "string",
              "name": "coverLetterHash",
              "type": "string"
            },
            {
              "internalType": "string",
              "name": "workHistoryHash",
              "type": "string"
            },
            {
              "internalType": "uint256",
              "name": "timestamp",
              "type": "uint256"
            }
          ],
          "internalType": "struct JobMarketplace.Application[]",
          "name": "",
          "type": "tuple[]"
        }
      ],
      "stateMutability": "view",
      "type": "function"
    },
    {
      "inputs": [
        {
          "internalType": "address",
          "name": "_client",
          "type": "address"
        }
      ],
      "name": "getClientJobs",
      "outputs": [
        {
          "internalType": "uint256[]",
          "name": "",
          "type": "uint256[]"
        }
      ],
      "stateMutability": "view",
      "type": "function"
    },
    {
      "inputs": [
        {
          "internalType": "uint256",
          "name": "_jobId",
          "type": "uint256"
        }
      ],
      "name": "getJob",
      "outputs": [
        {
          "components": [
            {
              "internalType": "uint256",
              "name": "jobId",
              "type": "uint256"
            },
            {
              "internalType": "address",
              "name": "client",
              "type": "address"
            },
            {
              "internalType": "string",
              "name": "title",
              "type": "string"
            },
            {
              "internalType": "string",
              "name": "description",
              "type": "string"
            },
            {
              "internalType": "string",
              "name": "skills",
              "type": "string"
            },
            {
              "internalType": "uint256",
              "name": "categoryId",
              "type": "uint256"
            },
            {
              "internalType": "uint256",
              "name": "budget",
              "type": "uint256"
            },
            {
              "internalType": "bool",
              "name": "isActive",
              "type": "bool"
            },
            {
              "internalType": "bool",
              "name": "isCompleted",
              "type": "bool"
            },
            {
              "internalType": "bool",
              "name": "isFunded",
              "type": "bool"
            },
            {
              "internalType": "address",
              "name": "selectedWorker",
              "type": "address"
            },
            {
              "internalType": "address",
              "name": "escrowContract",
              "type": "address"
            },
            {
              "internalType": "string",
              "name": "workSubmissionHash",
              "type": "string"
            },
            {
              "internalType": "bool",
              "name": "workSubmitted",
              "type": "bool"
            },
            {
              "internalType": "uint256",
              "name": "disputeId",
              "type": "uint256"
            },
            {
              "internalType": "bool",
              "name": "isDisputed",
              "type": "bool"
            },
            {
              "internalType": "bool",
              "name": "isCancelled",
              "type": "bool"
            }
          ],
          "internalType": "struct JobMarketplace.Job",
          "name": "",
          "type": "tuple"
        }
      ],
      "stateMutability": "view",
      "type": "function"
    },
    {
      "inputs": [
        {
          "internalType": "address",
          "name": "_worker",
          "type": "address"
        }
      ],
      "name": "getWorkerApplications",
      "outputs": [
        {
          "internalType": "uint256[]",
          "name": "",
          "type": "uint256[]"
        }
      ],
      "stateMutability": "view",
      "type": "function"
    },
    {
      "inputs": [
        {
          "internalType": "address",
          "name": "_worker",
          "type": "address"
        }
      ],
      "name": "getWorkerJobs",
      "outputs": [
        {
          "internalType": "uint256[]",
          "name": "",
          "type": "uint256[]"
        }
      ],
      "stateMutability": "view",
      "type": "function"
    },
    {
      "inputs": [
        {
          "internalType": "uint256",
          "name": "",
          "type": "uint256"
        },
        {
          "internalType": "address",
          "name": "",
          "type": "address"
        }
      ],
      "name": "hasApplied",
      "outputs": [
        {
          "internalType": "bool",
          "name": "",
          "type": "bool"
        }
      ],
      "stateMutability": "view",
      "type": "function"
    },
    {
      "inputs": [
        {
          "internalType": "uint256",
          "name": "",
          "type": "uint256"
        },
        {
          "internalType": "uint256",
          "name": "",
          "type": "uint256"
        }
      ],
      "name": "jobApplications",
      "outputs": [
        {
          "internalType": "address",
          "name": "worker",
          "type": "address"
        },
        {
          "internalType": "string",
          "name": "coverLetterHash",
          "type": "string"
        },
        {
          "internalType": "string",
          "name": "workHistoryHash",
          "type": "string"
        },
        {
          "internalType": "uint256",
          "name": "timestamp",
          "type": "uint256"
        }
      ],
      "stateMutability": "view",
      "type": "function"
    },
    {
      "inputs": [],
      "name": "jobCounter",
      "outputs": [
        {
          "internalType": "uint256",
          "name": "",
          "type": "uint256"
        }
      ],
      "stateMutability": "view",
      "type": "function"
    },
    {
      "inputs": [
        {
          "internalType": "uint256",
          "name": "",
          "type": "uint256"
        }
      ],
      "name": "jobs",
      "outputs": [
        {
          "internalType": "uint256",
          "name": "jobId",
          "type": "uint256"
        },
        {
          "internalType": "address",
          "name": "client",
          "type": "address"
        },
        {
          "internalType": "string",
          "name": "title",
          "type": "string"
        },
        {
          "internalType": "string",
          "name": "description",
          "type": "string"
        },
        {
          "internalType": "string",
          "name": "skills",
          "type": "string"
        },
        {
          "internalType": "uint256",
          "name": "categoryId",
          "type": "uint256"
        },
        {
          "internalType": "uint256",
          "name": "budget",
          "type": "uint256"
        },
        {
          "internalType": "bool",
          "name": "isActive",
          "type": "bool"
        },
        {
          "internalType": "bool",
          "name": "isCompleted",
          "type": "bool"
        },
        {
          "internalType": "bool",
          "name": "isFunded",
          "type": "bool"
        },
        {
          "internalType": "address",
          "name": "selectedWorker",
          "type": "address"
        },
        {
          "internalType": "address",
          "name": "escrowContract",
          "type": "address"
        },
        {
          "internalType": "string",
          "name": "workSubmissionHash",
          "type": "string"
        },
        {
          "internalType": "bool",
          "name": "workSubmitted",
          "type": "bool"
        },
        {
          "internalType": "uint256",
          "name": "disputeId",
          "type": "uint256"
        },
        {
          "internalType": "bool",
          "name": "isDisputed",
          "type": "bool"
        },
        {
          "internalType": "bool",
          "name": "isCancelled",
          "type": "bool"
        }
      ],
      "stateMutability": "view",
      "type": "function"
    },
    {
      "inputs": [],
      "name": "owner",
      "outputs": [
        {
          "internalType": "address",
          "name": "",
          "type": "address"
        }
      ],
      "stateMutability": "view",
      "type": "function"
    },
    {
      "inputs": [
        {
          "internalType": "string",
          "name": "_title",
          "type": "string"
        },
        {
          "internalType": "string",
          "name": "_description",
          "type": "string"
        },
        {
          "internalType": "string",
          "name": "_skills",
          "type": "string"
        },
        {
          "internalType": "uint256",
          "name": "_categoryId",
          "type": "uint256"
        },
        {
          "internalType": "uint256",
          "name": "_budget",
          "type": "uint256"
        }
      ],
      "name": "postJob",
      "outputs": [
        {
          "internalType": "uint256",
          "name": "",
          "type": "uint256"
        }
      ],
      "stateMutability": "nonpayable",
      "type": "function"
    },
    {
      "inputs": [
        {
          "internalType": "uint256",
          "name": "_jobId",
          "type": "uint256"
        }
      ],
      "name": "raiseDispute",
      "outputs": [],
      "stateMutability": "nonpayable",
      "type": "function"
    },
    {
      "inputs": [
        {
          "internalType": "uint256",
          "name": "_jobId",
          "type": "uint256"
        },
        {
          "internalType": "uint8",
          "name": "_rating",
          "type": "uint8"
        }
      ],
      "name": "rateClient",
      "outputs": [],
      "stateMutability": "nonpayable",
      "type": "function"
    },
    {
      "inputs": [
        {
          "internalType": "uint256",
          "name": "_jobId",
          "type": "uint256"
        },
        {
          "internalType": "uint8",
          "name": "_rating",
          "type": "uint8"
        }
      ],
      "name": "rateWorker",
      "outputs": [],
      "stateMutability": "nonpayable",
      "type": "function"
    },
    {
      "inputs": [],
      "name": "renounceOwnership",
      "outputs": [],
      "stateMutability": "nonpayable",
      "type": "function"
    },
    {
      "inputs": [],
      "name": "reputationSystem",
      "outputs": [
        {
          "internalType": "contract ReputationSystem",
          "name": "",
          "type": "address"
        }
      ],
      "stateMutability": "view",
      "type": "function"
    },
    {
      "inputs": [
        {
          "internalType": "uint256",
          "name": "_jobId",
          "type": "uint256"
        }
      ],
      "name": "resolveDispute",
      "outputs": [],
      "stateMutability": "nonpayable",
      "type": "function"
    },
    {
      "inputs": [
        {
          "internalType": "uint256",
          "name": "_jobId",
          "type": "uint256"
        },
        {
          "internalType": "address",
          "name": "_worker",
          "type": "address"
        }
      ],
      "name": "selectWorker",
      "outputs": [],
      "stateMutability": "nonpayable",
      "type": "function"
    },
    {
      "inputs": [
        {
          "internalType": "uint256",
          "name": "_jobId",
          "type": "uint256"
        },
        {
          "internalType": "string",
          "name": "_workHash",
          "type": "string"
        }
      ],
      "name": "submitWork",
      "outputs": [],
      "stateMutability": "nonpayable",
      "type": "function"
    },
    {
      "inputs": [
        {
          "internalType": "address",
          "name": "newOwner",
          "type": "address"
        }
      ],
      "name": "transferOwnership",
      "outputs": [],
      "stateMutability": "nonpayable",
      "type": "function"
    },
    {
      "inputs": [],
      "name": "usdc",
      "outputs": [
        {
          "internalType": "contract IERC20",
          "name": "",
          "type": "address"
        }
      ],
      "stateMutability": "view",
      "type": "function"
    },
    {
      "inputs": [
        {
          "internalType": "address",
          "name": "",
          "type": "address"
        },
        {
          "internalType": "uint256",
          "name": "",
          "type": "uint256"
        }
      ],
      "name": "workerApplications",
      "outputs": [
        {
          "internalType": "uint256",
          "name": "",
          "type": "uint256"
        }
      ],
      "stateMutability": "view",
      "type": "function"
    },
    {
      "inputs": [
        {
          "internalType": "address",
          "name": "",
          "type": "address"
        },
        {
          "internalType": "uint256",
          "name": "",
          "type": "uint256"
        }
      ],
      "name": "workerJobs",
      "outputs": [
        {
          "internalType": "uint256",
          "name": "",
          "type": "uint256"
        }
      ],
      "stateMutability": "view",
      "type": "function"
    },
    {
      "inputs": [],
      "name": "workerRegistry",
      "outputs": [
        {
          "internalType": "contract WorkerRegistry",
          "name": "",
          "type": "address"
        }
      ],
      "stateMutability": "view",
      "type": "function"
    }
  ],
  "bytecode": "0x6101003461017257601f61543138819003918201601f19168301916001600160401b0383118484101761017757808492606094604052833981010312610172576100488161018d565b90610061604061005a6020840161018d565b920161018d565b906001600055331561015c5760018054336001600160a01b0319821681179092556040519491906001600160a01b03167f8be0079c531659141344cd1fd0a4f28419497f9722a3daafe3b4186f6b6457e0600080a36001600160a01b0390811660805273a0b86991c6218b36c1d19d4a2e9eb0ce3606eb4860a05290811660c0521660e05261528f90816101a282396080518181816106cb01528181611296015281816117700152611ab6015260a051818181611302015281816129f50152613054015260c05181818161080b015281816110fb0152818161194501528181612992015261347d015260e05181818161024301526123e90152f35b631e4fbdf760e01b600052600060045260246000fd5b600080fd5b634e487b7160e01b600052604160045260246000fd5b51906001600160a01b03821682036101725756fe608080604052600436101561001357600080fd5b600090813560e01c90816306d004ef146135c9575080630861f5e7146135575780630a197a0d146133f65780630a3c7919146133cc578063123ca7a314612fa6578063180aedf314612e3e5780631dffa3dc14612ccf57806337597cb514612c5a578063382b865a14612a245780633e413bee146129df57806350355d76146129c15780636587eda11461297c5780636e59ef7a14612934578063715018a6146128d757806371cc8d2d14612301578063752d198a14611a19578063873dd886146118105780638da5cb5b146117e75780638facd8591461179f5780639b7323501461175a5780639c5401f1146117125780639e4fcfa9146116d8578063a39bf5441461168c578063a5c1674e14611209578063b2a0d47d14611079578063bb09d9b71461104a578063bc8c937d14610ee5578063bf22c45714610c25578063c2b7b8681461063f578063cf2646c2146105bd578063d02217141461059f578063da8accf91461030e578063ead39a1114610272578063ec446c071461022d5763f2fde38b146101a257600080fd5b3461022a57602036600319011261022a576101bb613637565b6101c3613d32565b6001600160a01b0316801561021657600180546001600160a01b0319811683179091556001600160a01b03167f8be0079c531659141344cd1fd0a4f28419497f9722a3daafe3b4186f6b6457e08380a380f35b631e4fbdf760e01b82526004829052602482fd5b80fd5b503461022a578060031936011261022a576040517f00000000000000000000000000000000000000000000000000000000000000006001600160a01b03168152602090f35b503461022a57604036600319011261022a576024356004358252600460205260408220805482101561030a576102a892506138e9565b5080546001600160a01b03166102c060018301613765565b9161030060036102d260028401613765565b920154916102f26040519586958652608060208701526080860190613809565b908482036040860152613809565b9060608301520390f35b8280fd5b503461022a57604036600319011261022a576004356024356001600160401b03811161030a57610342903690600401613893565b818352600360205261036760018060a01b03600760408620015460181c163314613905565b818352600360205260ff600a6040852001541661056157805115610527578183526003602052600a6040842001600160ff1982541617905581835260036020526009604084200181516001600160401b038111610513576103c882546136bd565b601f81116104ce575b506020601f82116001146104485791817f3822c71b106c7c1dabf7f076e68c9bd98c45d0cd0d073f4dcdaf422a0fe55847949261043794889161043d575b508160011b916000199060031b1c19161790555b604051918291602083526020830190613809565b0390a280f35b90508301513861040f565b82865280862090601f198316875b8181106104b65750926104379492600192827f3822c71b106c7c1dabf7f076e68c9bd98c45d0cd0d073f4dcdaf422a0fe5584798961061049d575b5050811b019055610423565b85015160001960f88460031b161c191690553880610491565b9192602060018192868a015181550194019201610456565b82865260208620601f830160051c81019160208410610509575b601f0160051c01905b8181106104fe57506103d1565b8681556001016104f1565b90915081906104e8565b634e487b7160e01b85526041600452602485fd5b60405162461bcd60e51b815260206004820152601260248201527115dbdc9ac81a185cda081c995c5d5a5c995960721b6044820152606490fd5b60405162461bcd60e51b815260206004820152601660248201527515dbdc9ac8185b1c9958591e481cdd589b5a5d1d195960521b6044820152606490fd5b503461022a578060031936011261022a576020600954604051908152f35b503461022a57602036600319011261022a576001600160a01b036105df613637565b168152600560205260408120604051918260208354918281520192825260208220915b818110610629576106258561061981870382613744565b60405191829182613663565b0390f35b8254845260209093019260019283019201610602565b503461022a57602036600319011261022a5760043561065c613c51565b808252600360205260408220906001820160018060a01b0381541633148015610c09575b15610bc45760ff600c8401541615610b905760078301918254936106aa60ff8660081c1615613c11565b600b81018054604080516301437a6d60e61b815260048101839052949293917f00000000000000000000000000000000000000000000000000000000000000006001600160a01b03169186602481855afa958615610b85578a908b97610b39575b5015610af45760209060246040518094819363babbd16960e01b835260048301525afa908115610ae9578991610ab7575b50421115610a725761ffff1990961661010017855560089590950154604051630d56517960e31b81528796916001600160a01b031690602081600481855afa9081156109b9578891610a38575b5084156109e857813b156109ad5787916024839260405194859384926310fbb54760e21b845260048401525af19081156109dd5787916109c4575b50505b7f5a87909bff68caaaaf0b3fd9c74eeccc928832f879315e5c6fb7a73612f26c0c60206040518515158152a28054604051635104b82960e01b8152600481018290527f00000000000000000000000000000000000000000000000000000000000000006001600160a01b03169390602081602481885afa9081156109b957889161097b575b501561085b575b866001815580f35b156108f9575054915492546001600160a01b039384169360189190911c1690803b156108f557604051630e88cf7f60e21b815260048101939093526001600160a01b039384166024840152921660448201529082908290606490829084905af180156108ea576108d5575b50505b80388080808080610853565b816108df91613744565b61022a5780386108c6565b6040513d84823e3d90fd5b8480fd5b935492546001600160a01b0360189490941c8416949316919050803b156108f557604051630e88cf7f60e21b815260048101939093526001600160a01b039384166024840152921660448201529082908290606490829084905af180156108ea57610966575b50506108c9565b8161097091613744565b61022a57803861095f565b90506020813d6020116109b1575b8161099660209383613744565b810103126109ad576109a7906139e8565b3861084c565b8780fd5b3d9150610989565b6040513d8a823e3d90fd5b816109ce91613744565b6109d95785386107c4565b8580fd5b6040513d89823e3d90fd5b813b156109ad578791602483926040519485938492637ade9a3560e11b845260048401525af19081156109dd578791610a23575b50506107c7565b81610a2d91613744565b6109d9578538610a1c565b9750506020873d602011610a6a575b81610a5460209383613744565b81010312610a655787965138610789565b600080fd5b3d9150610a47565b60405162461bcd60e51b815260206004820152601760248201527f41707065616c20706572696f64206e6f7420656e6465640000000000000000006044820152606490fd5b90506020813d602011610ae1575b81610ad260209383613744565b81010312610a6557513861073c565b3d9150610ac5565b6040513d8b823e3d90fd5b60405162461bcd60e51b815260206004820152601860248201527f44697370757465206e6f74207265736f6c7665642079657400000000000000006044820152606490fd5b9650506040863d604011610b7d575b81610b5560409383613744565b81010312610b7957610b726020610b6b886139e8565b97016139e8565b953861070b565b8980fd5b3d9150610b48565b6040513d8c823e3d90fd5b60405162461bcd60e51b815260206004820152600c60248201526b139bdd08191a5cdc1d5d195960a21b6044820152606490fd5b60405162461bcd60e51b815260206004820152601860248201527f4f6e6c7920706172746965732063616e207265736f6c766500000000000000006044820152606490fd5b5060078301543360189190911c6001600160a01b031614610680565b503461022a57602036600319011261022a57806040916102008351610c4981613728565b828152826020820152606085820152606080820152606060808201528260a08201528260c08201528260e0820152826101008201528261012082015282610140820152826101608201526060610180820152826101a0820152826101c0820152826101e08201520152600435815260036020522060ff600c60405192610cce84613728565b8054845260018101546001600160a01b03166020850152610cf160028201613765565b6040850152610d0260038201613765565b6060850152610d1360048201613765565b6080850152600581015460a0850152600681015460c08501526007810154838116151560e0860152600881811c85161515610100870152601082901c851615156101208701526001600160a01b0360189290921c821661014087015282015416610160850152610d8560098201613765565b61018085015282600a8201541615156101a0850152600b8101546101c0850152015481811615156101e084015260081c1615156102008201526040518091602082528051602083015260018060a01b036020820151166040830152610200610eb0610e33610e1d610e0760408601516102206060890152610240880190613809565b6060860151878203601f19016080890152613809565b6080850151868203601f190160a0880152613809565b60a084015160c086015260c084015160e086015260e084015115156101008601526101008401511515610120860152610120840151151561014086015260018060a01b036101408501511661016086015260018060a01b0361016085015116610180860152610180840151601f19868303016101a0870152613809565b916101a081015115156101c08501526101c08101516101e08501526101e0810151151582850152015115156102208301520390f35b503461022a57602036600319011261022a57600435815260046020526040812080546001600160401b0381116110365760405190610f2960208260051b0183613744565b80825260208201809385526020852085915b838310610fe057868587604051928392602084019060208552518091526040840160408260051b8601019392905b828210610f7857505050500390f35b919360019193955060208091603f19898203018552875190848060a01b038251168152606080610fca610fb8868601516080888701526080860190613809565b60408601518582036040870152613809565b9301519101529601920192018594939192610f69565b60046020600192604051610ff3816136f7565b848060a01b038654168152611009858701613765565b8382015261101960028701613765565b604082015260038601546060820152815201920192019190610f3b565b634e487b7160e01b83526041600452602483fd5b503461022a578060031936011261022a57602060405173a0b86991c6218b36c1d19d4a2e9eb0ce3606eb488152f35b503461022a57806110893661369d565b81835260036020526110ab60018060a01b036001604086200154163314613aac565b81835260036020526110c960ff600760408620015460081c16613948565b81835260036020526110e560ff600c6040862001541615613988565b604051633b2fc05b60e21b8152600481018390527f00000000000000000000000000000000000000000000000000000000000000006001600160a01b0316919060a081602481865afa9081156111fe5761114c9160809187916111cf575b50015115613a70565b8284526003602052604084206007015460181c6001600160a01b031691803b156108f557604051634c82f8cd60e11b815260048101949094526001600160a01b0392909216602484015233604484015260ff16606483015282908290608490829084905af180156108ea576111be5750f35b816111c891613744565b61022a5780f35b6111f1915060a03d60a0116111f7575b6111e98183613744565b8101906139f5565b38611143565b503d6111df565b6040513d87823e3d90fd5b503461022a57602036600319011261022a57600435611226613c51565b808252600360205260408220600181019060018060a01b0382541633148015611670575b1561162b57600781018054929061126f601885901c6001600160a01b03161515613bd0565b600c83019360ff8554166115f35760081c60ff166115b65760405163049869c960e01b81527f00000000000000000000000000000000000000000000000000000000000000006001600160a01b03169490602081600481895afa9081156109b9578891611584575b506040516323b872dd60e01b8152336004820152306024820152604481018290526001600160a01b037f000000000000000000000000000000000000000000000000000000000000000016906020816064818d865af1908115610b85578a9161154a575b50156114f95760405163095ea7b360e01b81526001600160a01b03881660048201526024810192909252602090829060449082908c905af180156109b9576114c2575b50805460ff19166001179055600883015486906001600160a01b0316803b156114be57818091600460405180948193631b6a8b5160e21b83525af180156108ea576114a9575b50509054905460058301546006840154604051634c3f041b60e11b8152600481018890526001600160a01b03948516602482015260189390931c90931660448301526064820152608481019190915291602090839060a490829088905af191821561149e578492611469575b50817f1954f0ea9e3f5fbdc693320e038db1549f419ae5351b74d36cee7c9ef13dd2b692600b6020930155604051908152a26001815580f35b91506020823d602011611496575b8161148460209383613744565b81010312610a6557905190600b611430565b3d9150611477565b6040513d86823e3d90fd5b816114b391613744565b6109d95785386113c4565b5080fd5b6020813d6020116114f1575b816114db60209383613744565b810103126109ad576114ec906139e8565b61137e565b3d91506114ce565b60405162461bcd60e51b8152602060048201526024808201527f55534443206172626974726174696f6e20666565207472616e736665722066616044820152631a5b195960e21b6064820152608490fd5b90506020813d60201161157c575b8161156560209383613744565b81010312610b7957611576906139e8565b3861133b565b3d9150611558565b90506020813d6020116115ae575b8161159f60209383613744565b81010312610a655751386112d7565b3d9150611592565b60405162461bcd60e51b8152602060048201526015602482015274129bd888185b1c9958591e4818dbdb5c1b195d1959605a1b6044820152606490fd5b60405162461bcd60e51b815260206004820152601060248201526f105b1c9958591e48191a5cdc1d5d195960821b6044820152606490fd5b60405162461bcd60e51b815260206004820152601860248201527f4f6e6c7920706172746965732063616e206469737075746500000000000000006044820152606490fd5b5060078101543360189190911c6001600160a01b03161461124a565b503461022a57604036600319011261022a5760406116a861364d565b9160043581526008602052209060018060a01b0316600052602052602060ff604060002054166040519015158152f35b503461022a57602036600319011261022a576004359060095482101561022a5760206117038361384a565b90549060031b1c604051908152f35b503461022a57604036600319011261022a5761172c613637565b6001600160a01b031681526006602052604081208054602435929083101561022a576020611703848461387b565b503461022a578060031936011261022a576040517f00000000000000000000000000000000000000000000000000000000000000006001600160a01b03168152602090f35b503461022a57604036600319011261022a576117b9613637565b6001600160a01b031681526005602052604081208054602435929083101561022a576020611703848461387b565b503461022a578060031936011261022a576001546040516001600160a01b039091168152602090f35b503461022a57602036600319011261022a57600435808252600360205261184760018060a01b036001604085200154163314613aac565b61184f613c51565b80825260036020526040822060078101805492919061187c601885901c6001600160a01b03161515613bd0565b60ff600a83015416156119df576101008461189e60ff889760081c1615613c11565b6118af60ff600c8601541615613b55565b61ffff191617815560088201546001600160a01b0316803b156108f55784809160046040518094819363058033ab60e21b83525af19081156111fe5785916119c5575b505060018060a01b03905460181c1660068201549181847f21d71db5be59bb9fa133895586b7404307dd33fb93b16db09dc6f1d9d7d231b06020604051878152a3600101546001600160a01b03908116937f000000000000000000000000000000000000000000000000000000000000000090911690813b156109d957856084928195604051978896879563062c165360e21b875260048701526024860152604485015260648401525af180156108ea576119b0575b506001905580f35b816119ba91613744565b61022a5780386119a8565b816119cf91613744565b6119da5783386118f2565b505050fd5b60405162461bcd60e51b815260206004820152601260248201527115dbdc9ac81b9bdd081cdd589b5a5d1d195960721b6044820152606490fd5b503461022a5760a036600319011261022a576004356001600160401b0381116114be57611a4a903690600401613893565b6024356001600160401b03811161030a57611a69903690600401613893565b916044356001600160401b0381116114be57611a89903690600401613893565b92608435156122bc5782511561228657604051635f2f85b760e01b815260643560048201526020816024817f00000000000000000000000000000000000000000000000000000000000000006001600160a01b03165afa90811561227b578391612241575b5015612209576002549360001985146121f5576001850160025560405191611b1583613728565b6001860183523360208401528460408401526060830152608082015260643560a082015260843560c08201528160e0820152816101008201528161012082015281610140820152816101608201526001602094604051611b758782613744565b8481526101808401526101a083018490526101c083018490526101e0830184905261020083018490520182526003845260408083208251815560208301516001820180546001600160a01b0319166001600160a01b0392909216919091179055908201518051906001600160401b038211610513578190611bf960028501546136bd565b601f81116121a7575b508790601f831160011461213e578692612133575b50508160011b916000199060031b1c19161760028201555b60608201518051906001600160401b038211610513578190611c5460038501546136bd565b601f81116120e5575b508790601f831160011461207c578692612071575b50508160011b916000199060031b1c19161760038201555b60808201518051906001600160401b038211610513578190611caf60048501546136bd565b601f8111612023575b508790601f8311600114611fba578692611faf575b50508160011b916000199060031b1c19161760048201555b60a0820151600582015560c08201516006820155611d7860078201611d1c60e08501511515829060ff801983541691151516179055565b610100840151815461ff00191690151560081b61ff0016178155610120840151815461014086015162010000600160b81b031990911691151560101b62ff0000169190911760189190911b6301000000600160b81b0316179055565b6101608201516008820180546001600160a01b0319166001600160a01b0392909216919091179055610180820151805160098301916001600160401b038211611f9b57611dc583546136bd565b601f8111611f58575b508790601f8311600114611ee4578694611e6f94846040989561020095600c95611e809c92611ed9575b50508160011b916000199060031b1c19161790555b611e2d6101a08501511515600a83019060ff801983541691151516179055565b6101c0840151600b8201550191611e576101e08201511515849060ff801983541691151516179055565b0151815461ff00191690151560081b61ff0016179055565b338152600585522060025490613ae6565b60025490817f7cfb1cd470afefecc916c2cbae9352892ea6f7b386017124a10389ee37ac9cfd611ebb60405193606085526060850190613809565b926064358682015260843560408201528033940390a3604051908152f35b015190503880611df8565b8387528887209190601f198416885b8b828210611f425750509460018561020095600c95611e809c9a9560409c99611e6f9b10611f29575b505050811b019055611e0d565b015160001960f88460031b161c19169055388080611f1c565b6001859682939686015181550195019301611ef3565b838752888720601f840160051c8101918a8510611f91575b601f0160051c01905b818110611f865750611dce565b878155600101611f79565b9091508190611f70565b634e487b7160e01b86526041600452602486fd5b015190503880611ccd565b6004850187528887209250601f198416875b8a82821061200d575050908460019594939210611ff4575b505050811b016004820155611ce5565b015160001960f88460031b161c19169055388080611fe4565b6001859682939686015181550195019301611fcc565b909150600484018652878620601f840160051c810189851061206a575b90849392915b601f830160051c8201811061205c575050611cb8565b888155859450600101612046565b5080612040565b015190503880611c72565b6003850187528887209250601f198416875b8a8282106120cf5750509084600195949392106120b6575b505050811b016003820155611c8a565b015160001960f88460031b161c191690553880806120a6565b600185968293968601518155019501930161208e565b909150600384018652878620601f840160051c810189851061212c575b90849392915b601f830160051c8201811061211e575050611c5d565b888155859450600101612108565b5080612102565b015190503880611c17565b6002850187528887209250601f198416875b8a828210612191575050908460019594939210612178575b505050811b016002820155611c2f565b015160001960f88460031b161c19169055388080612168565b6001859682939686015181550195019301612150565b909150600284018652878620601f840160051c81018985106121ee575b90849392915b601f830160051c820181106121e0575050611c02565b8881558594506001016121ca565b50806121c4565b634e487b7160e01b83526011600452602483fd5b60405162461bcd60e51b815260206004820152601060248201526f496e76616c69642063617465676f727960801b6044820152606490fd5b90506020813d602011612273575b8161225c60209383613744565b8101031261030a5761226d906139e8565b38611aee565b3d915061224f565b6040513d85823e3d90fd5b60405162461bcd60e51b815260206004820152600e60248201526d151a5d1b19481c995c5d5a5c995960921b6044820152606490fd5b60405162461bcd60e51b815260206004820152601760248201527f427564676574206d75737420626520706f7369746976650000000000000000006044820152606490fd5b503461022a57606036600319011261022a576004356024356001600160401b03811161030a57612335903690600401613893565b6044356001600160401b0381116128d357612354903690600401613893565b828452600360205260408420600781015460ff8160101c1615612899578061238160ff6123939316613b93565b60181c6001600160a01b031615613b09565b600101546001600160a01b031633146128545781511561281757828452600860209081526040808620336000908152925290205460ff166127e057604051633b093fb760e01b81523360048201526020816024817f00000000000000000000000000000000000000000000000000000000000000006001600160a01b03165afa9081156111fe5785916127a6575b50156127695782845260086020526040842060018060a01b0333166000526020526040600020600160ff19825416179055828452600460205260408420906040519261246c846136f7565b33845260208401908152604084019182526060840192428452805490600160401b82101561274157906124a4916001820181556138e9565b949094612755575184546001600160a01b0319166001600160a01b039190911617845551805160018501916001600160401b0382116127415781906124e984546136bd565b601f81116126f1575b50602090601f831160011461268e578992612683575b50508160011b916000199060031b1c19161790555b51805160028401916001600160401b03821161266f5761253d83546136bd565b601f811161262a575b50602090601f83116001146125c4576003949392918891836125b9575b50508160011b9160001990861b1c19161790555b5191015533825260066020526125908160408420613ae6565b33907f394b2f46e841d2b670718e98a15dfb76853abc5a8761449c74e9cba62d9015218380a380f35b015190503880612563565b8388528188209190601f198416895b8181106126125750916001939185600398979694106125fa575b505050811b019055612577565b015160001983881b60f8161c191690553880806125ed565b929360206001819287860151815501950193016125d3565b83885260208820601f840160051c81019160208510612665575b601f0160051c01905b81811061265a5750612546565b88815560010161264d565b9091508190612644565b634e487b7160e01b87526041600452602487fd5b015190503880612508565b848a52818a209250601f1984168a5b8181106126d957509084600195949392106126c0575b505050811b01905561251d565b015160001960f88460031b161c191690553880806126b3565b9293602060018192878601518155019501930161269d565b90915083895260208920601f840160051c81019160208510612737575b90601f859493920160051c01905b81811061272957506124f2565b8a815584935060010161271c565b909150819061270e565b634e487b7160e01b88526041600452602488fd5b634e487b7160e01b87526004879052602487fd5b60405162461bcd60e51b815260206004820152601560248201527415dbdc9ad95c881b9bdd081c9959da5cdd195c9959605a1b6044820152606490fd5b90506020813d6020116127d8575b816127c160209383613744565b810103126108f5576127d2906139e8565b38612421565b3d91506127b4565b60405162461bcd60e51b815260206004820152600f60248201526e105b1c9958591e48185c1c1b1a5959608a1b6044820152606490fd5b60405162461bcd60e51b815260206004820152601560248201527410dbdd995c881b195d1d195c881c995c5d5a5c9959605a1b6044820152606490fd5b60405162461bcd60e51b815260206004820152601e60248201527f436c69656e742063616e6e6f74206170706c7920746f206f776e206a6f6200006044820152606490fd5b60405162461bcd60e51b8152602060048201526012602482015271129bd8881b9bdd08199d5b991959081e595d60721b6044820152606490fd5b8380fd5b503461022a578060031936011261022a576128f0613d32565b600180546001600160a01b0319811690915581906001600160a01b03167f8be0079c531659141344cd1fd0a4f28419497f9722a3daafe3b4186f6b6457e08280a380f35b503461022a57604036600319011261022a5761294e613637565b6001600160a01b031681526007602052604081208054602435929083101561022a576020611703848461387b565b503461022a578060031936011261022a576040517f00000000000000000000000000000000000000000000000000000000000000006001600160a01b03168152602090f35b503461022a578060031936011261022a576020600254604051908152f35b503461022a578060031936011261022a576040517f00000000000000000000000000000000000000000000000000000000000000006001600160a01b03168152602090f35b503461022a57604036600319011261022a57600435612a4161364d565b908083526003602052612a6460018060a01b036001604086200154163314613aac565b80835260036020526040832091600783019081549360ff8560101c1615612c2457600890612a9460ff8716613b93565b0180549094906001600160a01b031615612bea57612abe9060181c6001600160a01b031615613b09565b82855260086020526040852060018060a01b03821660005260205260ff6040600020541615612bac5781546301000000600160b81b031916601882901b6301000000600160b81b031617909155839060018060a01b0316928382526007602052612b2b8360408420613ae6565b546001600160a01b0316803b156114be5781809160246040518094819363309bdb5160e21b83528960048401525af180156108ea57612b97575b5050612b7081613c73565b7f3f21f8feb66724c3afed3428a04fab631ec22a91ea687abdc4798a58458cfa358380a380f35b81612ba191613744565b61030a578238612b65565b60405162461bcd60e51b815260206004820152601660248201527515dbdc9ad95c881a185cc81b9bdd08185c1c1b1a595960521b6044820152606490fd5b60405162461bcd60e51b8152602060048201526012602482015271115cd8dc9bddc81b9bdd0818dc99585d195960721b6044820152606490fd5b60405162461bcd60e51b815260206004820152600e60248201526d129bd8881b9bdd08199d5b99195960921b6044820152606490fd5b503461022a578060031936011261022a5760405180916020600954928381520191600982527f6e1540171b6c0c960b71a7020d9f60077f6af931a8bbf590da0223dacf75c7af915b818110612cb9576106258561061981870382613744565b8254845260209093019260019283019201612ca2565b503461022a57602036600319011261022a576004358082526003602052612d0660018060a01b036001604085200154163314613aac565b612d0e613c51565b808252600360205260408220600c81019081549160ff8360081c16612e055784926007830191610100835492612d4f60018060a01b038560181c1615613b09565b612d5c60ff821615613b55565b61ff00191617905560ff8160101c16612d9e575b505050807f58243f872c550ad02802199ade99eb4250f6bb19e9abbf2d3de7b969c0eb5e4f91a26001815580f35b61ffff1916610100179055612db283613c73565b600801546001600160a01b0316803b156114be57818091600460405180948193632009dc6560e01b83525af180156108ea57612df0575b8080612d70565b81612dfa91613744565b6114be578138612de9565b60405162461bcd60e51b8152602060048201526011602482015270105b1c9958591e4818d85b98d95b1b1959607a1b6044820152606490fd5b503461022a57602036600319011261022a576004358152600360205260409020805460018201546001600160a01b031691612e7b60028201613765565b612e8760038301613765565b91612e9460048201613765565b60058201546006830154600784015460088501546001600160a01b031691612ebe60098701613765565b94600a87015460ff1698600b88015497600c0154986040519c8d9c8d5260208d015260408c0161022090526102208c01612ef791613809565b8b810360608d0152612f0891613809565b8a810360808c0152612f1991613809565b60a08a019490945260c089015260ff818116151560e08a0152600882901c811615156101008a0152601082901c16151561012089015260181c6001600160a01b0316610140880152610160870152858103610180870152612f7991613809565b9215156101a08501526101c084015260ff811615156101e084015260081c60ff1615156102008301520390f35b503461022a57602036600319011261022a576004358082526003602052612fdd60018060a01b036001604085200154163314613aac565b612fe5613c51565b8082526003602052604082206007810160ff815460101c166133965760ff600c83015460081c1661335e576008820180549092906001600160a01b031661332057600601546040516323b872dd60e01b8152336004820152306024820152604481018290526001600160a01b037f000000000000000000000000000000000000000000000000000000000000000016906020816064818a865af19081156109dd5787916132e2575b50156132a6576040516114fe808201908282106001600160401b0383111761329257916130d08582938b979695613d5c8539338152602081019190915260400190565b039084f090811561227b5785546001600160a01b0319166001600160a01b039290921691821790955560405163095ea7b360e01b815260048101829052602481019290925293909160209183916044918391905af19081156111fe578591613258575b501561321c57813b156128d3576040516316017e4760e31b81528490818160048183885af180156108ea57613207575b5050805462ff00ff191662010001179055600954828452600a60205260408420819055600160401b8110156131f3577f10cef5ec72e57e7983d937eb064757a668131fb3c724a8a7b1ee3fbd334fa3d6916131e5846131cc84600160209601600955600961387b565b90919082549060031b91821b91600019901b1916179055565b604051908152a26001815580f35b634e487b7160e01b84526041600452602484fd5b8161321191613744565b6128d3578338613163565b60405162461bcd60e51b81526020600482015260146024820152731554d110c8185c1c1c9bdd985b0819985a5b195960621b6044820152606490fd5b90506020813d60201161328a575b8161327360209383613744565b810103126108f557613284906139e8565b38613133565b3d9150613266565b634e487b7160e01b89526041600452602489fd5b60405162461bcd60e51b81526020600482015260146024820152731554d110c81d1c985b9cd9995c8819985a5b195960621b6044820152606490fd5b90506020813d602011613318575b816132fd60209383613744565b810103126133145761330e906139e8565b3861308d565b8680fd5b3d91506132f0565b60405162461bcd60e51b8152602060048201526016602482015275115cd8dc9bddc8185b1c9958591e4818dc99585d195960521b6044820152606490fd5b60405162461bcd60e51b815260206004820152601060248201526f129bd8881a5cc818d85b98d95b1b195960821b6044820152606490fd5b60405162461bcd60e51b815260206004820152600e60248201526d105b1c9958591e48199d5b99195960921b6044820152606490fd5b503461022a57602036600319011261022a5760406020916004358152600a83522054604051908152f35b503461022a57806134063661369d565b8183929352600360205261342d60018060a01b03600760408520015460181c163314613905565b828252600360205261344b60ff600760408520015460081c16613948565b828252600360205261346760ff600c6040852001541615613988565b604051633b2fc05b60e21b8152600481018490527f00000000000000000000000000000000000000000000000000000000000000006001600160a01b0316919060a081602481865afa90811561149e576134cd9160609186916111cf5750015115613a70565b838352600360205260408320600101546001600160a01b031691803b156128d357604051634c82f8cd60e11b815260048101959095526001600160a01b0392909216602485015233604485015260ff16606484015281908390608490829084905af1801561354a5761353c5780f35b61354591613744565b388180f35b50604051903d90823e3d90fd5b503461022a57602036600319011261022a576001600160a01b03613579613637565b168152600660205260408120604051918260208354918281520192825260208220915b8181106135b3576106258561061981870382613744565b825484526020909301926001928301920161359c565b823461022a57602036600319011261022a576001600160a01b036135eb613637565b1681526007602052604081209081548084526020840192825260208220915b818110613621576106258561061981870382613744565b825484526020909301926001928301920161360a565b600435906001600160a01b0382168203610a6557565b602435906001600160a01b0382168203610a6557565b602060408183019282815284518094520192019060005b8181106136875750505090565b825184526020938401939092019160010161367a565b6040906003190112610a65576004359060243560ff81168103610a655790565b90600182811c921680156136ed575b60208310146136d757565b634e487b7160e01b600052602260045260246000fd5b91607f16916136cc565b608081019081106001600160401b0382111761371257604052565b634e487b7160e01b600052604160045260246000fd5b61022081019081106001600160401b0382111761371257604052565b90601f801991011681019081106001600160401b0382111761371257604052565b9060405191826000825492613779846136bd565b80845293600181169081156137e757506001146137a0575b5061379e92500383613744565b565b90506000929192526020600020906000915b8183106137cb57505090602061379e9282010138613791565b60209193508060019154838589010152019101909184926137b2565b90506020925061379e94915060ff191682840152151560051b82010138613791565b919082519283825260005b848110613835575050826000602080949584010152601f8019910116010190565b80602080928401015182828601015201613814565b60095481101561386557600960005260206000200190600090565b634e487b7160e01b600052603260045260246000fd5b80548210156138655760005260206000200190600090565b81601f82011215610a65578035906001600160401b03821161371257604051926138c7601f8401601f191660200185613744565b82845260208383010111610a6557816000926020809301838601378301015290565b80548210156138655760005260206000209060021b0190600090565b1561390c57565b60405162461bcd60e51b815260206004820152601460248201527327b7363c9039b2b632b1ba32b2103bb7b935b2b960611b6044820152606490fd5b1561394f57565b60405162461bcd60e51b8152602060048201526011602482015270129bd8881b9bdd0818dbdb5c1b195d1959607a1b6044820152606490fd5b1561398f57565b60405162461bcd60e51b815260206004820152601b60248201527f43616e6e6f742072617465206f6e206469737075746564206a6f6200000000006044820152606490fd5b51906001600160a01b0382168203610a6557565b51908115158203610a6557565b908160a0910312610a65576040519060a082018281106001600160401b0382111761371257613a6891608091604052613a2d816139d4565b8452613a3b602082016139d4565b6020850152613a4c604082016139e8565b6040850152613a5d606082016139e8565b6060850152016139e8565b608082015290565b15613a7757565b60405162461bcd60e51b815260206004820152600d60248201526c105b1c9958591e481c985d1959609a1b6044820152606490fd5b15613ab357565b60405162461bcd60e51b815260206004820152600b60248201526a13db9b1e4818db1a595b9d60aa1b6044820152606490fd5b90815491600160401b83101561371257826131cc91600161379e9501815561387b565b15613b1057565b60405162461bcd60e51b815260206004820152601760248201527f576f726b657220616c72656164792073656c65637465640000000000000000006044820152606490fd5b15613b5c57565b60405162461bcd60e51b815260206004820152600f60248201526e129bd8881a5cc8191a5cdc1d5d1959608a1b6044820152606490fd5b15613b9a57565b60405162461bcd60e51b815260206004820152600e60248201526d4a6f62206e6f742061637469766560901b6044820152606490fd5b15613bd757565b60405162461bcd60e51b8152602060048201526012602482015271139bc81ddbdc9ad95c881cd95b1958dd195960721b6044820152606490fd5b15613c1857565b60405162461bcd60e51b8152602060048201526011602482015270105b1c9958591e4818dbdb5c1b195d1959607a1b6044820152606490fd5b600260005414613c62576002600055565b633ee5aeb560e01b60005260046000fd5b80600052600a6020526040600020546009546000198101908111613d1c57808203613cea575b50506009548015613cd45760001901613cb18161384a565b8154906000199060031b1b19169055600955600052600a60205260006040812055565b634e487b7160e01b600052603160045260246000fd5b613cf39061384a565b90549060031b1c613d07816131cc8461384a565b600052600a6020526040600020553880613c99565b634e487b7160e01b600052601160045260246000fd5b6001546001600160a01b03163303613d4657565b63118cdaa760e01b6000523360045260246000fdfe610100346101b657601f6114fe38819003918201601f19168301916001600160401b038311848410176101bb5780849260409485528339810103126101b65780516001600160a01b038116918282036101b657602001519160016000551561017157811561012c5760a0523360c05260e05273a0b86991c6218b36c1d19d4a2e9eb0ce3606eb4860805260405161132c90816101d282396080518181816102240152818161056201528181610a5301528181610b2601528181610c430152610ddf015260a051818181610a1001528181610c0401528181610cfa0152610f68015260c05181818161012a015281816103cc01528181610501015281816107de015281816108470152818161097d01528181610b6c0152610f24015260e05181818161037d01526105a70152f35b60405162461bcd60e51b815260206004820152601760248201527f427564676574206d75737420626520706f7369746976650000000000000000006044820152606490fd5b60405162461bcd60e51b815260206004820152601660248201527f496e76616c696420636c69656e742061646472657373000000000000000000006044820152606490fd5b600080fd5b634e487b7160e01b600052604160045260246000fdfe608080604052600436101561001357600080fd5b60003560e01c9081630335729e14610f9757508063109e94cf14610f525780631600ceac14610ce65780632009dc6514610b555780633e413bee14610b1057806343eed51c1461096357806345d30a17146109455780634d547ada1461091c5780636ab28bc8146108fe5780636daa2d44146108305780637c6543031461080d578063abc8c7af146107c8578063b00bf238146104ee578063bb09d9b7146104bf578063c26f6d44146103a0578063c78da39a14610365578063f5bd346a146101105763fa391c64146100e557600080fd5b3461010b57600036600319011261010b57602060ff60045460101c166040519015158152f35b600080fd5b3461010b57602036600319011261010b57600435610158337f00000000000000000000000000000000000000000000000000000000000000006001600160a01b031614611179565b61017860ff60045461016e828260081c166111f9565b60101c1615610ffd565b6101806112d4565b61021e60208260045461019560ff8216611049565b6101a082151561123a565b600254906101b083831015611286565b6001546001600160a01b0316916101d39084906101ce851515611082565b6112c7565b806002556101e3846003546110c3565b60035515610351575b5060405163a9059cbb60e01b81526001600160a01b039091166004820152602481019190915291829081906044820190565b038160007f00000000000000000000000000000000000000000000000000000000000000006001600160a01b03165af190811561034557600091610316575b50156102db576001546040519182526001600160a01b0316907f2d3c7fffdd3b36026d3b4cfc202d8d1d942dbdc6350c8f56693809510a3fb5ae90602090a260ff60045460101c166102b1575b6001600055005b7f8726cb855b6e2f06382a782d2b5c208d25a81aa30625c042c9671aa5d0d4db37600080a16102aa565b60405162461bcd60e51b81526020600482015260136024820152721554d110c81c185e5b595b9d0819985a5b1959606a1b6044820152606490fd5b610338915060203d60201161033e575b61033081836110e6565b81019061111e565b8261025d565b503d610326565b6040513d6000823e3d90fd5b62ff000019166201000017600455856101ec565b3461010b57600036600319011261010b5760206040517f00000000000000000000000000000000000000000000000000000000000000008152f35b3461010b57602036600319011261010b576004356001600160a01b0381169081900361010b576103fa337f00000000000000000000000000000000000000000000000000000000000000006001600160a01b031614611179565b6001546001600160a01b038116610485578115610447576001600160a01b03191681176001557f54841e992da2f7bcaa3127409f02e1849c79072740593c398d6670f65f995fa7600080a2005b60405162461bcd60e51b8152602060048201526016602482015275496e76616c696420776f726b6572206164647265737360501b6044820152606490fd5b60405162461bcd60e51b815260206004820152601260248201527115dbdc9ad95c88185b1c9958591e481cd95d60721b6044820152606490fd5b3461010b57600036600319011261010b57602060405173a0b86991c6218b36c1d19d4a2e9eb0ce3606eb488152f35b3461010b57600036600319011261010b577f00000000000000000000000000000000000000000000000000000000000000006001600160a01b0316610534338214611179565b61053c6112d4565b60ff6004541661079257600254610759576040516370a0823160e01b81523060048201527f00000000000000000000000000000000000000000000000000000000000000006001600160a01b03169190602081602481865afa90811561034557600091610727575b507f000000000000000000000000000000000000000000000000000000000000000092604051926323b872dd60e01b845260048401523060248401528360448401526020836064816000855af19081156103455761060f60209260249560009161070a575b50611136565b6040516370a0823160e01b815230600482015293849182905afa80156103455783926000916106d1575b5090610644916112c7565b0361068c576020817fc4c14883ae9fd8e26d5d59e3485ed29fd126d781d7e498a4ca5c54c8268e493692600255600160ff196004541617600455604051908152a16001600055005b60405162461bcd60e51b815260206004820152601860248201527f496e636f72726563742066756e64696e6720616d6f756e7400000000000000006044820152606490fd5b919250506020813d602011610702575b816106ee602093836110e6565b8101031261010b5751829190610644610639565b3d91506106e1565b6107219150843d861161033e5761033081836110e6565b87610609565b90506020813d602011610751575b81610742602093836110e6565b8101031261010b5751836105a4565b3d9150610735565b60405162461bcd60e51b8152602060048201526011602482015270416c7265616479206861732066756e647360781b6044820152606490fd5b60405162461bcd60e51b815260206004820152600e60248201526d105b1c9958591e48199d5b99195960921b6044820152606490fd5b3461010b57600036600319011261010b576040517f00000000000000000000000000000000000000000000000000000000000000006001600160a01b03168152602090f35b3461010b57600036600319011261010b57602060ff600454166040519015158152f35b3461010b57600036600319011261010b57610875337f00000000000000000000000000000000000000000000000000000000000000006001600160a01b031614611179565b60045461088860ff8260101c1615610ffd565b60ff8160081c166108c65761ff001916610100176004557fa9f218df296bdff29869b6b40927376285db89e1726d55dc7a5583eab3f72c42600080a1005b60405162461bcd60e51b815260206004820152601060248201526f105b1c9958591e48191a5cdc1d5d195960821b6044820152606490fd5b3461010b57600036600319011261010b576020600254604051908152f35b3461010b57600036600319011261010b576001546040516001600160a01b039091168152602090f35b3461010b57600036600319011261010b576020600354604051908152f35b3461010b57602036600319011261010b576004356109ab337f00000000000000000000000000000000000000000000000000000000000000006001600160a01b031614611179565b6109c160ff60045461016e828260081c166111f9565b6109c96112d4565b6004546109d860ff8216611049565b6109e382151561123a565b6109f6826002546101ce82821015611286565b8060025515610afc575b5060405163a9059cbb60e01b81527f00000000000000000000000000000000000000000000000000000000000000006001600160a01b0381166004830152602482018390526020828060448101038160007f00000000000000000000000000000000000000000000000000000000000000006001600160a01b03165af190811561034557610aba6020927fa171b6942063c6f2800ce40a780edce37baa2b618571b11eedd1e69e626e7d7694600091610adf575b506111b8565b6040519384526001600160a01b031692a260ff60045460101c166102b1576001600055005b610af69150843d861161033e5761033081836110e6565b86610ab4565b62ff00001916620100001760045581610a00565b3461010b57600036600319011261010b576040517f00000000000000000000000000000000000000000000000000000000000000006001600160a01b03168152602090f35b3461010b57600036600319011261010b57610b9a337f00000000000000000000000000000000000000000000000000000000000000006001600160a01b031614611179565b610bbb60ff600454610bb1828260101c1615610ffd565b60081c1615610fba565b610bc36112d4565b600454610bd260ff8216611049565b60028054600090915562ff0000199091166201000017600490815560405163a9059cbb60e01b81526001600160a01b037f00000000000000000000000000000000000000000000000000000000000000009081169282019290925260248101839052906020828060448101038160007f00000000000000000000000000000000000000000000000000000000000000006001600160a01b03165af190811561034557610ca96020927fa171b6942063c6f2800ce40a780edce37baa2b618571b11eedd1e69e626e7d7694600091610adf57506111b8565b6040519384526001600160a01b031692a27f8726cb855b6e2f06382a782d2b5c208d25a81aa30625c042c9671aa5d0d4db37600080a16001600055005b3461010b57600036600319011261010b57337f00000000000000000000000000000000000000000000000000000000000000006001600160a01b0316148015610f20575b15610edb57610d4660ff60045461016e828260081c1615610fba565b610d4e6112d4565b600454610d5d60ff8216611049565b600254908115610ea457602082610dd9926201000060018060a01b036001541691610d89831515611082565b6000600255610d9a846003546110c3565b60035562ff0000191617600490815560405163a9059cbb60e01b81526001600160a01b0390921690820152602481019190915291829081906044820190565b038160007f00000000000000000000000000000000000000000000000000000000000000006001600160a01b03165af1801561034557610e2091600091610e855750611136565b6001546040519182526001600160a01b0316907fa1f31d6eb45c9b14e87669177b616a1606332d1b22274b92488de1f768f064af90602090a27f8726cb855b6e2f06382a782d2b5c208d25a81aa30625c042c9671aa5d0d4db37600080a16001600055005b610e9e915060203d60201161033e5761033081836110e6565b83610609565b60405162461bcd60e51b815260206004820152600f60248201526e139bc8199d5b991cc81b1bd8dad959608a1b6044820152606490fd5b60405162461bcd60e51b815260206004820152601a60248201527f4f6e6c7920636c69656e74206f72206d61726b6574706c6163650000000000006044820152606490fd5b50337f00000000000000000000000000000000000000000000000000000000000000006001600160a01b031614610d2a565b3461010b57600036600319011261010b576040517f00000000000000000000000000000000000000000000000000000000000000006001600160a01b03168152602090f35b3461010b57600036600319011261010b5760209060ff60045460081c1615158152f35b15610fc157565b60405162461bcd60e51b815260206004820152601460248201527310dbdb9d1c9858dd081a5cc8191a5cdc1d5d195960621b6044820152606490fd5b1561100457565b60405162461bcd60e51b815260206004820152601860248201527f457363726f7720616c726561647920636f6d706c6574656400000000000000006044820152606490fd5b1561105057565b60405162461bcd60e51b815260206004820152600a602482015269139bdd08199d5b99195960b21b6044820152606490fd5b1561108957565b60405162461bcd60e51b8152602060048201526012602482015271139bc81ddbdc9ad95c881cd95b1958dd195960721b6044820152606490fd5b919082018092116110d057565b634e487b7160e01b600052601160045260246000fd5b90601f8019910116810190811067ffffffffffffffff82111761110857604052565b634e487b7160e01b600052604160045260246000fd5b9081602091031261010b5751801515810361010b5790565b1561113d57565b60405162461bcd60e51b81526020600482015260146024820152731554d110c81d1c985b9cd9995c8819985a5b195960621b6044820152606490fd5b1561118057565b60405162461bcd60e51b815260206004820152601060248201526f4f6e6c79206d61726b6574706c61636560801b6044820152606490fd5b156111bf57565b60405162461bcd60e51b81526020600482015260126024820152711554d110c81c99599d5b990819985a5b195960721b6044820152606490fd5b1561120057565b60405162461bcd60e51b815260206004820152601260248201527113db9b1e481dda195b88191a5cdc1d5d195960721b6044820152606490fd5b1561124157565b60405162461bcd60e51b815260206004820152601760248201527f416d6f756e74206d75737420626520706f7369746976650000000000000000006044820152606490fd5b1561128d57565b60405162461bcd60e51b8152602060048201526012602482015271496e73756666696369656e742066756e647360701b6044820152606490fd5b919082039182116110d057565b6002600054146112e5576002600055565b633ee5aeb560e01b60005260046000fdfea2646970667358221220d052ae8b690a410ec8f8dfc8ab5b4ded7849c80d74cc408f337e983d15eb8bee64736f6c634300081c0033a2646970667358221220ffebda5169912c3860146bc4e3e61ad41b1494a2fa9c50e5c6eee61dbaa71f1f64736f6c634300081c0033",
  "linkReferences": {},
  "deployedLinkReferences": {}
}