{
  "_format": "hh3-artifact-1",
  "contractName": "JobMarketplace",
  "sourceName": "contracts/JobMarketplace.sol",
  "abi": [
    {
      "inputs": [
        {
          "internalType": "address",
          "name": "_arbitration",
          "type": "address"
        }
      ],
      "stateMutability": "nonpayable",
      "type": "constructor"
    },
    {
      "inputs": [
        {
          "internalType": "address",
          "name": "owner",
          "type": "address"
        }
      ],
      "name": "OwnableInvalidOwner",
      "type": "error"
    },
    {
      "inputs": [
        {
          "internalType": "address",
          "name": "account",
          "type": "address"
        }
      ],
      "name": "OwnableUnauthorizedAccount",
      "type": "error"
    },
    {
      "inputs": [],
      "name": "ReentrancyGuardReentrantCall",
      "type": "error"
    },
    {
      "anonymous": false,
      "inputs": [
        {
          "indexed": true,
          "internalType": "uint256",
          "name": "jobId",
          "type": "uint256"
        },
        {
          "indexed": true,
          "internalType": "address",
          "name": "worker",
          "type": "address"
        }
      ],
      "name": "ApplicationSubmitted",
      "type": "event"
    },
    {
      "anonymous": false,
      "inputs": [
        {
          "indexed": true,
          "internalType": "uint256",
          "name": "jobId",
          "type": "uint256"
        },
        {
          "indexed": false,
          "internalType": "uint256",
          "name": "disputeId",
          "type": "uint256"
        }
      ],
      "name": "DisputeRaised",
      "type": "event"
    },
    {
      "anonymous": false,
      "inputs": [
        {
          "indexed": true,
          "internalType": "uint256",
          "name": "jobId",
          "type": "uint256"
        },
        {
          "indexed": false,
          "internalType": "bool",
          "name": "clientWon",
          "type": "bool"
        }
      ],
      "name": "DisputeResolved",
      "type": "event"
    },
    {
      "anonymous": false,
      "inputs": [
        {
          "indexed": true,
          "internalType": "uint256",
          "name": "jobId",
          "type": "uint256"
        },
        {
          "indexed": false,
          "internalType": "address",
          "name": "escrowContract",
          "type": "address"
        }
      ],
      "name": "EscrowCreated",
      "type": "event"
    },
    {
      "anonymous": false,
      "inputs": [
        {
          "indexed": true,
          "internalType": "uint256",
          "name": "jobId",
          "type": "uint256"
        },
        {
          "indexed": true,
          "internalType": "address",
          "name": "client",
          "type": "address"
        },
        {
          "indexed": false,
          "internalType": "string",
          "name": "title",
          "type": "string"
        },
        {
          "indexed": false,
          "internalType": "string",
          "name": "category",
          "type": "string"
        },
        {
          "indexed": false,
          "internalType": "uint256",
          "name": "budget",
          "type": "uint256"
        }
      ],
      "name": "JobPosted",
      "type": "event"
    },
    {
      "anonymous": false,
      "inputs": [
        {
          "indexed": true,
          "internalType": "address",
          "name": "previousOwner",
          "type": "address"
        },
        {
          "indexed": true,
          "internalType": "address",
          "name": "newOwner",
          "type": "address"
        }
      ],
      "name": "OwnershipTransferred",
      "type": "event"
    },
    {
      "anonymous": false,
      "inputs": [
        {
          "indexed": true,
          "internalType": "uint256",
          "name": "jobId",
          "type": "uint256"
        },
        {
          "indexed": true,
          "internalType": "address",
          "name": "worker",
          "type": "address"
        },
        {
          "indexed": false,
          "internalType": "uint256",
          "name": "amount",
          "type": "uint256"
        }
      ],
      "name": "PaymentReleased",
      "type": "event"
    },
    {
      "anonymous": false,
      "inputs": [
        {
          "indexed": true,
          "internalType": "uint256",
          "name": "jobId",
          "type": "uint256"
        },
        {
          "indexed": false,
          "internalType": "string",
          "name": "workHash",
          "type": "string"
        }
      ],
      "name": "WorkSubmitted",
      "type": "event"
    },
    {
      "anonymous": false,
      "inputs": [
        {
          "indexed": true,
          "internalType": "uint256",
          "name": "jobId",
          "type": "uint256"
        },
        {
          "indexed": true,
          "internalType": "address",
          "name": "worker",
          "type": "address"
        }
      ],
      "name": "WorkerSelected",
      "type": "event"
    },
    {
      "inputs": [
        {
          "internalType": "uint256",
          "name": "_jobId",
          "type": "uint256"
        }
      ],
      "name": "acceptWorkAndPay",
      "outputs": [],
      "stateMutability": "nonpayable",
      "type": "function"
    },
    {
      "inputs": [
        {
          "internalType": "uint256",
          "name": "_jobId",
          "type": "uint256"
        },
        {
          "internalType": "string",
          "name": "_description",
          "type": "string"
        },
        {
          "internalType": "uint256",
          "name": "_amount",
          "type": "uint256"
        }
      ],
      "name": "addMilestone",
      "outputs": [],
      "stateMutability": "nonpayable",
      "type": "function"
    },
    {
      "inputs": [
        {
          "internalType": "uint256",
          "name": "_jobId",
          "type": "uint256"
        },
        {
          "internalType": "string",
          "name": "_coverLetterHash",
          "type": "string"
        },
        {
          "internalType": "string",
          "name": "_workHistoryHash",
          "type": "string"
        }
      ],
      "name": "applyToJob",
      "outputs": [],
      "stateMutability": "nonpayable",
      "type": "function"
    },
    {
      "inputs": [],
      "name": "arbitration",
      "outputs": [
        {
          "internalType": "contract Arbitration",
          "name": "",
          "type": "address"
        }
      ],
      "stateMutability": "view",
      "type": "function"
    },
    {
      "inputs": [
        {
          "internalType": "address",
          "name": "",
          "type": "address"
        },
        {
          "internalType": "uint256",
          "name": "",
          "type": "uint256"
        }
      ],
      "name": "clientJobs",
      "outputs": [
        {
          "internalType": "uint256",
          "name": "",
          "type": "uint256"
        }
      ],
      "stateMutability": "view",
      "type": "function"
    },
    {
      "inputs": [
        {
          "internalType": "uint256",
          "name": "_jobId",
          "type": "uint256"
        }
      ],
      "name": "createAndFundEscrow",
      "outputs": [],
      "stateMutability": "payable",
      "type": "function"
    },
    {
      "inputs": [],
      "name": "getActiveJobs",
      "outputs": [
        {
          "internalType": "uint256[]",
          "name": "",
          "type": "uint256[]"
        }
      ],
      "stateMutability": "view",
      "type": "function"
    },
    {
      "inputs": [
        {
          "internalType": "uint256",
          "name": "_jobId",
          "type": "uint256"
        }
      ],
      "name": "getApplications",
      "outputs": [
        {
          "components": [
            {
              "internalType": "address",
              "name": "worker",
              "type": "address"
            },
            {
              "internalType": "string",
              "name": "coverLetterHash",
              "type": "string"
            },
            {
              "internalType": "string",
              "name": "workHistoryHash",
              "type": "string"
            },
            {
              "internalType": "uint256",
              "name": "timestamp",
              "type": "uint256"
            }
          ],
          "internalType": "struct JobMarketplace.Application[]",
          "name": "",
          "type": "tuple[]"
        }
      ],
      "stateMutability": "view",
      "type": "function"
    },
    {
      "inputs": [
        {
          "internalType": "address",
          "name": "_client",
          "type": "address"
        }
      ],
      "name": "getClientJobs",
      "outputs": [
        {
          "internalType": "uint256[]",
          "name": "",
          "type": "uint256[]"
        }
      ],
      "stateMutability": "view",
      "type": "function"
    },
    {
      "inputs": [
        {
          "internalType": "uint256",
          "name": "_jobId",
          "type": "uint256"
        }
      ],
      "name": "getJob",
      "outputs": [
        {
          "components": [
            {
              "internalType": "uint256",
              "name": "jobId",
              "type": "uint256"
            },
            {
              "internalType": "address",
              "name": "client",
              "type": "address"
            },
            {
              "internalType": "string",
              "name": "title",
              "type": "string"
            },
            {
              "internalType": "string",
              "name": "description",
              "type": "string"
            },
            {
              "internalType": "string",
              "name": "skills",
              "type": "string"
            },
            {
              "internalType": "string",
              "name": "category",
              "type": "string"
            },
            {
              "internalType": "uint256",
              "name": "budget",
              "type": "uint256"
            },
            {
              "internalType": "bool",
              "name": "isActive",
              "type": "bool"
            },
            {
              "internalType": "bool",
              "name": "isCompleted",
              "type": "bool"
            },
            {
              "internalType": "address",
              "name": "selectedWorker",
              "type": "address"
            },
            {
              "internalType": "address",
              "name": "escrowContract",
              "type": "address"
            },
            {
              "internalType": "string",
              "name": "workSubmissionHash",
              "type": "string"
            },
            {
              "internalType": "bool",
              "name": "workSubmitted",
              "type": "bool"
            },
            {
              "internalType": "uint256",
              "name": "disputeId",
              "type": "uint256"
            },
            {
              "internalType": "bool",
              "name": "isDisputed",
              "type": "bool"
            }
          ],
          "internalType": "struct JobMarketplace.Job",
          "name": "",
          "type": "tuple"
        }
      ],
      "stateMutability": "view",
      "type": "function"
    },
    {
      "inputs": [
        {
          "internalType": "string",
          "name": "_category",
          "type": "string"
        }
      ],
      "name": "getJobsByCategory",
      "outputs": [
        {
          "internalType": "uint256[]",
          "name": "",
          "type": "uint256[]"
        }
      ],
      "stateMutability": "view",
      "type": "function"
    },
    {
      "inputs": [
        {
          "internalType": "address",
          "name": "_worker",
          "type": "address"
        }
      ],
      "name": "getWorkerApplications",
      "outputs": [
        {
          "internalType": "uint256[]",
          "name": "",
          "type": "uint256[]"
        }
      ],
      "stateMutability": "view",
      "type": "function"
    },
    {
      "inputs": [
        {
          "internalType": "uint256",
          "name": "",
          "type": "uint256"
        },
        {
          "internalType": "uint256",
          "name": "",
          "type": "uint256"
        }
      ],
      "name": "jobApplications",
      "outputs": [
        {
          "internalType": "address",
          "name": "worker",
          "type": "address"
        },
        {
          "internalType": "string",
          "name": "coverLetterHash",
          "type": "string"
        },
        {
          "internalType": "string",
          "name": "workHistoryHash",
          "type": "string"
        },
        {
          "internalType": "uint256",
          "name": "timestamp",
          "type": "uint256"
        }
      ],
      "stateMutability": "view",
      "type": "function"
    },
    {
      "inputs": [],
      "name": "jobCounter",
      "outputs": [
        {
          "internalType": "uint256",
          "name": "",
          "type": "uint256"
        }
      ],
      "stateMutability": "view",
      "type": "function"
    },
    {
      "inputs": [
        {
          "internalType": "uint256",
          "name": "",
          "type": "uint256"
        }
      ],
      "name": "jobs",
      "outputs": [
        {
          "internalType": "uint256",
          "name": "jobId",
          "type": "uint256"
        },
        {
          "internalType": "address",
          "name": "client",
          "type": "address"
        },
        {
          "internalType": "string",
          "name": "title",
          "type": "string"
        },
        {
          "internalType": "string",
          "name": "description",
          "type": "string"
        },
        {
          "internalType": "string",
          "name": "skills",
          "type": "string"
        },
        {
          "internalType": "string",
          "name": "category",
          "type": "string"
        },
        {
          "internalType": "uint256",
          "name": "budget",
          "type": "uint256"
        },
        {
          "internalType": "bool",
          "name": "isActive",
          "type": "bool"
        },
        {
          "internalType": "bool",
          "name": "isCompleted",
          "type": "bool"
        },
        {
          "internalType": "address",
          "name": "selectedWorker",
          "type": "address"
        },
        {
          "internalType": "address",
          "name": "escrowContract",
          "type": "address"
        },
        {
          "internalType": "string",
          "name": "workSubmissionHash",
          "type": "string"
        },
        {
          "internalType": "bool",
          "name": "workSubmitted",
          "type": "bool"
        },
        {
          "internalType": "uint256",
          "name": "disputeId",
          "type": "uint256"
        },
        {
          "internalType": "bool",
          "name": "isDisputed",
          "type": "bool"
        }
      ],
      "stateMutability": "view",
      "type": "function"
    },
    {
      "inputs": [],
      "name": "owner",
      "outputs": [
        {
          "internalType": "address",
          "name": "",
          "type": "address"
        }
      ],
      "stateMutability": "view",
      "type": "function"
    },
    {
      "inputs": [
        {
          "internalType": "string",
          "name": "_title",
          "type": "string"
        },
        {
          "internalType": "string",
          "name": "_description",
          "type": "string"
        },
        {
          "internalType": "string",
          "name": "_skills",
          "type": "string"
        },
        {
          "internalType": "string",
          "name": "_category",
          "type": "string"
        },
        {
          "internalType": "uint256",
          "name": "_budget",
          "type": "uint256"
        }
      ],
      "name": "postJob",
      "outputs": [
        {
          "internalType": "uint256",
          "name": "",
          "type": "uint256"
        }
      ],
      "stateMutability": "nonpayable",
      "type": "function"
    },
    {
      "inputs": [
        {
          "internalType": "uint256",
          "name": "_jobId",
          "type": "uint256"
        }
      ],
      "name": "raiseDispute",
      "outputs": [],
      "stateMutability": "payable",
      "type": "function"
    },
    {
      "inputs": [
        {
          "internalType": "uint256",
          "name": "_jobId",
          "type": "uint256"
        },
        {
          "internalType": "uint256",
          "name": "_milestoneId",
          "type": "uint256"
        }
      ],
      "name": "releaseMilestonePayment",
      "outputs": [],
      "stateMutability": "nonpayable",
      "type": "function"
    },
    {
      "inputs": [],
      "name": "renounceOwnership",
      "outputs": [],
      "stateMutability": "nonpayable",
      "type": "function"
    },
    {
      "inputs": [
        {
          "internalType": "uint256",
          "name": "_jobId",
          "type": "uint256"
        }
      ],
      "name": "resolveDispute",
      "outputs": [],
      "stateMutability": "nonpayable",
      "type": "function"
    },
    {
      "inputs": [
        {
          "internalType": "uint256",
          "name": "_jobId",
          "type": "uint256"
        },
        {
          "internalType": "address",
          "name": "_worker",
          "type": "address"
        }
      ],
      "name": "selectWorker",
      "outputs": [],
      "stateMutability": "nonpayable",
      "type": "function"
    },
    {
      "inputs": [
        {
          "internalType": "uint256",
          "name": "_jobId",
          "type": "uint256"
        },
        {
          "internalType": "string",
          "name": "_workHash",
          "type": "string"
        }
      ],
      "name": "submitWork",
      "outputs": [],
      "stateMutability": "nonpayable",
      "type": "function"
    },
    {
      "inputs": [
        {
          "internalType": "address",
          "name": "newOwner",
          "type": "address"
        }
      ],
      "name": "transferOwnership",
      "outputs": [],
      "stateMutability": "nonpayable",
      "type": "function"
    },
    {
      "inputs": [
        {
          "internalType": "address",
          "name": "",
          "type": "address"
        },
        {
          "internalType": "uint256",
          "name": "",
          "type": "uint256"
        }
      ],
      "name": "workerApplications",
      "outputs": [
        {
          "internalType": "uint256",
          "name": "",
          "type": "uint256"
        }
      ],
      "stateMutability": "view",
      "type": "function"
    }
  ],
  "bytecode": "0x60a0346100dc57601f61429a38819003918201601f19168301916001600160401b038311848410176100e0578084926020946040528339810103126100dc57516001600160a01b038116908190036100dc5760015f5533156100c95760018054336001600160a01b0319821681179092556040519291906001600160a01b03167f8be0079c531659141344cd1fd0a4f28419497f9722a3daafe3b4186f6b6457e05f80a36080526141a590816100f582396080518181816107ca01528181610ef801526111470152f35b631e4fbdf760e01b5f525f60045260245ffd5b5f80fd5b634e487b7160e01b5f52604160045260245ffdfe6080806040526004361015610012575f80fd5b5f905f3560e01c9081630861f5e71461295157508063180aedf3146127ef57806336d5c428146125b757806337597cb5146124a3578063382b865a146122e257806350355d76146122c4578063715018a61461226757806371cc8d2d14611ea4578063873dd88614611cf15780638c936e6514611c0f5780638cfbdc48146112dc5780638da5cb5b146112b35780638facd8591461126b57806398df912e146111765780639b732350146111315780639c5401f1146110da578063a5c1674e14610dde578063bc8c937d14610c98578063bf22c457146109fb578063c2b7b86814610758578063cc1326f61461059a578063cf2646c214610518578063da8accf914610250578063ead39a11146101bc5763f2fde38b14610131575f80fd5b346101b95760203660031901126101b95761014a6129be565b610152612fd8565b6001600160a01b031680156101a557600180546001600160a01b0319811683179091556001600160a01b03167f8be0079c531659141344cd1fd0a4f28419497f9722a3daafe3b4186f6b6457e08380a380f35b631e4fbdf760e01b82526004829052602482fd5b80fd5b50346101b9576101cb36612bc2565b908252600460205260408220805482101561024c576101ea9250612c01565b5080546001600160a01b031661020260018301612a9d565b91610242600361021460028401612a9d565b920154916102346040519586958652608060208701526080860190612b3d565b908482036040860152612b3d565b9060608301520390f35b8280fd5b50346101b95760403660031901126101b9576004356024356001600160401b03811161024c57610284903690600401612b7c565b8183526003602052604083206007015460101c6001600160a01b031633036104dc57818352600360205260ff600a6040852001541661049e57805115610464578183526003602052600a6040842001600160ff1982541617905581835260036020526009604084200181516001600160401b038111610450576103078254612a0d565b601f811161040b575b506020601f82116001146103865791817f3822c71b106c7c1dabf7f076e68c9bd98c45d0cd0d073f4dcdaf422a0fe55847949261037594889161037b575b508160011b915f199060031b1c19161790555b604051918291602083526020830190612b3d565b0390a280f35b90508301515f61034e565b82865280862090601f198316875b8181106103f35750926103759492600192827f3822c71b106c7c1dabf7f076e68c9bd98c45d0cd0d073f4dcdaf422a0fe558479896106103db575b5050811b019055610361565b8501515f1960f88460031b161c191690555f806103cf565b9192602060018192868a015181550194019201610394565b82865260208620601f830160051c81019160208410610446575b601f0160051c01905b81811061043b5750610310565b86815560010161042e565b9091508190610425565b634e487b7160e01b85526041600452602485fd5b60405162461bcd60e51b815260206004820152601260248201527115dbdc9ac81a185cda081c995c5d5a5c995960721b6044820152606490fd5b60405162461bcd60e51b815260206004820152601660248201527515dbdc9ac8185b1c9958591e481cdd589b5a5d1d195960521b6044820152606490fd5b60405162461bcd60e51b815260206004820152601460248201527327b7363c9039b2b632b1ba32b2103bb7b935b2b960611b6044820152606490fd5b50346101b95760203660031901126101b9576001600160a01b0361053a6129be565b168152600560205260408120604051918260208354918281520192825260208220915b818110610584576105808561057481870382612a7c565b604051918291826129d4565b0390f35b825484526020909301926001928301920161055d565b50346101b95760203660031901126101b9576004356001600160401b038111610754576105cb903690600401612b7c565b600254908260015b838111156106b457506105e590612c8d565b92809160015b84811115610601576040518061058088826129d4565b808352600360205260ff60076040852001541680610691575b80610654575b610633575b61062e90612c54565b6105eb565b9261064c818561064661062e948a612cbf565b52612c54565b939050610625565b50808352600360205261067661067d6005604086200160405192838092612e4f565b0382612a7c565b602081519101208251602084012014610620565b508083526003602052604083206007015460101c6001600160a01b03161561061a565b808552600360205260ff60076040872001541680610731575b806106fb575b6106e6575b6106e190612c54565b6105d3565b906106f36106e191612c54565b9190506106d8565b50808552600360205261067661071d6005604088200160405192838092612e4f565b6020815191012083516020850120146106d3565b508085526003602052604085206007015460101c6001600160a01b0316156106cd565b5080fd5b50346101b95760203660031901126101b957600435610775612edd565b80825260036020526040822060ff600c82015416156109c75760078101908154906107a660ff8360081c1615612dd1565b600b810154604080516301437a6d60e61b81526004810192909252909390846024817f00000000000000000000000000000000000000000000000000000000000000006001600160a01b03165afa9384156109bc5786908795610970575b501561092b57610100869361ffff1916179055600660018060a01b0360088301541691845f146108b8570154813b1561024c5782916024839260405194859384926310fbb54760e21b845260048401525af180156108ad57610898575b505060207f5a87909bff68caaaaf0b3fd9c74eeccc928832f879315e5c6fb7a73612f26c0c915b6040519015158152a26001815580f35b816108a291612a7c565b61024c57825f610861565b6040513d84823e3d90fd5b0154813b1561024c578291602483926040519485938492637ade9a3560e11b845260048401525af180156108ad57610916575b505060207f5a87909bff68caaaaf0b3fd9c74eeccc928832f879315e5c6fb7a73612f26c0c91610888565b8161092091612a7c565b61024c57825f6108eb565b60405162461bcd60e51b815260206004820152601860248201527f44697370757465206e6f74207265736f6c7665642079657400000000000000006044820152606490fd5b9450506040843d6040116109b4575b8161098c60409383612a7c565b810103126109b0576109a960206109a286612ed0565b9501612ed0565b935f610804565b8580fd5b3d915061097f565b6040513d88823e3d90fd5b60405162461bcd60e51b815260206004820152600c60248201526b139bdd08191a5cdc1d5d195960a21b6044820152606490fd5b50346101b95760203660031901126101b95780604051610a1a81612a60565b81815281602082015260408101606090526060810160609052608081016060905260a08101606090528160c08201528160e082015281610100820152816101208201528161014082015261016081016060905281610180820152816101a08201526101c00152600435815260036020526040902060405190610a9b82612a60565b8054825260018101546001600160a01b0316602083019081529082610ac260028301612a9d565b6040820190815291610ad660038201612a9d565b60608301908152610ae960048301612a9d565b6080840190815290610afd60058401612a9d565b9160a0850192835260068401549260c0860193845260078501549060e0870160ff8316151581526101008801918360081c60ff1615158352610120890193600160a01b600190039060101c168452600160a01b60019003600889015416946101408a0195865260098901610b7090612a9d565b966101608b01978852600a8a015460ff169b6101808c019c15158d52600b8b01549a6101a08d019b8c52600c015460ff169b6101c0019b15158c526040519e8f9e8f9160208352516020830152600160a01b600190039051169060400152518d606081016101e0905261020001610be691612b3d565b90518d8203601f190160808f0152610bfe9190612b3d565b90518c8203601f190160a08e0152610c169190612b3d565b90518b8203601f190160c08d0152610c2e9190612b3d565b955160e08b01525115156101008a0152511515610120890152516001600160a01b0390811661014089015290511661016087015251858203601f1901610180870152610c7a9190612b3d565b925115156101a0850152516101c08401525115156101e08301520390f35b50346101b95760203660031901126101b95760043581526004602052604081208054610cc381612c76565b90610cd16040519283612a7c565b80825260208201809385526020852085915b838310610d8857868587604051928392602084019060208552518091526040840160408260051b8601019392905b828210610d2057505050500390f35b919360019193955060208091603f19898203018552875190848060a01b038251168152606080610d72610d60868601516080888701526080860190612b3d565b60408601518582036040870152612b3d565b9301519101529601920192018594939192610d11565b60046020600192604051610d9b81612a45565b848060a01b038654168152610db1858701612a9d565b83820152610dc160028701612a9d565b604082015260038601546060820152815201920192019190610ce3565b5060203660031901126101b957600435610df6612edd565b808252600360205260408220600181019060018060a01b03825416331480156110be575b156110795760ff600a820154161561103b57600c81019182549260ff841661100357600783019360ff855460081c16610fc65760ff19166001179055600882015485906001600160a01b0316803b1561075457818091600460405180948193631b6a8b5160e21b83525af180156108ad57610fad575b505054915460068201546040516320db319560e21b8152600481018690526001600160a01b03948516602482015260109290921c909316604482015260a060648201529160209083908190610eeb60a4830160058701612e4f565b60848301919091520381347f00000000000000000000000000000000000000000000000000000000000000006001600160a01b03165af1918215610fa2578492610f69575b50817f1954f0ea9e3f5fbdc693320e038db1549f419ae5351b74d36cee7c9ef13dd2b692600b6020930155604051908152a26001815580f35b91506020823d602011610f9a575b81610f8460209383612a7c565b81010312610f9657905190600b610f30565b8380fd5b3d9150610f77565b6040513d86823e3d90fd5b81610fb791612a7c565b610fc257845f610e90565b8480fd5b60405162461bcd60e51b8152602060048201526015602482015274129bd888185b1c9958591e4818dbdb5c1b195d1959605a1b6044820152606490fd5b60405162461bcd60e51b815260206004820152601060248201526f105b1c9958591e48191a5cdc1d5d195960821b6044820152606490fd5b60405162461bcd60e51b815260206004820152601660248201527515dbdc9ac81b9bdd081cdd589b5a5d1d1959081e595d60521b6044820152606490fd5b60405162461bcd60e51b815260206004820152601860248201527f4f6e6c7920706172746965732063616e206469737075746500000000000000006044820152606490fd5b5060078101543360109190911c6001600160a01b031614610e1a565b50346101b95760403660031901126101b9576110f46129be565b6001600160a01b03168152600660205260408120805460243592908310156101b95760206111228484612bd8565b90549060031b1c604051908152f35b50346101b957806003193601126101b9576040517f00000000000000000000000000000000000000000000000000000000000000006001600160a01b03168152602090f35b50346101b95760603660031901126101b957806004356024356001600160401b038111611267576111ab903690600401612b7c565b9080835260036020526111ce60018060a01b036001604086200154163314612c1a565b808352600360205260408320600801546111f2906001600160a01b03161515612d10565b8252600360205260408220600801546001600160a01b0316803b156112675761123d8392918392604051948580948193631096c58560e31b8352604060048401526044830190612b3d565b604435602483015203925af180156108ad576112565750f35b8161126091612a7c565b6101b95780f35b5050fd5b50346101b95760403660031901126101b9576112856129be565b6001600160a01b03168152600560205260408120805460243592908310156101b95760206111228484612bd8565b50346101b957806003193601126101b9576001546040516001600160a01b039091168152602090f35b50346101b95760a03660031901126101b9576004356001600160401b0381116107545761130d903690600401612b7c565b906024356001600160401b0381116107545761132d903690600401612b7c565b916044356001600160401b03811161024c5761134d903690600401612b7c565b926064356001600160401b038111610f965761136d903690600401612b7c565b9060843515611bca57825115611b9457815115611b5b5761138f600254612c54565b9485600255604051916113a183612a60565b868352336020840152846040840152606083015260808201528160a082015260843560c0820152600160e08201528361010082015283610120820152836101408201526020946040516113f48782612a7c565b85815261016083015261018082018590526101a082018590526101c0820185905284526003855260408085208251815560208301516001820180546001600160a01b0319166001600160a01b0392909216919091179055908201518051919291906001600160401b0382116119045781906114726002860154612a0d565b601f8111611b0d575b508890601f8311600114611aa5578892611a9a575b50508160011b915f199060031b1c19161760028301555b60608101518051906001600160401b0382116119045781906114cc6003860154612a0d565b601f8111611a4c575b508890601f83116001146119e45788926119d9575b50508160011b915f199060031b1c19161760038301555b60808101518051906001600160401b0382116119045781906115266004860154612a0d565b601f811161198b575b508890601f8311600114611923578892611918575b50508160011b915f199060031b1c19161760048301555b60a08101518051906001600160401b0382116119045781906115806005860154612a0d565b601f81116118b6575b508890601f831160011461184e578892611843575b50508160011b915f199060031b1c19161760058301555b60c08101516006830155611621600783016115e260e08401511515829060ff801983541691151516179055565b6101008301518154610120850151610100600160b01b031990911691151560081b61ff00169190911760109190911b62010000600160b01b0316179055565b6101408101516008830180546001600160a01b0319166001600160a01b0392909216919091179055610160810151805160098401916001600160401b03821161182f5761166e8354612a0d565b601f81116117ec575b508890601f8311600114611776576101c06040958a95856116fa9661170b9a96600c966117549f9261176b575b50508160011b915f199060031b1c19161790555b6116d86101808201511515600a86019060ff801983541691151516179055565b6101a0810151600b8501550151151591019060ff801983541691151516179055565b338152600587522060025490612d9d565b7f129a903ac78c809a19fd456d79f7f698e1c5b0f0b8c9c4a1a76fe3b3d123366a60025493849261174760405195606087526060870190612b3d565b9085820388870152612b3d565b9260843560408201528033940390a3604051908152f35b015190505f806116a4565b8389528989209190601f1984168a5b8c8282106117d6575050956117549a9560018661170b9a96600c966101c0966116fa9a60409d106117be575b505050811b0190556116b8565b01515f1960f88460031b161c191690555f80806117b1565b6001859682939686015181550195019301611785565b838952898920601f840160051c8101918b8510611825575b601f0160051c01905b81811061181a5750611677565b89815560010161180d565b9091508190611804565b634e487b7160e01b88526041600452602488fd5b015190505f8061159e565b6005860189528989209250601f198416895b8b8282106118a0575050908460019594939210611888575b505050811b0160058301556115b5565b01515f1960f88460031b161c191690555f8080611878565b6001859682939686015181550195019301611860565b909150600585018852888820601f840160051c81018a85106118fd575b90849392915b601f830160051c820181106118ef575050611589565b8a81558594506001016118d9565b50806118d3565b634e487b7160e01b87526041600452602487fd5b015190505f80611544565b6004860189528989209250601f198416895b8b82821061197557505090846001959493921061195d575b505050811b01600483015561155b565b01515f1960f88460031b161c191690555f808061194d565b6001859682939686015181550195019301611935565b909150600485018852888820601f840160051c81018a85106119d2575b90849392915b601f830160051c820181106119c457505061152f565b8a81558594506001016119ae565b50806119a8565b015190505f806114ea565b6003860189528989209250601f198416895b8b828210611a36575050908460019594939210611a1e575b505050811b016003830155611501565b01515f1960f88460031b161c191690555f8080611a0e565b60018596829396860151815501950193016119f6565b909150600385018852888820601f840160051c81018a8510611a93575b90849392915b601f830160051c82018110611a855750506114d5565b8a8155859450600101611a6f565b5080611a69565b015190505f80611490565b6002860189528989209250601f198416895b8b828210611af7575050908460019594939210611adf575b505050811b0160028301556114a7565b01515f1960f88460031b161c191690555f8080611acf565b6001859682939686015181550195019301611ab7565b909150600285018852888820601f840160051c81018a8510611b54575b90849392915b601f830160051c82018110611b4657505061147b565b8a8155859450600101611b30565b5080611b2a565b60405162461bcd60e51b815260206004820152601160248201527010d85d1959dbdc9e481c995c5d5a5c9959607a1b6044820152606490fd5b60405162461bcd60e51b815260206004820152600e60248201526d151a5d1b19481c995c5d5a5c995960921b6044820152606490fd5b60405162461bcd60e51b815260206004820152601760248201527f427564676574206d75737420626520706f7369746976650000000000000000006044820152606490fd5b50346101b95780611c1f36612bc2565b908083526003602052611c4260018060a01b036001604086200154163314612c1a565b611c4a612edd565b80835260036020526040832060080154611c6e906001600160a01b03161515612d10565b8083526003602052611c8a60ff600c6040862001541615612e11565b8252600360205260408220600801546001600160a01b031690813b1561126757829160248392604051948593849263cd0c15bf60e01b845260048401525af180156108ad57611cdc575b506001905580f35b81611ce691612a7c565b6101b957805f611cd4565b50346101b95760203660031901126101b9576004358082526003602052611d2860018060a01b036001604085200154163314612c1a565b611d30612edd565b808252600360205260ff600a6040842001541615611e6a578082526003602052611d6760ff600760408520015460081c1615612dd1565b8082526003602052611d8360ff600c6040852001541615612e11565b8082526003602081815260408085206007908101805461ff00191661010017905584865283835281862001805460ff1916905583855291905282206008015482906001600160a01b0316803b156107545781809160046040518094819363058033ab60e21b83525af180156108ad57611e55575b50819052600360205260018060a01b03600760408420015460101c169080835260036020527f21d71db5be59bb9fa133895586b7404307dd33fb93b16db09dc6f1d9d7d231b060206006604086200154604051908152a36001815580f35b81611e5f91612a7c565b61075457815f611df7565b60405162461bcd60e51b815260206004820152601260248201527115dbdc9ac81b9bdd081cdd589b5a5d1d195960721b6044820152606490fd5b50346101b95760603660031901126101b9576004356024356001600160401b03811161024c57611ed8903690600401612b7c565b6044356001600160401b038111610f9657611ef7903690600401612b7c565b8284526003602052611f1260ff600760408720015416612cd3565b82845260036020526040842060070154611f389060101c6001600160a01b031615612d51565b81511561222a578284526004602052604084209060405192611f5984612a45565b33845260208401908152604084019182526060840192428452805490600160401b82101561182f5790611f9191600182018155612c01565b949094612216575184546001600160a01b0319166001600160a01b039190911617845551805160018501916001600160401b03821161182f578190611fd68454612a0d565b601f81116121c6575b50602090601f8311600114612164578992612159575b50508160011b915f199060031b1c19161790555b51805160028401916001600160401b038211611904576120298354612a0d565b601f8111612114575b50602090601f83116001146120af576003949392918891836120a4575b50508160011b915f1990861b1c19161790555b51910155338252600660205261207b8160408420612d9d565b33907f394b2f46e841d2b670718e98a15dfb76853abc5a8761449c74e9cba62d9015218380a380f35b015190505f8061204f565b8388528188209190601f198416895b8181106120fc5750916001939185600398979694106120e5575b505050811b019055612062565b01515f1983881b60f8161c191690555f80806120d8565b929360206001819287860151815501950193016120be565b83885260208820601f840160051c8101916020851061214f575b601f0160051c01905b8181106121445750612032565b888155600101612137565b909150819061212e565b015190505f80611ff5565b848a52818a209250601f1984168a5b8181106121ae5750908460019594939210612196575b505050811b019055612009565b01515f1960f88460031b161c191690555f8080612189565b92936020600181928786015181550195019301612173565b90915083895260208920601f840160051c8101916020851061220c575b90601f859493920160051c01905b8181106121fe5750611fdf565b8a81558493506001016121f1565b90915081906121e3565b634e487b7160e01b87526004879052602487fd5b60405162461bcd60e51b815260206004820152601560248201527410dbdd995c881b195d1d195c881c995c5d5a5c9959605a1b6044820152606490fd5b50346101b957806003193601126101b957612280612fd8565b600180546001600160a01b0319811690915581906001600160a01b03167f8be0079c531659141344cd1fd0a4f28419497f9722a3daafe3b4186f6b6457e08280a380f35b50346101b957806003193601126101b9576020600254604051908152f35b5034612461576040366003190112612461576024356001600160a01b038116906004359082810361246157815f52600360205261232f60018060a01b03600160405f200154163314612c1a565b815f52600360205261234a60ff600760405f20015416612cd3565b5f8281526003602052604090206008015461236f906001600160a01b03161515612d10565b5f828152600360205260409020600701546123969060101c6001600160a01b031615612d51565b6123a08183612efb565b15612465575f82815260036020526040902060078101805462010000600160b01b03191660109390931b62010000600160b01b031692909217909155600801546001600160a01b0316803b15612461575f809160246040518094819363309bdb5160e21b83528860048401525af1801561245657612441575b507f3f21f8feb66724c3afed3428a04fab631ec22a91ea687abdc4798a58458cfa358380a380f35b61244e9193505f90612a7c565b5f915f612419565b6040513d5f823e3d90fd5b5f80fd5b60405162461bcd60e51b815260206004820152601660248201527515dbdc9ad95c881a185cc81b9bdd08185c1c1b1a595960521b6044820152606490fd5b34612461575f366003190112612461576002545f60015b8281111561255257506124cc90612c8d565b905f60015b828111156124e7576040518061058086826129d4565b805f52600360205260ff600760405f200154168061252e575b612513575b61250e90612c54565b6124d1565b90612526818361064661250e9488612cbf565b919050612505565b505f8181526003602052604090206007015460101c6001600160a01b031615612500565b805f52600360205260ff600760405f2001541680612593575b61257e575b61257990612c54565b6124ba565b9061258b61257991612c54565b919050612570565b505f8181526003602052604090206007015460101c6001600160a01b03161561256b565b602036600319011261246157600435805f5260036020526125e860018060a01b03600160405f200154163314612c1a565b6125f0612edd565b5f818152600360205260409020600801546001600160a01b03166127b157805f526003602052600660405f200154340361277857805f526003602052600660405f200154604051906111708083018381106001600160401b03821117612764576040928492613000843933825260208201520301905ff08015612456575f82815260036020908152604080832060080180546001600160a01b0319166001600160a01b03959095169485179055516316017e4760e31b918101918252600481528291906126be602482612a7c565b519034855af13d1561275f573d6126d481612b61565b906126e26040519283612a7c565b81525f60203d92013e5b156127225760207f10cef5ec72e57e7983d937eb064757a668131fb3c724a8a7b1ee3fbd334fa3d691604051908152a260015f55005b60405162461bcd60e51b8152602060048201526015602482015274115cd8dc9bddc8199d5b991a5b99c819985a5b1959605a1b6044820152606490fd5b6126ec565b634e487b7160e01b5f52604160045260245ffd5b60405162461bcd60e51b8152602060048201526011602482015270135d5cdd081b585d18da08189d5919d95d607a1b6044820152606490fd5b60405162461bcd60e51b8152602060048201526016602482015275115cd8dc9bddc8185b1c9958591e4818dc99585d195960521b6044820152606490fd5b34612461576020366003190112612461576004355f908152600360205260409020805460018201546001600160a01b03169161282d60028201612a9d565b61283960038301612a9d565b9161284660048201612a9d565b61285260058301612a9d565b60068301546007840154600885015491926001600160a01b039092169161287b60098701612a9d565b94600a87015460ff1698600b88015497600c015460ff16986040519c8d9c8d5260208d015260408c016101e090526101e08c016128b791612b3d565b8b810360608d01526128c891612b3d565b8a810360808c01526128d991612b3d565b89810360a08b01526128ea91612b3d565b60c089019390935260ff818116151560e08a0152600882901c16151561010089015260101c6001600160a01b031661012088015261014087015285810361016087015261293691612b3d565b9215156101808501526101a084015215156101c08301520390f35b34612461576020366003190112612461576001600160a01b036129726129be565b165f52600660205260405f20805480835260208301915f5260205f20905f5b8181106129a8576105808561057481870382612a7c565b8254845260209093019260019283019201612991565b600435906001600160a01b038216820361246157565b60206040818301928281528451809452019201905f5b8181106129f75750505090565b82518452602093840193909201916001016129ea565b90600182811c92168015612a3b575b6020831014612a2757565b634e487b7160e01b5f52602260045260245ffd5b91607f1691612a1c565b608081019081106001600160401b0382111761276457604052565b6101e081019081106001600160401b0382111761276457604052565b90601f801991011681019081106001600160401b0382111761276457604052565b9060405191825f825492612ab084612a0d565b8084529360018116908115612b1b5750600114612ad7575b50612ad592500383612a7c565b565b90505f9291925260205f20905f915b818310612aff575050906020612ad5928201015f612ac8565b6020919350806001915483858901015201910190918492612ae6565b905060209250612ad594915060ff191682840152151560051b8201015f612ac8565b805180835260209291819084018484015e5f828201840152601f01601f1916010190565b6001600160401b03811161276457601f01601f191660200190565b81601f8201121561246157803590612b9382612b61565b92612ba16040519485612a7c565b8284526020838301011161246157815f926020809301838601378301015290565b6040906003190112612461576004359060243590565b8054821015612bed575f5260205f2001905f90565b634e487b7160e01b5f52603260045260245ffd5b8054821015612bed575f5260205f209060021b01905f90565b15612c2157565b60405162461bcd60e51b815260206004820152600b60248201526a13db9b1e4818db1a595b9d60aa1b6044820152606490fd5b5f198114612c625760010190565b634e487b7160e01b5f52601160045260245ffd5b6001600160401b0381116127645760051b60200190565b90612c9782612c76565b612ca46040519182612a7c565b8281528092612cb5601f1991612c76565b0190602036910137565b8051821015612bed5760209160051b010190565b15612cda57565b60405162461bcd60e51b815260206004820152600e60248201526d4a6f62206e6f742061637469766560901b6044820152606490fd5b15612d1757565b60405162461bcd60e51b8152602060048201526012602482015271115cd8dc9bddc81b9bdd0818dc99585d195960721b6044820152606490fd5b15612d5857565b60405162461bcd60e51b815260206004820152601760248201527f576f726b657220616c72656164792073656c65637465640000000000000000006044820152606490fd5b8054600160401b81101561276457612dba91600182018155612bd8565b819291549060031b91821b915f19901b1916179055565b15612dd857565b60405162461bcd60e51b8152602060048201526011602482015270105b1c9958591e4818dbdb5c1b195d1959607a1b6044820152606490fd5b15612e1857565b60405162461bcd60e51b815260206004820152600f60248201526e129bd8881a5cc8191a5cdc1d5d1959608a1b6044820152606490fd5b5f9291815491612e5e83612a0d565b8083529260018116908115612eb35750600114612e7a57505050565b5f9081526020812093945091925b838310612e99575060209250010190565b600181602092949394548385870101520191019190612e88565b915050602093945060ff929192191683830152151560051b010190565b5190811515820361246157565b60025f5414612eec5760025f55565b633ee5aeb560e01b5f5260045ffd5b5f52600460205260405f20908154612f1281612c76565b92612f206040519485612a7c565b81845260208401905f5260205f205f915b838310612f8257505050505f5b8251811015612f7b576001600160a01b03612f598285612cbf565b5151166001600160a01b03831614612f7357600101612f3e565b505050600190565b5050505f90565b60046020600192604051612f9581612a45565b848060a01b038654168152612fab858701612a9d565b83820152612fbb60028701612a9d565b604082015260038601546060820152815201920192019190612f31565b6001546001600160a01b03163303612fec57565b63118cdaa760e01b5f523360045260245ffdfe60a0346100ae57601f61117038819003918201601f19168301916001600160401b038311848410176100b25780849260409485528339810103126100ae578051906001600160a01b03821682036100ae576020015160015f55608091909152600280546001600160a01b031916331790556003556040516110a990816100c7823960805181818161022701528181610457015281816105840152818161094701528181610a760152610b9b0152f35b5f80fd5b634e487b7160e01b5f52604160045260245ffdfe6080806040526004361015610012575f80fd5b5f3560e01c9081630335729e14610bca57508063109e94cf14610b865780631600ceac14610a635780632442e1cb146109e557806343eed51c146108f957806345d30a17146108dc5780634d547ada146108b45780636ab28bc8146108975780636daa2d441461083f57806384b62c28146105135780638f4cf247146104f6578063abc8c7af146104ce578063b00bf238146104ae578063b60d428814610449578063c26f6d44146103b3578063c78da39a14610396578063cd0c15bf14610210578063e89e4ed6146101b65763f5bd346a146100ed575f80fd5b346101b25760203660031901126101b2575f80808060043561011a60018060a01b03600254163314610f19565b610122611055565b60045461013182821015610f58565b6001546001600160a01b03169061015490839061014f841515610e1e565b610f99565b60045561016382600554610e5f565b6005555af1610170610e6c565b501561017c5760015f55005b60405162461bcd60e51b815260206004820152600e60248201526d14185e5b595b9d0819985a5b195960921b6044820152606490fd5b5f80fd5b346101b25760203660031901126101b2576004356007548110156101b2576101dd90610c87565b506101e781610cef565b9061020c6002600183015492015460405193849360ff808460081c1693169185610be9565b0390f35b346101b25760203660031901126101b257600435337f00000000000000000000000000000000000000000000000000000000000000006001600160a01b0316148015610382575b61026090610d8f565b61026f60ff6006541615610ddb565b610277611055565b6102846007548210610ed9565b61028d81610c87565b506002810190815460ff8160081c1661034e576103086020927f3af368126e502abc57fe61217a2e2ffc37e0753a9bc218ab9976a49a996e44499461010160016004549301946102e1865480951015610f58565b6001546102f8906001600160a01b03161515610e1e565b61ffff1916179055600454610f99565b6004556103188154600554610e5f565b6005556103405f80808060018060a01b03600154168654905af161033a610e6c565b50610e9b565b54604051908152a260015f55005b60405162461bcd60e51b815260206004820152600c60248201526b105b1c9958591e481c185a5960a21b6044820152606490fd5b506002546001600160a01b03163314610257565b346101b2575f3660031901126101b2576020600354604051908152f35b346101b25760203660031901126101b2576004356001600160a01b038116908190036101b2576103ee60018060a01b03600254163314610f19565b6001546001600160a01b03811661040f576001600160a01b03191617600155005b60405162461bcd60e51b815260206004820152601260248201527115dbdc9ad95c88185b1c9958591e481cd95d60721b6044820152606490fd5b5f3660031901126101b257337f00000000000000000000000000000000000000000000000000000000000000006001600160a01b031614801561049a575b61049090610d8f565b610498610fa6565b005b506002546001600160a01b03163314610487565b5f3660031901126101b25761049060018060a01b03600254163314610f19565b346101b2575f3660031901126101b2576002546040516001600160a01b039091168152602090f35b346101b2575f3660031901126101b2576020600754604051908152f35b346101b25760403660031901126101b25760043567ffffffffffffffff81116101b257366023820112156101b257806004013561054f81610c6b565b9161055d6040519384610c49565b81835236602483830101116101b257815f92602460209301838601378301015260243590337f00000000000000000000000000000000000000000000000000000000000000006001600160a01b031614801561082b575b6105bd90610d8f565b600754825f5b82811061080a5750600354106107d457604051916105e083610c2d565b8252602082019183835260408101925f845260608201925f8452680100000000000000008110156107ad5780600161061b9201600755610c87565b9290926107c1575180519067ffffffffffffffff82116107ad5761063f8454610cb7565b601f8111610768575b50602090601f8311600114610701576002949392915f91836106f6575b50508160011b915f199060031b1c19161782555b516001820155019151151560ff8019845416911617825551151561ff0082549160081b169061ff001916179055600754905f1982019182116106e25760207feb0a448faf1db18876f6c843c35c660823db4038188aedad797bd3ef46ada37191604051908152a2005b634e487b7160e01b5f52601160045260245ffd5b015190508880610665565b90601f19831691855f52815f20925f5b818110610750575091600193918560029897969410610738575b505050811b018255610679565b01515f1960f88460031b161c1916905588808061072b565b92936020600181928786015181550195019301610711565b845f5260205f20601f840160051c810191602085106107a3575b601f0160051c01905b8181106107985750610648565b5f815560010161078b565b9091508190610782565b634e487b7160e01b5f52604160045260245ffd5b634e487b7160e01b5f525f60045260245ffd5b60405162461bcd60e51b815260206004820152600e60248201526d115e18d959591cc8189d5919d95d60921b6044820152606490fd5b906108246001918261081b85610c87565b50015490610e5f565b91016105c3565b506002546001600160a01b031633146105b4565b346101b2575f3660031901126101b25761086460018060a01b03600254163314610f19565b600160ff1960065416176006557fa9f218df296bdff29869b6b40927376285db89e1726d55dc7a5583eab3f72c425f80a1005b346101b2575f3660031901126101b2576020600454604051908152f35b346101b2575f3660031901126101b2576001546040516001600160a01b039091168152602090f35b346101b2575f3660031901126101b2576020600554604051908152f35b346101b25760203660031901126101b25760043561092260018060a01b03600254163314610f19565b61092a611055565b61093d8160045461014f82821015610f58565b6004555f808080847f00000000000000000000000000000000000000000000000000000000000000006001600160a01b03165af1610979610e6c565b50156109b05760207fbe39882973eff28580f04c2c5cdc775cd9865cffc8840773d131ab12471c9a6291604051908152a160015f55005b60405162461bcd60e51b815260206004820152600d60248201526c1499599d5b990819985a5b1959609a1b6044820152606490fd5b346101b25760203660031901126101b257610a0e600435610a096007548210610ed9565b610c87565b50604051610a1b81610c2d565b61020c6060610a2984610cef565b92838152600260018601549586602084015201549060ff80831615159283604084015260081c161515928391015260405194859485610be9565b346101b2575f3660031901126101b257337f00000000000000000000000000000000000000000000000000000000000000006001600160a01b0316148015610b72575b610aaf90610d8f565b610abe60ff6006541615610ddb565b610ac6611055565b6004548015610b3b57602081610b2e5f8080807faa6d367d5992c5523770ae4393ecc654f576cc5e6ff6c59059255713934bfca39760018060a01b0360015416610b11811515610e1e565b82600455610b2182600554610e5f565b6005555af161033a610e6c565b604051908152a160015f55005b60405162461bcd60e51b815260206004820152600f60248201526e139bc8199d5b991cc81b1bd8dad959608a1b6044820152606490fd5b506002546001600160a01b03163314610aa6565b346101b2575f3660031901126101b2576040517f00000000000000000000000000000000000000000000000000000000000000006001600160a01b03168152602090f35b346101b2575f3660031901126101b25760209060ff6006541615158152f35b9260a060206060949796936080875280519182918260808a0152018388015e5f828288010152601f8019910116850101956020850152151560408401521515910152565b6080810190811067ffffffffffffffff8211176107ad57604052565b90601f8019910116810190811067ffffffffffffffff8211176107ad57604052565b67ffffffffffffffff81116107ad57601f01601f191660200190565b600754811015610ca35760075f52600360205f20910201905f90565b634e487b7160e01b5f52603260045260245ffd5b90600182811c92168015610ce5575b6020831014610cd157565b634e487b7160e01b5f52602260045260245ffd5b91607f1691610cc6565b9060405191825f825492610d0284610cb7565b8084529360018116908115610d6d5750600114610d29575b50610d2792500383610c49565b565b90505f9291925260205f20905f915b818310610d51575050906020610d27928201015f610d1a565b6020919350806001915483858901015201910190918492610d38565b905060209250610d2794915060ff191682840152151560051b8201015f610d1a565b15610d9657565b60405162461bcd60e51b815260206004820152601a60248201527f4f6e6c7920636c69656e74206f72206d61726b6574706c6163650000000000006044820152606490fd5b15610de257565b60405162461bcd60e51b815260206004820152601460248201527310dbdb9d1c9858dd081a5cc8191a5cdc1d5d195960621b6044820152606490fd5b15610e2557565b60405162461bcd60e51b8152602060048201526012602482015271139bc81ddbdc9ad95c881cd95b1958dd195960721b6044820152606490fd5b919082018092116106e257565b3d15610e96573d90610e7d82610c6b565b91610e8b6040519384610c49565b82523d5f602084013e565b606090565b15610ea257565b60405162461bcd60e51b815260206004820152600f60248201526e151c985b9cd9995c8819985a5b1959608a1b6044820152606490fd5b15610ee057565b60405162461bcd60e51b8152602060048201526011602482015270496e76616c6964206d696c6573746f6e6560781b6044820152606490fd5b15610f2057565b60405162461bcd60e51b815260206004820152601060248201526f4f6e6c79206d61726b6574706c61636560801b6044820152606490fd5b15610f5f57565b60405162461bcd60e51b8152602060048201526012602482015271496e73756666696369656e742066756e647360701b6044820152606490fd5b919082039182116106e257565b600354340361101c57600454610fe657346004557fc4c14883ae9fd8e26d5d59e3485ed29fd126d781d7e498a4ca5c54c8268e49366020604051348152a1565b60405162461bcd60e51b815260206004820152600e60248201526d105b1c9958591e48199d5b99195960921b6044820152606490fd5b60405162461bcd60e51b8152602060048201526011602482015270135d5cdd081b585d18da08189d5919d95d607a1b6044820152606490fd5b60025f54146110645760025f55565b633ee5aeb560e01b5f5260045ffdfea264697066735822122057796101a01a73e7b1d5ba31bc6347d29b6f82af6494c8005a76b0a5f10fcd6364736f6c634300081c0033a2646970667358221220e11cf07120be33b9486b0c5eadab145beb91be897838b37496caeb6f1e9adb1764736f6c634300081c0033",
  "linkReferences": {},
  "deployedLinkReferences": {},
  "immutableReferences": {
    "2227": [
      {
        "length": 32,
        "start": 1994
      },
      {
        "length": 32,
        "start": 3832
      },
      {
        "length": 32,
        "start": 4423
      }
    ]
  },
  "inputSourceName": "project/contracts/JobMarketplace.sol",
  "buildInfoId": "solc-0_8_28-67503afb78f3adb9043f80fddce091a150b5ced8"
}