{
  "_format": "hh-sol-artifact-1",
  "contractName": "Negotiation",
  "sourceName": "contracts/Negotiation.sol",
  "abi": [
    {
      "anonymous": false,
      "inputs": [
        {
          "indexed": true,
          "internalType": "uint256",
          "name": "originalOfferId",
          "type": "uint256"
        },
        {
          "indexed": false,
          "internalType": "uint256",
          "name": "newOfferId",
          "type": "uint256"
        }
      ],
      "name": "OfferCountered",
      "type": "event"
    },
    {
      "anonymous": false,
      "inputs": [
        {
          "indexed": true,
          "internalType": "uint256",
          "name": "offerId",
          "type": "uint256"
        },
        {
          "indexed": true,
          "internalType": "address",
          "name": "client",
          "type": "address"
        },
        {
          "indexed": true,
          "internalType": "address",
          "name": "worker",
          "type": "address"
        },
        {
          "indexed": false,
          "internalType": "uint256",
          "name": "budget",
          "type": "uint256"
        }
      ],
      "name": "OfferMade",
      "type": "event"
    },
    {
      "anonymous": false,
      "inputs": [
        {
          "indexed": true,
          "internalType": "uint256",
          "name": "offerId",
          "type": "uint256"
        },
        {
          "indexed": false,
          "internalType": "enum Negotiation.OfferStatus",
          "name": "status",
          "type": "uint8"
        }
      ],
      "name": "OfferStatusChanged",
      "type": "event"
    },
    {
      "inputs": [
        {
          "internalType": "uint256",
          "name": "_offerId",
          "type": "uint256"
        }
      ],
      "name": "acceptOffer",
      "outputs": [],
      "stateMutability": "nonpayable",
      "type": "function"
    },
    {
      "inputs": [
        {
          "internalType": "uint256",
          "name": "_originalOfferId",
          "type": "uint256"
        },
        {
          "internalType": "uint256",
          "name": "_newBudget",
          "type": "uint256"
        },
        {
          "internalType": "uint256",
          "name": "_newTimeline",
          "type": "uint256"
        },
        {
          "internalType": "string",
          "name": "_newTermsHash",
          "type": "string"
        }
      ],
      "name": "counterOffer",
      "outputs": [
        {
          "internalType": "uint256",
          "name": "",
          "type": "uint256"
        }
      ],
      "stateMutability": "nonpayable",
      "type": "function"
    },
    {
      "inputs": [
        {
          "internalType": "uint256",
          "name": "_offerId",
          "type": "uint256"
        }
      ],
      "name": "getOffer",
      "outputs": [
        {
          "components": [
            {
              "internalType": "uint256",
              "name": "offerId",
              "type": "uint256"
            },
            {
              "internalType": "uint256",
              "name": "jobId",
              "type": "uint256"
            },
            {
              "internalType": "address",
              "name": "client",
              "type": "address"
            },
            {
              "internalType": "address",
              "name": "worker",
              "type": "address"
            },
            {
              "internalType": "string",
              "name": "title",
              "type": "string"
            },
            {
              "internalType": "string",
              "name": "termsHash",
              "type": "string"
            },
            {
              "internalType": "uint256",
              "name": "budget",
              "type": "uint256"
            },
            {
              "internalType": "uint256",
              "name": "timeline",
              "type": "uint256"
            },
            {
              "internalType": "enum Negotiation.OfferStatus",
              "name": "status",
              "type": "uint8"
            },
            {
              "internalType": "uint256",
              "name": "createdAt",
              "type": "uint256"
            }
          ],
          "internalType": "struct Negotiation.Offer",
          "name": "",
          "type": "tuple"
        }
      ],
      "stateMutability": "view",
      "type": "function"
    },
    {
      "inputs": [
        {
          "internalType": "address",
          "name": "_worker",
          "type": "address"
        },
        {
          "internalType": "uint256",
          "name": "_jobId",
          "type": "uint256"
        },
        {
          "internalType": "string",
          "name": "_title",
          "type": "string"
        },
        {
          "internalType": "string",
          "name": "_termsHash",
          "type": "string"
        },
        {
          "internalType": "uint256",
          "name": "_budget",
          "type": "uint256"
        },
        {
          "internalType": "uint256",
          "name": "_timeline",
          "type": "uint256"
        }
      ],
      "name": "makeOffer",
      "outputs": [
        {
          "internalType": "uint256",
          "name": "",
          "type": "uint256"
        }
      ],
      "stateMutability": "nonpayable",
      "type": "function"
    },
    {
      "inputs": [],
      "name": "offerCounter",
      "outputs": [
        {
          "internalType": "uint256",
          "name": "",
          "type": "uint256"
        }
      ],
      "stateMutability": "view",
      "type": "function"
    },
    {
      "inputs": [
        {
          "internalType": "uint256",
          "name": "",
          "type": "uint256"
        }
      ],
      "name": "offers",
      "outputs": [
        {
          "internalType": "uint256",
          "name": "offerId",
          "type": "uint256"
        },
        {
          "internalType": "uint256",
          "name": "jobId",
          "type": "uint256"
        },
        {
          "internalType": "address",
          "name": "client",
          "type": "address"
        },
        {
          "internalType": "address",
          "name": "worker",
          "type": "address"
        },
        {
          "internalType": "string",
          "name": "title",
          "type": "string"
        },
        {
          "internalType": "string",
          "name": "termsHash",
          "type": "string"
        },
        {
          "internalType": "uint256",
          "name": "budget",
          "type": "uint256"
        },
        {
          "internalType": "uint256",
          "name": "timeline",
          "type": "uint256"
        },
        {
          "internalType": "enum Negotiation.OfferStatus",
          "name": "status",
          "type": "uint8"
        },
        {
          "internalType": "uint256",
          "name": "createdAt",
          "type": "uint256"
        }
      ],
      "stateMutability": "view",
      "type": "function"
    },
    {
      "inputs": [
        {
          "internalType": "uint256",
          "name": "_offerId",
          "type": "uint256"
        }
      ],
      "name": "rejectOffer",
      "outputs": [],
      "stateMutability": "nonpayable",
      "type": "function"
    },
    {
      "inputs": [
        {
          "internalType": "address",
          "name": "",
          "type": "address"
        },
        {
          "internalType": "uint256",
          "name": "",
          "type": "uint256"
        }
      ],
      "name": "userOffers",
      "outputs": [
        {
          "internalType": "uint256",
          "name": "",
          "type": "uint256"
        }
      ],
      "stateMutability": "view",
      "type": "function"
    }
  ],
  "bytecode": "0x60808060405234601557611244908161001b8239f35b600080fdfe6080604052600436101561001257600080fd5b60003560e01c8063017253a7146109fc5780634579268a1461085857806388b10c75146107675780638a72ea6a1461068f578063b7a3c1da14610671578063bd5fec6514610618578063c815729d146105275763d3bd1c2a1461007457600080fd5b346105225760c03660031901126105225761008d611113565b60443567ffffffffffffffff8111610522576100ad903690600401610f90565b9060643567ffffffffffffffff8111610522576100ce903690600401610f90565b608435916001600160a01b03169081156104e457821561049f576100f360005461116f565b93846000556040519161010583610f51565b8583526024356020808501918252336040808701918252606087018881526080880196875260a0880195865260c088018a815260a43560e08a0190815260006101008b01818152426101208d019081529e825260019788905294902099518a5595519489019490945591516002880180546001600160a01b03199081166001600160a01b039384161790915592516003890180549094169116179091559351805192939192600487019167ffffffffffffffff82116103c65781906101ca8454611035565b601f811161044c575b50602090601f83116001146103e7576000926103dc575b50508160011b916000199060031b1c19161790555b518051600586019167ffffffffffffffff82116103c65781906102228454611035565b601f8111610373575b50602090601f831160011461030e57600092610303575b50508160011b916000199060031b1c19161790555b5160068401555160078301555160048110156102ed5760209461027f60099260088501611157565b51910155336000526002835261029c604060002060005490611194565b80600052600283526102b5604060002060005490611194565b60005491604051908152827fb4e2af14f93dc6ce45d4c1693e7943701f26e03646c655cc7f576a9f3a4b7b48853393a4604051908152f35b634e487b7160e01b600052602160045260246000fd5b015190503880610242565b60008581528281209350601f198516905b81811061035b5750908460019594939210610342575b505050811b019055610257565b015160001960f88460031b161c19169055388080610335565b9293602060018192878601518155019501930161031f565b909150836000526020600020601f840160051c810191602085106103bc575b90601f859493920160051c01905b8181106103ad575061022b565b600081558493506001016103a0565b9091508190610392565b634e487b7160e01b600052604160045260246000fd5b0151905038806101ea565b60008581528281209350601f198516905b818110610434575090846001959493921061041b575b505050811b0190556101ff565b015160001960f88460031b161c1916905538808061040e565b929360206001819287860151815501950193016103f8565b909150836000526020600020601f840160051c81019160208510610495575b90601f859493920160051c01905b81811061048657506101d3565b60008155849350600101610479565b909150819061046b565b60405162461bcd60e51b815260206004820152601760248201527f427564676574206d75737420626520706f7369746976650000000000000000006044820152606490fd5b60405162461bcd60e51b8152602060048201526016602482015275496e76616c696420776f726b6572206164647265737360501b6044820152606490fd5b600080fd5b34610522576020366003190112610522576004358060005260016020526040600020600881019060ff82541660048110156102ed5761056690156111ce565b60038101546001600160a01b03163314908115610601575b50156105bc57600160ff198254161790557fc02ffb62207f94a89104e513c05efd755bfb16b444dd2e7a0bfb9bc26d100b20602060405160018152a2005b60405162461bcd60e51b815260206004820152601760248201527f4f6e6c7920706172746965732063616e206163636570740000000000000000006044820152606490fd5b600201546001600160a01b0316331490508361057e565b3461052257604036600319011261052257610631611113565b6001600160a01b03166000908152600260205260409020805460243591908210156105225760209161066291611129565b90549060031b1c604051908152f35b34610522576000366003190112610522576020600054604051908152f35b346105225760203660031901126105225760043560005260016020526040600020805460018201549160018060a01b0360028201541661075d60018060a01b03600384015416926106e26004820161106f565b936107476106f26005840161106f565b610739600685015497600786015494600960ff600889015416970154986040519c8d9c8d5260208d015260408c015260608b015261014060808b01526101408a0190610fe7565b9088820360a08a0152610fe7565b9460c087015260e0860152610100850190611028565b6101208301520390f35b34610522576020366003190112610522576004358060005260016020526040600020600881019060ff82541660048110156102ed576107a690156111ce565b60038101546001600160a01b03163314908115610841575b50156107fc57600260ff198254161790557fc02ffb62207f94a89104e513c05efd755bfb16b444dd2e7a0bfb9bc26d100b20602060405160028152a2005b60405162461bcd60e51b815260206004820152601760248201527f4f6e6c7920706172746965732063616e2072656a6563740000000000000000006044820152606490fd5b600201546001600160a01b031633149050836107be565b3461052257602036600319011261052257600061012060405161087a81610f51565b82815282602082015282604082015282606082015260606080820152606060a08201528260c08201528260e0820152826101008201520152600435600052600160205260406000206040516108ce81610f51565b8154815260018201546020820190815260028301546001600160a01b03908116604084019081526003850154909116606084019081529391906109136004840161106f565b608085019081526109266005850161106f565b60a0860190815260068501549460c0870195865260078101549160e0880192835260ff6008830154169161010089019460048410156102ed5760209a6109f19760096109c4946109d7978a520154996101208d019a8b526040518e819f9e829f8352519101525160408d015260018060a01b0390511660608c015260018060a01b0390511660808b01525161014060a08b01526101608a0190610fe7565b9051888203601f190160c08a0152610fe7565b945160e08701525161010086015251610120850190611028565b516101408301520390f35b346105225760803660031901126105225760243560043560643567ffffffffffffffff811161052257610a33903690600401610f90565b908060005260016020526040600020926008840160ff81541660048110156102ed57610f0c57600385019060018060a01b0382541633148015610ef6575b15610eb157600360ff19825416179055827fc02ffb62207f94a89104e513c05efd755bfb16b444dd2e7a0bfb9bc26d100b20602060405160038152a2610ab860005461116f565b9384600055600186015495600281019160018060a01b038354169060018060a01b0385541690610b0e600460405195610af087610f51565b8b8752602087019c8d5260408701958652606087019485520161106f565b6080850190815260a0850191825260c0850188815260443560e0870190815260006101008801818152426101208a019081529d8252600160208190526040909220985189559d519088015594516002870180546001600160a01b03199081166001600160a01b03938416179091559451600388018054909616911617909355518051949a9460048c019167ffffffffffffffff82116103c6578190610bb38454611035565b601f8111610e5e575b50602090601f8311600114610df957600092610dee575b50508160011b916000199060031b1c19161790555b51805160058b019167ffffffffffffffff82116103c6578190610c0b8454611035565b601f8111610d9b575b50602090601f8311600114610d3657600092610d2b575b50508160011b916000199060031b1c19161790555b516006890155516007880155519560048710156102ed57600960209796610c6b899860088501611157565b5191015580546001600160a01b0316600090815260028652604081209054610c9291611194565b81546001600160a01b0316600090815260028652604081209054610cb591611194565b6000549054915460405193845290946001600160a01b0391821693929091169185917fb4e2af14f93dc6ce45d4c1693e7943701f26e03646c655cc7f576a9f3a4b7b4891a47fca8c5191c7d94cc4db313f6cca791559787dc2e7794021a825e62df9564f868e83604051848152a2604051908152f35b015190508c80610c2b565b60008581528281209350601f198516905b818110610d835750908460019594939210610d6a575b505050811b019055610c40565b015160001960f88460031b161c191690558c8080610d5d565b92936020600181928786015181550195019301610d47565b909150836000526020600020601f840160051c81019160208510610de4575b90601f859493920160051c01905b818110610dd55750610c14565b60008155849350600101610dc8565b9091508190610dba565b015190508d80610bd3565b60008581528281209350601f198516905b818110610e465750908460019594939210610e2d575b505050811b019055610be8565b015160001960f88460031b161c191690558d8080610e20565b92936020600181928786015181550195019301610e0a565b909150836000526020600020601f840160051c81019160208510610ea7575b90601f859493920160051c01905b818110610e985750610bbc565b60008155849350600101610e8b565b9091508190610e7d565b60405162461bcd60e51b815260206004820152601860248201527f4f6e6c7920706172746965732063616e20636f756e74657200000000000000006044820152606490fd5b5060028601546001600160a01b03163314610a71565b60405162461bcd60e51b815260206004820152601a60248201527f4f726967696e616c206f66666572206e6f742070656e64696e670000000000006044820152606490fd5b610140810190811067ffffffffffffffff8211176103c657604052565b90601f8019910116810190811067ffffffffffffffff8211176103c657604052565b81601f820112156105225780359067ffffffffffffffff82116103c65760405192610fc5601f8401601f191660200185610f6e565b8284526020838301011161052257816000926020809301838601378301015290565b919082519283825260005b848110611013575050826000602080949584010152601f8019910116010190565b80602080928401015182828601015201610ff2565b9060048210156102ed5752565b90600182811c92168015611065575b602083101461104f57565b634e487b7160e01b600052602260045260246000fd5b91607f1691611044565b906040519182600082549261108384611035565b80845293600181169081156110f157506001146110aa575b506110a892500383610f6e565b565b90506000929192526020600020906000915b8183106110d55750509060206110a8928201013861109b565b60209193508060019154838589010152019101909184926110bc565b9050602092506110a894915060ff191682840152151560051b8201013861109b565b600435906001600160a01b038216820361052257565b80548210156111415760005260206000200190600090565b634e487b7160e01b600052603260045260246000fd5b9060048110156102ed5760ff80198354169116179055565b600019811461117e5760010190565b634e487b7160e01b600052601160045260246000fd5b8054680100000000000000008110156103c6576111b691600182018155611129565b819291549060031b91821b91600019901b1916179055565b156111d557565b60405162461bcd60e51b81526020600482015260116024820152704f66666572206e6f742070656e64696e6760781b6044820152606490fdfea2646970667358221220d1cf96f61251f10017aa2dca40cb4209e587d8c74016a54ca423dd0e53b6778a64736f6c634300081c0033",
  "linkReferences": {},
  "deployedLinkReferences": {}
}