{
  "_format": "hh-sol-artifact-1",
  "contractName": "ReputationSystem",
  "sourceName": "contracts/ReputationSystem.sol",
  "abi": [
    {
      "inputs": [],
      "stateMutability": "nonpayable",
      "type": "constructor"
    },
    {
      "inputs": [
        {
          "internalType": "address",
          "name": "owner",
          "type": "address"
        }
      ],
      "name": "OwnableInvalidOwner",
      "type": "error"
    },
    {
      "inputs": [
        {
          "internalType": "address",
          "name": "account",
          "type": "address"
        }
      ],
      "name": "OwnableUnauthorizedAccount",
      "type": "error"
    },
    {
      "anonymous": false,
      "inputs": [
        {
          "indexed": true,
          "internalType": "address",
          "name": "previousOwner",
          "type": "address"
        },
        {
          "indexed": true,
          "internalType": "address",
          "name": "newOwner",
          "type": "address"
        }
      ],
      "name": "OwnershipTransferred",
      "type": "event"
    },
    {
      "anonymous": false,
      "inputs": [
        {
          "indexed": true,
          "internalType": "address",
          "name": "user",
          "type": "address"
        },
        {
          "indexed": true,
          "internalType": "address",
          "name": "rater",
          "type": "address"
        },
        {
          "indexed": false,
          "internalType": "uint8",
          "name": "rating",
          "type": "uint8"
        }
      ],
      "name": "RatingReceived",
      "type": "event"
    },
    {
      "anonymous": false,
      "inputs": [
        {
          "indexed": true,
          "internalType": "address",
          "name": "user",
          "type": "address"
        },
        {
          "indexed": false,
          "internalType": "uint256",
          "name": "newScore",
          "type": "uint256"
        }
      ],
      "name": "ReputationUpdated",
      "type": "event"
    },
    {
      "inputs": [
        {
          "internalType": "address",
          "name": "",
          "type": "address"
        }
      ],
      "name": "authorizedCallers",
      "outputs": [
        {
          "internalType": "bool",
          "name": "",
          "type": "bool"
        }
      ],
      "stateMutability": "view",
      "type": "function"
    },
    {
      "inputs": [
        {
          "internalType": "address",
          "name": "_user",
          "type": "address"
        }
      ],
      "name": "getReputation",
      "outputs": [
        {
          "components": [
            {
              "internalType": "uint256",
              "name": "score",
              "type": "uint256"
            },
            {
              "internalType": "uint256",
              "name": "completedJobs",
              "type": "uint256"
            },
            {
              "internalType": "uint256",
              "name": "disputeWins",
              "type": "uint256"
            },
            {
              "internalType": "uint256",
              "name": "disputeLosses",
              "type": "uint256"
            },
            {
              "internalType": "uint256",
              "name": "totalVolume",
              "type": "uint256"
            },
            {
              "internalType": "uint256",
              "name": "ratingsSum",
              "type": "uint256"
            },
            {
              "internalType": "uint256",
              "name": "ratingCount",
              "type": "uint256"
            }
          ],
          "internalType": "struct ReputationSystem.Reputation",
          "name": "",
          "type": "tuple"
        }
      ],
      "stateMutability": "view",
      "type": "function"
    },
    {
      "inputs": [],
      "name": "owner",
      "outputs": [
        {
          "internalType": "address",
          "name": "",
          "type": "address"
        }
      ],
      "stateMutability": "view",
      "type": "function"
    },
    {
      "inputs": [
        {
          "internalType": "address",
          "name": "_winner",
          "type": "address"
        },
        {
          "internalType": "address",
          "name": "_loser",
          "type": "address"
        }
      ],
      "name": "recordDisputeResult",
      "outputs": [],
      "stateMutability": "nonpayable",
      "type": "function"
    },
    {
      "inputs": [
        {
          "internalType": "address",
          "name": "_worker",
          "type": "address"
        },
        {
          "internalType": "address",
          "name": "_client",
          "type": "address"
        },
        {
          "internalType": "uint256",
          "name": "_amount",
          "type": "uint256"
        }
      ],
      "name": "recordJobCompletion",
      "outputs": [],
      "stateMutability": "nonpayable",
      "type": "function"
    },
    {
      "inputs": [],
      "name": "renounceOwnership",
      "outputs": [],
      "stateMutability": "nonpayable",
      "type": "function"
    },
    {
      "inputs": [
        {
          "internalType": "address",
          "name": "",
          "type": "address"
        }
      ],
      "name": "reputations",
      "outputs": [
        {
          "internalType": "uint256",
          "name": "score",
          "type": "uint256"
        },
        {
          "internalType": "uint256",
          "name": "completedJobs",
          "type": "uint256"
        },
        {
          "internalType": "uint256",
          "name": "disputeWins",
          "type": "uint256"
        },
        {
          "internalType": "uint256",
          "name": "disputeLosses",
          "type": "uint256"
        },
        {
          "internalType": "uint256",
          "name": "totalVolume",
          "type": "uint256"
        },
        {
          "internalType": "uint256",
          "name": "ratingsSum",
          "type": "uint256"
        },
        {
          "internalType": "uint256",
          "name": "ratingCount",
          "type": "uint256"
        }
      ],
      "stateMutability": "view",
      "type": "function"
    },
    {
      "inputs": [
        {
          "internalType": "address",
          "name": "_caller",
          "type": "address"
        },
        {
          "internalType": "bool",
          "name": "_status",
          "type": "bool"
        }
      ],
      "name": "setAuthorizedCaller",
      "outputs": [],
      "stateMutability": "nonpayable",
      "type": "function"
    },
    {
      "inputs": [
        {
          "internalType": "address",
          "name": "newOwner",
          "type": "address"
        }
      ],
      "name": "transferOwnership",
      "outputs": [],
      "stateMutability": "nonpayable",
      "type": "function"
    },
    {
      "inputs": [
        {
          "internalType": "address",
          "name": "_user",
          "type": "address"
        },
        {
          "internalType": "uint8",
          "name": "_rating",
          "type": "uint8"
        }
      ],
      "name": "updateRating",
      "outputs": [],
      "stateMutability": "nonpayable",
      "type": "function"
    }
  ],
  "bytecode": "0x608080604052346075573315605f5760008054336001600160a01b0319821681178355916001600160a01b03909116907f8be0079c531659141344cd1fd0a4f28419497f9722a3daafe3b4186f6b6457e09080a3610899908161007b8239f35b631e4fbdf760e01b600052600060045260246000fd5b600080fdfe608080604052600436101561001357600080fd5b60003560e01c90816306fa15a7146105ac5750806330f69406146104e2578063454bbd291461048c578063536fff6c1461044d578063715018a6146103f45780638da5cb5b146103cb5780639c89a0e2146102e8578063a0a598e91461023c578063de6f70081461011b5763f2fde38b1461008d57600080fd5b34610116576020366003190112610116576100a6610624565b6100ae61083a565b6001600160a01b0316801561010057600080546001600160a01b03198116831782556001600160a01b0316907f8be0079c531659141344cd1fd0a4f28419497f9722a3daafe3b4186f6b6457e09080a3005b631e4fbdf760e01b600052600060045260246000fd5b600080fd5b3461011657604036600319011261011657610134610624565b6024359060ff82168092036101165733600052600260205260ff604060002054168015610228575b61016590610650565b60018210158061021d575b156101e3576101b560018060a01b0382169182600052600160205260066040600020600581016101a18782546106b2565b9055016101ae815461068d565b90556106f5565b6040519182527fa65817f4d2e1d47cbb30d9dec7973691ae15eb3730ecdfd814e600c8a92e271960203393a3005b60405162461bcd60e51b8152602060048201526012602482015271526174696e67206d75737420626520312d3560701b6044820152606490fd5b506005821115610170565b506000546001600160a01b0316331461015c565b34610116576040366003190112610116576102d2610258610624565b6102ac61026361063a565b9133600052600260205260ff6040600020541680156102d4575b61028690610650565b6001600160a01b038116600090815260016020526040902060020180546101ae9061068d565b6001600160a01b038116600090815260016020526040902060030180546101ae9061068d565b005b506000546001600160a01b0316331461027d565b3461011657602036600319011261011657610301610624565b600060c061030d6106bf565b8281528260208201528260408201528260608201528260808201528260a0820152015260018060a01b0316600052600160205260e0604060002061034f6106bf565b815491828252600181015460208301908152600282015460408401908152600383015490606085019182526004840154926080860193845260c0600660058701549660a08901978852015496019586526040519687525160208701525160408601525160608501525160808401525160a08301525160c0820152f35b34610116576000366003190112610116576000546040516001600160a01b039091168152602090f35b346101165760003660031901126101165761040d61083a565b600080546001600160a01b0319811682556001600160a01b03167f8be0079c531659141344cd1fd0a4f28419497f9722a3daafe3b4186f6b6457e08280a3005b34610116576020366003190112610116576001600160a01b0361046e610624565b166000526002602052602060ff604060002054166040519015158152f35b34610116576040366003190112610116576104a5610624565b60243590811515809203610116576104bb61083a565b60018060a01b0316600052600260205260406000209060ff80198354169116179055600080f35b34610116576060366003190112610116576102d26104fe610624565b61050661063a565b906105646044359133600052600260205260ff604060002054168015610598575b61053090610650565b60018060a01b03811660005260016020526004604060002060018101610556815461068d565b9055016101ae8482546106b2565b60018060a01b03821660005260016020526101ae600460406000206001810161058d815461068d565b9055019182546106b2565b506000546001600160a01b03163314610527565b346101165760203660031901126101165760e0906001600160a01b036105d0610624565b16600052600160205260406000208054906001810154600282015460038301549060048401549260066005860154950154958752602087015260408601526060850152608084015260a083015260c0820152f35b600435906001600160a01b038216820361011657565b602435906001600160a01b038216820361011657565b1561065757565b60405162461bcd60e51b815260206004820152600e60248201526d139bdd08185d5d1a1bdc9a5e995960921b6044820152606490fd5b600019811461069c5760010190565b634e487b7160e01b600052601160045260246000fd5b9190820180921161069c57565b6040519060e0820182811067ffffffffffffffff8211176106df57604052565b634e487b7160e01b600052604160045260246000fd5b6001600160a01b031660008181526001602052604081206006810154909190801580156107ea575b5050600182015460148111156107e5575060145b600383015491600f830292808404600f149015171561069c57603201908160321161069c5761075f916106b2565b90808211156107b657810390811161069c57816020917ffc577563f1b9a0461e24abef1e1fcc0d33d3d881f20b5df6dda59de4aae2c82193555b60648154116107ad575b54604051908152a2565b606481556107a3565b505060208160007ffc577563f1b9a0461e24abef1e1fcc0d33d3d881f20b5df6dda59de4aae2c8219355610799565b610731565b9091600584015491600a830292808404600a149015171561082657610812575004388061071d565b634e487b7160e01b81526012600452602490fd5b634e487b7160e01b82526011600452602482fd5b6000546001600160a01b0316330361084e57565b63118cdaa760e01b6000523360045260246000fdfea2646970667358221220dcd3ce3e452e92c2fee0788a77942465855e1253e604d2d022b3c5b944dbb10664736f6c634300081c0033",
  "linkReferences": {},
  "deployedLinkReferences": {}
}