{
  "_format": "hh-sol-artifact-1",
  "contractName": "WorkerRegistry",
  "sourceName": "contracts/WorkerRegistry.sol",
  "abi": [
    {
      "inputs": [],
      "stateMutability": "nonpayable",
      "type": "constructor"
    },
    {
      "inputs": [
        {
          "internalType": "address",
          "name": "owner",
          "type": "address"
        }
      ],
      "name": "OwnableInvalidOwner",
      "type": "error"
    },
    {
      "inputs": [
        {
          "internalType": "address",
          "name": "account",
          "type": "address"
        }
      ],
      "name": "OwnableUnauthorizedAccount",
      "type": "error"
    },
    {
      "anonymous": false,
      "inputs": [
        {
          "indexed": true,
          "internalType": "address",
          "name": "worker",
          "type": "address"
        },
        {
          "indexed": false,
          "internalType": "bool",
          "name": "isAvailable",
          "type": "bool"
        }
      ],
      "name": "AvailabilityUpdated",
      "type": "event"
    },
    {
      "anonymous": false,
      "inputs": [
        {
          "indexed": true,
          "internalType": "address",
          "name": "previousOwner",
          "type": "address"
        },
        {
          "indexed": true,
          "internalType": "address",
          "name": "newOwner",
          "type": "address"
        }
      ],
      "name": "OwnershipTransferred",
      "type": "event"
    },
    {
      "anonymous": false,
      "inputs": [
        {
          "indexed": true,
          "internalType": "address",
          "name": "worker",
          "type": "address"
        },
        {
          "indexed": false,
          "internalType": "string",
          "name": "ipfsHash",
          "type": "string"
        },
        {
          "indexed": false,
          "internalType": "uint256",
          "name": "hourlyRate",
          "type": "uint256"
        }
      ],
      "name": "ProfileRegistered",
      "type": "event"
    },
    {
      "anonymous": false,
      "inputs": [
        {
          "indexed": true,
          "internalType": "address",
          "name": "worker",
          "type": "address"
        },
        {
          "indexed": false,
          "internalType": "string",
          "name": "ipfsHash",
          "type": "string"
        },
        {
          "indexed": false,
          "internalType": "uint256",
          "name": "hourlyRate",
          "type": "uint256"
        }
      ],
      "name": "ProfileUpdated",
      "type": "event"
    },
    {
      "inputs": [
        {
          "internalType": "uint256",
          "name": "",
          "type": "uint256"
        }
      ],
      "name": "allWorkers",
      "outputs": [
        {
          "internalType": "address",
          "name": "",
          "type": "address"
        }
      ],
      "stateMutability": "view",
      "type": "function"
    },
    {
      "inputs": [
        {
          "internalType": "address",
          "name": "_worker",
          "type": "address"
        }
      ],
      "name": "getWorker",
      "outputs": [
        {
          "components": [
            {
              "internalType": "string",
              "name": "ipfsHash",
              "type": "string"
            },
            {
              "internalType": "uint256",
              "name": "hourlyRate",
              "type": "uint256"
            },
            {
              "internalType": "string[]",
              "name": "skills",
              "type": "string[]"
            },
            {
              "internalType": "bool",
              "name": "isAvailable",
              "type": "bool"
            },
            {
              "internalType": "uint256",
              "name": "registeredAt",
              "type": "uint256"
            }
          ],
          "internalType": "struct WorkerRegistry.Profile",
          "name": "",
          "type": "tuple"
        }
      ],
      "stateMutability": "view",
      "type": "function"
    },
    {
      "inputs": [],
      "name": "getWorkerCount",
      "outputs": [
        {
          "internalType": "uint256",
          "name": "",
          "type": "uint256"
        }
      ],
      "stateMutability": "view",
      "type": "function"
    },
    {
      "inputs": [
        {
          "internalType": "string",
          "name": "_skill",
          "type": "string"
        }
      ],
      "name": "getWorkersBySkill",
      "outputs": [
        {
          "internalType": "address[]",
          "name": "",
          "type": "address[]"
        }
      ],
      "stateMutability": "view",
      "type": "function"
    },
    {
      "inputs": [],
      "name": "owner",
      "outputs": [
        {
          "internalType": "address",
          "name": "",
          "type": "address"
        }
      ],
      "stateMutability": "view",
      "type": "function"
    },
    {
      "inputs": [
        {
          "internalType": "address",
          "name": "",
          "type": "address"
        }
      ],
      "name": "profiles",
      "outputs": [
        {
          "internalType": "string",
          "name": "ipfsHash",
          "type": "string"
        },
        {
          "internalType": "uint256",
          "name": "hourlyRate",
          "type": "uint256"
        },
        {
          "internalType": "bool",
          "name": "isAvailable",
          "type": "bool"
        },
        {
          "internalType": "uint256",
          "name": "registeredAt",
          "type": "uint256"
        }
      ],
      "stateMutability": "view",
      "type": "function"
    },
    {
      "inputs": [
        {
          "internalType": "string",
          "name": "_ipfsHash",
          "type": "string"
        },
        {
          "internalType": "uint256",
          "name": "_hourlyRate",
          "type": "uint256"
        },
        {
          "internalType": "string[]",
          "name": "_skills",
          "type": "string[]"
        }
      ],
      "name": "registerProfile",
      "outputs": [],
      "stateMutability": "nonpayable",
      "type": "function"
    },
    {
      "inputs": [],
      "name": "renounceOwnership",
      "outputs": [],
      "stateMutability": "nonpayable",
      "type": "function"
    },
    {
      "inputs": [
        {
          "internalType": "bool",
          "name": "_isAvailable",
          "type": "bool"
        }
      ],
      "name": "setAvailability",
      "outputs": [],
      "stateMutability": "nonpayable",
      "type": "function"
    },
    {
      "inputs": [
        {
          "internalType": "address",
          "name": "newOwner",
          "type": "address"
        }
      ],
      "name": "transferOwnership",
      "outputs": [],
      "stateMutability": "nonpayable",
      "type": "function"
    },
    {
      "inputs": [
        {
          "internalType": "string",
          "name": "",
          "type": "string"
        },
        {
          "internalType": "uint256",
          "name": "",
          "type": "uint256"
        }
      ],
      "name": "workersBySkill",
      "outputs": [
        {
          "internalType": "address",
          "name": "",
          "type": "address"
        }
      ],
      "stateMutability": "view",
      "type": "function"
    }
  ],
  "bytecode": "0x608080604052346075573315605f5760008054336001600160a01b0319821681178355916001600160a01b03909116907f8be0079c531659141344cd1fd0a4f28419497f9722a3daafe3b4186f6b6457e09080a3610eb4908161007b8239f35b631e4fbdf760e01b600052600060045260246000fd5b600080fdfe6080604052600436101561001257600080fd5b60003560e01c8063220fc7d014610b3157806326a1837514610a6e5780634d7599f114610a50578063715018a6146109f75780637c607ce6146109725780638da5cb5b146109495780639890f7d4146108cd578063bbe156271461084f578063c011b1c3146106bc578063eb89c535146101275763f2fde38b1461009557600080fd5b34610122576020366003190112610122576004356001600160a01b03811690819003610122576100c3610e55565b801561010c57600080546001600160a01b03198116831782556001600160a01b0316907f8be0079c531659141344cd1fd0a4f28419497f9722a3daafe3b4186f6b6457e09080a3005b631e4fbdf760e01b600052600060045260246000fd5b600080fd5b346101225760603660031901126101225760043567ffffffffffffffff811161012257610158903690600401610c5f565b6044359060243567ffffffffffffffff8311610122573660238401121561012257826004013561018781610e0a565b936101956040519586610c3d565b8185526024602086019260051b820101903682116101225760248101925b82841061068c5750505050336000526001602052600460406000200154158060001461067557425b604051906101e882610c21565b8482526020820184815260408301878152606084019160018352608085019384523360005260016020526040600020945180519067ffffffffffffffff82116103de576102358754610d07565b601f8111610643575b50602090601f83116001146105dc576102709291600091836105d1575b50508160011b916000199060031b1c19161790565b85555b5160018501555180516002850191600160401b82116103de578254828455808310610553575b50602001916000526020600020916000905b82821061042f5750505050906102d5600492511515600385019060ff801983541691151516179055565b51910155156103f457600254600160401b8110156103de577f87f1e9de5aaee5f4cf9491d4a669b4abc30de6408b645753a9a0f5e6e21e4d9e9161032482600161034b94016002556002610cd9565b81549060031b9033821b9160018060a01b03901b1916179055604051918291339583610e39565b0390a25b60005b81518110156103dc57600061037e6020808460051b860101518160405193828580945193849201610cb6565b81016003815203019020805491600160401b8310156103c85750816103aa916001809594018155610cd9565b81549060031b9033821b91858060a01b03901b191617905501610352565b634e487b7160e01b81526041600452602490fd5b005b634e487b7160e01b600052604160045260246000fd5b6104277fdcb94c0b2c025b0736b4b62b1c595f2ca7ad4c711eada6026d477e87de9cca0891604051918291339583610e39565b0390a261034f565b805180519067ffffffffffffffff82116103de5761044d8654610d07565b601f8111610516575b50602090601f83116001146104a9579261048f8360019594602094879660009261049e5750508160011b916000199060031b1c19161790565b87555b019401910190926102ab565b01519050388061025b565b90601f1983169187600052816000209260005b8181106104fe57509360209360019693879693838895106104e5575b505050811b018755610492565b015160001960f88460031b161c191690553880806104d8565b929360206001819287860151815501950193016104bc565b61054390876000526020600020601f850160051c81019160208610610549575b601f0160051c0190610e22565b8d610456565b9091508190610536565b8360005282602060002091820191015b8181106105705750610299565b8061057d60019254610d07565b8061058a575b5001610563565b601f811183146105a05750600081555b8d610583565b6105be908260005283601f6020600020920160051c82019101610e22565b806000526000602081208183555561059a565b015190508c8061025b565b90601f1983169188600052816000209260005b81811061062b5750908460019594939210610612575b505050811b018555610273565b015160001960f88460031b161c191690558b8080610605565b929360206001819287860151815501950193016105ef565b61066f90886000526020600020601f850160051c8101916020861061054957601f0160051c0190610e22565b8b61023e565b3360005260016020526004604060002001546101db565b833567ffffffffffffffff8111610122576020916106b1839260243691870101610c5f565b8152019301926101b3565b34610122576020366003190112610122576004356001600160a01b0381169081900361012257600060806040516106f281610c21565b606081528260208201526060604082015282606082015201526000526001602052604060002060405161072481610c21565b61072d82610d41565b81526001820154916020820192835260028101805461074b81610e0a565b916107596040519384610c3d565b818352602083019060005260206000206000915b838310610832575050505060408301908152600460ff60038401541692606085019315158452015490608084019182526107ba60405194602086525160a0602087015260c0860190610de5565b945160408501525191601f19848603016060850152825180865260208601906020808260051b8901019501916000905b82821061080757845115156080890152855160a089015287870388f35b90919295602080610824600193601f198d82030186528a51610de5565b9801920192019092916107ea565b60016020819261084185610d41565b81520192019201919061076d565b34610122576020366003190112610122576004356001600160a01b038116908190036101225760005260016020526108b7604060002061088e81610d41565b90600181015490600460ff60038301541691015490604051948594608086526080860190610de5565b9260208501521515604084015260608301520390f35b3461012257602036600319011261012257600435600254811015610122576000906002548110156109355760029091527f405787fa12a823e0f2b7631cc41b3ba8828b3321ca811111fa75cd3aa3bb5ace01546040516001600160a01b039091168152602090f35b634e487b7160e01b82526032600452602482fd5b34610122576000366003190112610122576000546040516001600160a01b039091168152602090f35b346101225760403660031901126101225760043567ffffffffffffffff8111610122576109a3903690600401610c5f565b6109bf6020602435928160405193828580945193849201610cb6565b810160038152030190208054821015610122576020916109de91610cd9565b905460405160039290921b1c6001600160a01b03168152f35b3461012257600036600319011261012257610a10610e55565b600080546001600160a01b0319811682556001600160a01b03167f8be0079c531659141344cd1fd0a4f28419497f9722a3daafe3b4186f6b6457e08280a3005b34610122576000366003190112610122576020600254604051908152f35b3461012257602036600319011261012257600435801515908181036101225733600052600160205260046040600020015415610af857610aca9033600052600160205260036040600020019060ff801983541691151516179055565b6040519081527f0591a5a8df325e3f7a015552a721249b68a58274af797778c4a414b77a967e7360203392a2005b60405162461bcd60e51b8152602060048201526011602482015270141c9bd99a5b19481b9bdd08199bdd5b99607a1b6044820152606490fd5b346101225760203660031901126101225760043567ffffffffffffffff8111610122576020610b67610b7a923690600401610c5f565b8160405193828580945193849201610cb6565b810160038152030190206040518060208354918281520190819360005260206000209060005b818110610c025750505081610bb6910382610c3d565b6040519182916020830190602084525180915260408301919060005b818110610be0575050500390f35b82516001600160a01b0316845285945060209384019390920191600101610bd2565b82546001600160a01b0316845260209093019260019283019201610ba0565b60a0810190811067ffffffffffffffff8211176103de57604052565b90601f8019910116810190811067ffffffffffffffff8211176103de57604052565b81601f820112156101225780359067ffffffffffffffff82116103de5760405192610c94601f8401601f191660200185610c3d565b8284526020838301011161012257816000926020809301838601378301015290565b60005b838110610cc95750506000910152565b8181015183820152602001610cb9565b8054821015610cf15760005260206000200190600090565b634e487b7160e01b600052603260045260246000fd5b90600182811c92168015610d37575b6020831014610d2157565b634e487b7160e01b600052602260045260246000fd5b91607f1691610d16565b9060405191826000825492610d5584610d07565b8084529360018116908115610dc35750600114610d7c575b50610d7a92500383610c3d565b565b90506000929192526020600020906000915b818310610da7575050906020610d7a9282010138610d6d565b6020919350806001915483858901015201910190918492610d8e565b905060209250610d7a94915060ff191682840152151560051b82010138610d6d565b90602091610dfe81518092818552858086019101610cb6565b601f01601f1916010190565b67ffffffffffffffff81116103de5760051b60200190565b818110610e2d575050565b60008155600101610e22565b929190610e50602091604086526040860190610de5565b930152565b6000546001600160a01b03163303610e6957565b63118cdaa760e01b6000523360045260246000fdfea2646970667358221220b73d09067bef9052b426ed931c30e4c4bb8f74dbcc4e7b88763fb2966115861c64736f6c634300081c0033",
  "linkReferences": {},
  "deployedLinkReferences": {}
}