{
  "_format": "hh-sol-artifact-1",
  "contractName": "Arbitration",
  "sourceName": "contracts/Arbitration.sol",
  "abi": [
    {
      "inputs": [
        {
          "internalType": "address",
          "name": "_randomnessOracle",
          "type": "address"
        }
      ],
      "stateMutability": "nonpayable",
      "type": "constructor"
    },
    {
      "inputs": [],
      "name": "ReentrancyGuardReentrantCall",
      "type": "error"
    },
    {
      "anonymous": false,
      "inputs": [
        {
          "indexed": true,
          "internalType": "uint256",
          "name": "categoryId",
          "type": "uint256"
        },
        {
          "indexed": false,
          "internalType": "string",
          "name": "name",
          "type": "string"
        }
      ],
      "name": "CategoryAdded",
      "type": "event"
    },
    {
      "anonymous": false,
      "inputs": [
        {
          "indexed": true,
          "internalType": "uint256",
          "name": "disputeId",
          "type": "uint256"
        },
        {
          "indexed": false,
          "internalType": "uint256",
          "name": "newJurorCount",
          "type": "uint256"
        }
      ],
      "name": "DisputeAppealed",
      "type": "event"
    },
    {
      "anonymous": false,
      "inputs": [
        {
          "indexed": true,
          "internalType": "uint256",
          "name": "disputeId",
          "type": "uint256"
        },
        {
          "indexed": true,
          "internalType": "uint256",
          "name": "jobId",
          "type": "uint256"
        },
        {
          "indexed": false,
          "internalType": "uint256",
          "name": "categoryId",
          "type": "uint256"
        }
      ],
      "name": "DisputeCreated",
      "type": "event"
    },
    {
      "anonymous": false,
      "inputs": [
        {
          "indexed": true,
          "internalType": "uint256",
          "name": "disputeId",
          "type": "uint256"
        },
        {
          "indexed": false,
          "internalType": "bool",
          "name": "clientWon",
          "type": "bool"
        },
        {
          "indexed": false,
          "internalType": "uint256",
          "name": "majorityVotes",
          "type": "uint256"
        }
      ],
      "name": "DisputeResolved",
      "type": "event"
    },
    {
      "anonymous": false,
      "inputs": [
        {
          "indexed": true,
          "internalType": "uint256",
          "name": "disputeId",
          "type": "uint256"
        },
        {
          "indexed": false,
          "internalType": "string",
          "name": "reason",
          "type": "string"
        },
        {
          "indexed": false,
          "internalType": "uint256",
          "name": "newJurorCount",
          "type": "uint256"
        }
      ],
      "name": "DisputeRetried",
      "type": "event"
    },
    {
      "anonymous": false,
      "inputs": [
        {
          "indexed": true,
          "internalType": "uint256",
          "name": "disputeId",
          "type": "uint256"
        },
        {
          "indexed": true,
          "internalType": "address",
          "name": "submitter",
          "type": "address"
        },
        {
          "indexed": false,
          "internalType": "string",
          "name": "evidenceHash",
          "type": "string"
        }
      ],
      "name": "EvidenceSubmitted",
      "type": "event"
    },
    {
      "anonymous": false,
      "inputs": [
        {
          "indexed": true,
          "internalType": "address",
          "name": "juror",
          "type": "address"
        }
      ],
      "name": "JurorEligibilityRestored",
      "type": "event"
    },
    {
      "anonymous": false,
      "inputs": [
        {
          "indexed": true,
          "internalType": "address",
          "name": "juror",
          "type": "address"
        },
        {
          "indexed": false,
          "internalType": "uint256",
          "name": "amount",
          "type": "uint256"
        }
      ],
      "name": "JurorRewardsWithdrawn",
      "type": "event"
    },
    {
      "anonymous": false,
      "inputs": [
        {
          "indexed": true,
          "internalType": "uint256",
          "name": "disputeId",
          "type": "uint256"
        },
        {
          "indexed": true,
          "internalType": "address",
          "name": "juror",
          "type": "address"
        }
      ],
      "name": "JurorSelected",
      "type": "event"
    },
    {
      "anonymous": false,
      "inputs": [
        {
          "indexed": true,
          "internalType": "uint256",
          "name": "disputeId",
          "type": "uint256"
        },
        {
          "indexed": false,
          "internalType": "uint256",
          "name": "jurorCount",
          "type": "uint256"
        }
      ],
      "name": "JurorSelectionCompleted",
      "type": "event"
    },
    {
      "anonymous": false,
      "inputs": [
        {
          "indexed": true,
          "internalType": "uint256",
          "name": "disputeId",
          "type": "uint256"
        },
        {
          "indexed": true,
          "internalType": "address",
          "name": "juror",
          "type": "address"
        },
        {
          "indexed": false,
          "internalType": "uint256",
          "name": "amount",
          "type": "uint256"
        },
        {
          "indexed": false,
          "internalType": "string",
          "name": "reason",
          "type": "string"
        }
      ],
      "name": "JurorSlashed",
      "type": "event"
    },
    {
      "anonymous": false,
      "inputs": [
        {
          "indexed": true,
          "internalType": "address",
          "name": "juror",
          "type": "address"
        },
        {
          "indexed": false,
          "internalType": "uint256",
          "name": "amount",
          "type": "uint256"
        },
        {
          "indexed": false,
          "internalType": "uint256",
          "name": "newTotal",
          "type": "uint256"
        }
      ],
      "name": "JurorStakeAdded",
      "type": "event"
    },
    {
      "anonymous": false,
      "inputs": [
        {
          "indexed": true,
          "internalType": "address",
          "name": "juror",
          "type": "address"
        },
        {
          "indexed": false,
          "internalType": "uint256",
          "name": "amount",
          "type": "uint256"
        },
        {
          "indexed": false,
          "internalType": "uint256[]",
          "name": "categoryIds",
          "type": "uint256[]"
        }
      ],
      "name": "JurorStaked",
      "type": "event"
    },
    {
      "anonymous": false,
      "inputs": [
        {
          "indexed": true,
          "internalType": "address",
          "name": "juror",
          "type": "address"
        },
        {
          "indexed": false,
          "internalType": "uint256",
          "name": "amount",
          "type": "uint256"
        }
      ],
      "name": "JurorUnstaked",
      "type": "event"
    },
    {
      "anonymous": false,
      "inputs": [
        {
          "indexed": true,
          "internalType": "uint256",
          "name": "disputeId",
          "type": "uint256"
        },
        {
          "indexed": false,
          "internalType": "bytes32",
          "name": "requestId",
          "type": "bytes32"
        }
      ],
      "name": "RandomnessRequested",
      "type": "event"
    },
    {
      "anonymous": false,
      "inputs": [
        {
          "indexed": true,
          "internalType": "uint256",
          "name": "disputeId",
          "type": "uint256"
        },
        {
          "indexed": true,
          "internalType": "address",
          "name": "juror",
          "type": "address"
        },
        {
          "indexed": false,
          "internalType": "uint256",
          "name": "amount",
          "type": "uint256"
        }
      ],
      "name": "RewardClaimed",
      "type": "event"
    },
    {
      "anonymous": false,
      "inputs": [
        {
          "indexed": true,
          "internalType": "uint256",
          "name": "disputeId",
          "type": "uint256"
        },
        {
          "indexed": false,
          "internalType": "uint256",
          "name": "amount",
          "type": "uint256"
        }
      ],
      "name": "TreasuryFundsDeposited",
      "type": "event"
    },
    {
      "anonymous": false,
      "inputs": [
        {
          "indexed": true,
          "internalType": "uint256",
          "name": "disputeId",
          "type": "uint256"
        },
        {
          "indexed": true,
          "internalType": "address",
          "name": "juror",
          "type": "address"
        },
        {
          "indexed": false,
          "internalType": "bool",
          "name": "votedForClient",
          "type": "bool"
        }
      ],
      "name": "VoteCast",
      "type": "event"
    },
    {
      "anonymous": false,
      "inputs": [
        {
          "indexed": true,
          "internalType": "uint256",
          "name": "disputeId",
          "type": "uint256"
        },
        {
          "indexed": true,
          "internalType": "address",
          "name": "juror",
          "type": "address"
        }
      ],
      "name": "VoteCommitted",
      "type": "event"
    },
    {
      "anonymous": false,
      "inputs": [
        {
          "indexed": true,
          "internalType": "uint256",
          "name": "disputeId",
          "type": "uint256"
        },
        {
          "indexed": true,
          "internalType": "address",
          "name": "juror",
          "type": "address"
        },
        {
          "indexed": false,
          "internalType": "bool",
          "name": "voteForClient",
          "type": "bool"
        }
      ],
      "name": "VoteRevealed",
      "type": "event"
    },
    {
      "inputs": [],
      "name": "APPEAL_JUROR_INCREMENT",
      "outputs": [
        {
          "internalType": "uint256",
          "name": "",
          "type": "uint256"
        }
      ],
      "stateMutability": "view",
      "type": "function"
    },
    {
      "inputs": [],
      "name": "APPEAL_PERIOD",
      "outputs": [
        {
          "internalType": "uint256",
          "name": "",
          "type": "uint256"
        }
      ],
      "stateMutability": "view",
      "type": "function"
    },
    {
      "inputs": [],
      "name": "ARBITRATION_FEE",
      "outputs": [
        {
          "internalType": "uint256",
          "name": "",
          "type": "uint256"
        }
      ],
      "stateMutability": "view",
      "type": "function"
    },
    {
      "inputs": [],
      "name": "EVIDENCE_PERIOD",
      "outputs": [
        {
          "internalType": "uint256",
          "name": "",
          "type": "uint256"
        }
      ],
      "stateMutability": "view",
      "type": "function"
    },
    {
      "inputs": [],
      "name": "INITIAL_JUROR_COUNT",
      "outputs": [
        {
          "internalType": "uint256",
          "name": "",
          "type": "uint256"
        }
      ],
      "stateMutability": "view",
      "type": "function"
    },
    {
      "inputs": [],
      "name": "MAX_CATEGORIES",
      "outputs": [
        {
          "internalType": "uint256",
          "name": "",
          "type": "uint256"
        }
      ],
      "stateMutability": "view",
      "type": "function"
    },
    {
      "inputs": [],
      "name": "MAX_JURORS_PER_DISPUTE",
      "outputs": [
        {
          "internalType": "uint256",
          "name": "",
          "type": "uint256"
        }
      ],
      "stateMutability": "view",
      "type": "function"
    },
    {
      "inputs": [],
      "name": "REVEAL_QUORUM_PERCENTAGE",
      "outputs": [
        {
          "internalType": "uint256",
          "name": "",
          "type": "uint256"
        }
      ],
      "stateMutability": "view",
      "type": "function"
    },
    {
      "inputs": [],
      "name": "SLASH_PERCENTAGE",
      "outputs": [
        {
          "internalType": "uint256",
          "name": "",
          "type": "uint256"
        }
      ],
      "stateMutability": "view",
      "type": "function"
    },
    {
      "inputs": [],
      "name": "STAKE_AMOUNT",
      "outputs": [
        {
          "internalType": "uint256",
          "name": "",
          "type": "uint256"
        }
      ],
      "stateMutability": "view",
      "type": "function"
    },
    {
      "inputs": [],
      "name": "STAKE_LOCK_PER_DISPUTE",
      "outputs": [
        {
          "internalType": "uint256",
          "name": "",
          "type": "uint256"
        }
      ],
      "stateMutability": "view",
      "type": "function"
    },
    {
      "inputs": [],
      "name": "USDC_ADDRESS",
      "outputs": [
        {
          "internalType": "address",
          "name": "",
          "type": "address"
        }
      ],
      "stateMutability": "view",
      "type": "function"
    },
    {
      "inputs": [
        {
          "internalType": "string",
          "name": "_name",
          "type": "string"
        }
      ],
      "name": "addCategory",
      "outputs": [],
      "stateMutability": "nonpayable",
      "type": "function"
    },
    {
      "inputs": [
        {
          "internalType": "uint256",
          "name": "_amount",
          "type": "uint256"
        }
      ],
      "name": "addStake",
      "outputs": [],
      "stateMutability": "nonpayable",
      "type": "function"
    },
    {
      "inputs": [
        {
          "internalType": "uint256",
          "name": "_disputeId",
          "type": "uint256"
        }
      ],
      "name": "appealDispute",
      "outputs": [],
      "stateMutability": "nonpayable",
      "type": "function"
    },
    {
      "inputs": [],
      "name": "categoryCounter",
      "outputs": [
        {
          "internalType": "uint256",
          "name": "",
          "type": "uint256"
        }
      ],
      "stateMutability": "view",
      "type": "function"
    },
    {
      "inputs": [
        {
          "internalType": "uint256",
          "name": "",
          "type": "uint256"
        }
      ],
      "name": "categoryNames",
      "outputs": [
        {
          "internalType": "string",
          "name": "",
          "type": "string"
        }
      ],
      "stateMutability": "view",
      "type": "function"
    },
    {
      "inputs": [
        {
          "internalType": "uint256",
          "name": "_disputeId",
          "type": "uint256"
        }
      ],
      "name": "claimReward",
      "outputs": [],
      "stateMutability": "nonpayable",
      "type": "function"
    },
    {
      "inputs": [
        {
          "internalType": "uint256[]",
          "name": "_disputeIds",
          "type": "uint256[]"
        }
      ],
      "name": "claimRewardsBatch",
      "outputs": [],
      "stateMutability": "nonpayable",
      "type": "function"
    },
    {
      "inputs": [
        {
          "internalType": "uint256",
          "name": "_disputeId",
          "type": "uint256"
        },
        {
          "internalType": "bytes32",
          "name": "_commitHash",
          "type": "bytes32"
        }
      ],
      "name": "commitVote",
      "outputs": [],
      "stateMutability": "nonpayable",
      "type": "function"
    },
    {
      "inputs": [
        {
          "internalType": "uint256",
          "name": "_disputeId",
          "type": "uint256"
        }
      ],
      "name": "completeJurorSelection",
      "outputs": [],
      "stateMutability": "nonpayable",
      "type": "function"
    },
    {
      "inputs": [
        {
          "internalType": "uint256",
          "name": "_jobId",
          "type": "uint256"
        },
        {
          "internalType": "address",
          "name": "_client",
          "type": "address"
        },
        {
          "internalType": "address",
          "name": "_worker",
          "type": "address"
        },
        {
          "internalType": "uint256",
          "name": "_categoryId",
          "type": "uint256"
        },
        {
          "internalType": "uint256",
          "name": "_amount",
          "type": "uint256"
        }
      ],
      "name": "createDispute",
      "outputs": [
        {
          "internalType": "uint256",
          "name": "",
          "type": "uint256"
        }
      ],
      "stateMutability": "nonpayable",
      "type": "function"
    },
    {
      "inputs": [],
      "name": "deployer",
      "outputs": [
        {
          "internalType": "address",
          "name": "",
          "type": "address"
        }
      ],
      "stateMutability": "view",
      "type": "function"
    },
    {
      "inputs": [],
      "name": "disputeCounter",
      "outputs": [
        {
          "internalType": "uint256",
          "name": "",
          "type": "uint256"
        }
      ],
      "stateMutability": "view",
      "type": "function"
    },
    {
      "inputs": [
        {
          "internalType": "uint256",
          "name": "",
          "type": "uint256"
        }
      ],
      "name": "disputes",
      "outputs": [
        {
          "internalType": "uint256",
          "name": "disputeId",
          "type": "uint256"
        },
        {
          "internalType": "uint256",
          "name": "jobId",
          "type": "uint256"
        },
        {
          "internalType": "address",
          "name": "client",
          "type": "address"
        },
        {
          "internalType": "address",
          "name": "worker",
          "type": "address"
        },
        {
          "internalType": "uint256",
          "name": "categoryId",
          "type": "uint256"
        },
        {
          "internalType": "uint256",
          "name": "amount",
          "type": "uint256"
        },
        {
          "internalType": "bool",
          "name": "isActive",
          "type": "bool"
        },
        {
          "internalType": "bool",
          "name": "isResolved",
          "type": "bool"
        },
        {
          "internalType": "uint256",
          "name": "votesForClient",
          "type": "uint256"
        },
        {
          "internalType": "uint256",
          "name": "votesForWorker",
          "type": "uint256"
        },
        {
          "internalType": "uint256",
          "name": "jurorCount",
          "type": "uint256"
        },
        {
          "internalType": "uint256",
          "name": "appealCount",
          "type": "uint256"
        },
        {
          "internalType": "uint256",
          "name": "revealCount",
          "type": "uint256"
        },
        {
          "internalType": "uint256",
          "name": "arbitrationFeePaid",
          "type": "uint256"
        },
        {
          "internalType": "uint256",
          "name": "totalSlashed",
          "type": "uint256"
        },
        {
          "internalType": "uint256",
          "name": "winnerCount",
          "type": "uint256"
        },
        {
          "internalType": "bool",
          "name": "clientWon",
          "type": "bool"
        },
        {
          "internalType": "uint256",
          "name": "rewardPerWinner",
          "type": "uint256"
        },
        {
          "internalType": "uint256",
          "name": "createdAt",
          "type": "uint256"
        },
        {
          "internalType": "uint256",
          "name": "evidencePeriodEnd",
          "type": "uint256"
        },
        {
          "internalType": "uint256",
          "name": "commitPeriodEnd",
          "type": "uint256"
        },
        {
          "internalType": "uint256",
          "name": "revealPeriodEnd",
          "type": "uint256"
        },
        {
          "internalType": "uint256",
          "name": "appealPeriodEnd",
          "type": "uint256"
        },
        {
          "internalType": "bytes32",
          "name": "randomnessRequestId",
          "type": "bytes32"
        },
        {
          "internalType": "bool",
          "name": "jurorSelectionPending",
          "type": "bool"
        }
      ],
      "stateMutability": "view",
      "type": "function"
    },
    {
      "inputs": [
        {
          "internalType": "uint256",
          "name": "_disputeId",
          "type": "uint256"
        }
      ],
      "name": "finalizeDispute",
      "outputs": [],
      "stateMutability": "nonpayable",
      "type": "function"
    },
    {
      "inputs": [
        {
          "internalType": "uint256",
          "name": "_disputeId",
          "type": "uint256"
        }
      ],
      "name": "getAppealPeriodEnd",
      "outputs": [
        {
          "internalType": "uint256",
          "name": "",
          "type": "uint256"
        }
      ],
      "stateMutability": "view",
      "type": "function"
    },
    {
      "inputs": [
        {
          "internalType": "uint256",
          "name": "_disputeId",
          "type": "uint256"
        }
      ],
      "name": "getDisputeResult",
      "outputs": [
        {
          "internalType": "bool",
          "name": "isResolved",
          "type": "bool"
        },
        {
          "internalType": "bool",
          "name": "clientWon",
          "type": "bool"
        }
      ],
      "stateMutability": "view",
      "type": "function"
    },
    {
      "inputs": [
        {
          "internalType": "uint256",
          "name": "_disputeId",
          "type": "uint256"
        },
        {
          "internalType": "uint256",
          "name": "_index",
          "type": "uint256"
        }
      ],
      "name": "getEvidence",
      "outputs": [
        {
          "internalType": "string",
          "name": "",
          "type": "string"
        }
      ],
      "stateMutability": "view",
      "type": "function"
    },
    {
      "inputs": [
        {
          "internalType": "uint256",
          "name": "_disputeId",
          "type": "uint256"
        }
      ],
      "name": "getEvidenceCount",
      "outputs": [
        {
          "internalType": "uint256",
          "name": "",
          "type": "uint256"
        }
      ],
      "stateMutability": "view",
      "type": "function"
    },
    {
      "inputs": [
        {
          "internalType": "uint256",
          "name": "_disputeId",
          "type": "uint256"
        }
      ],
      "name": "getSelectedJurors",
      "outputs": [
        {
          "internalType": "address[]",
          "name": "",
          "type": "address[]"
        }
      ],
      "stateMutability": "view",
      "type": "function"
    },
    {
      "inputs": [
        {
          "internalType": "address",
          "name": "",
          "type": "address"
        }
      ],
      "name": "jurors",
      "outputs": [
        {
          "internalType": "bool",
          "name": "isStaked",
          "type": "bool"
        },
        {
          "internalType": "bool",
          "name": "isEligible",
          "type": "bool"
        },
        {
          "internalType": "uint256",
          "name": "stakedAmount",
          "type": "uint256"
        },
        {
          "internalType": "uint256",
          "name": "lockedStake",
          "type": "uint256"
        },
        {
          "internalType": "uint256",
          "name": "casesVoted",
          "type": "uint256"
        },
        {
          "internalType": "uint256",
          "name": "correctVotes",
          "type": "uint256"
        },
        {
          "internalType": "uint256",
          "name": "activeDisputeCount",
          "type": "uint256"
        }
      ],
      "stateMutability": "view",
      "type": "function"
    },
    {
      "inputs": [],
      "name": "marketplace",
      "outputs": [
        {
          "internalType": "address",
          "name": "",
          "type": "address"
        }
      ],
      "stateMutability": "view",
      "type": "function"
    },
    {
      "inputs": [],
      "name": "randomnessOracle",
      "outputs": [
        {
          "internalType": "contract IRandomnessOracle",
          "name": "",
          "type": "address"
        }
      ],
      "stateMutability": "view",
      "type": "function"
    },
    {
      "inputs": [
        {
          "internalType": "uint256",
          "name": "_disputeId",
          "type": "uint256"
        }
      ],
      "name": "retryDisputeRound",
      "outputs": [],
      "stateMutability": "nonpayable",
      "type": "function"
    },
    {
      "inputs": [
        {
          "internalType": "uint256",
          "name": "_disputeId",
          "type": "uint256"
        },
        {
          "internalType": "bool",
          "name": "_voteForClient",
          "type": "bool"
        },
        {
          "internalType": "string",
          "name": "_salt",
          "type": "string"
        }
      ],
      "name": "revealVote",
      "outputs": [],
      "stateMutability": "nonpayable",
      "type": "function"
    },
    {
      "inputs": [
        {
          "internalType": "address",
          "name": "_marketplace",
          "type": "address"
        }
      ],
      "name": "setMarketplace",
      "outputs": [],
      "stateMutability": "nonpayable",
      "type": "function"
    },
    {
      "inputs": [
        {
          "internalType": "address",
          "name": "_oracle",
          "type": "address"
        }
      ],
      "name": "setRandomnessOracle",
      "outputs": [],
      "stateMutability": "nonpayable",
      "type": "function"
    },
    {
      "inputs": [
        {
          "internalType": "address",
          "name": "_treasury",
          "type": "address"
        }
      ],
      "name": "setTreasury",
      "outputs": [],
      "stateMutability": "nonpayable",
      "type": "function"
    },
    {
      "inputs": [
        {
          "internalType": "address",
          "name": "_registry",
          "type": "address"
        }
      ],
      "name": "setWorkerRegistry",
      "outputs": [],
      "stateMutability": "nonpayable",
      "type": "function"
    },
    {
      "inputs": [
        {
          "internalType": "uint256[]",
          "name": "_categoryIds",
          "type": "uint256[]"
        }
      ],
      "name": "stakeAsJuror",
      "outputs": [],
      "stateMutability": "nonpayable",
      "type": "function"
    },
    {
      "inputs": [
        {
          "internalType": "uint256",
          "name": "_disputeId",
          "type": "uint256"
        },
        {
          "internalType": "string",
          "name": "_evidenceHash",
          "type": "string"
        }
      ],
      "name": "submitEvidence",
      "outputs": [],
      "stateMutability": "nonpayable",
      "type": "function"
    },
    {
      "inputs": [],
      "name": "treasury",
      "outputs": [
        {
          "internalType": "address",
          "name": "",
          "type": "address"
        }
      ],
      "stateMutability": "view",
      "type": "function"
    },
    {
      "inputs": [],
      "name": "unstake",
      "outputs": [],
      "stateMutability": "nonpayable",
      "type": "function"
    },
    {
      "inputs": [],
      "name": "usdc",
      "outputs": [
        {
          "internalType": "contract IERC20",
          "name": "",
          "type": "address"
        }
      ],
      "stateMutability": "view",
      "type": "function"
    },
    {
      "inputs": [
        {
          "internalType": "uint256",
          "name": "",
          "type": "uint256"
        }
      ],
      "name": "validCategories",
      "outputs": [
        {
          "internalType": "bool",
          "name": "",
          "type": "bool"
        }
      ],
      "stateMutability": "view",
      "type": "function"
    },
    {
      "inputs": [
        {
          "internalType": "uint256",
          "name": "_amount",
          "type": "uint256"
        }
      ],
      "name": "withdrawRewards",
      "outputs": [],
      "stateMutability": "nonpayable",
      "type": "function"
    },
    {
      "inputs": [],
      "name": "workerRegistry",
      "outputs": [
        {
          "internalType": "contract IWorkerRegistry",
          "name": "",
          "type": "address"
        }
      ],
      "stateMutability": "view",
      "type": "function"
    }
  ],
  "bytecode": "0x60c03461011057601f6153c438819003918201601f19168301916001600160401b038311848410176101155780849260209460405283398101031261011057516001600160a01b0381169081900361011057600160005533608081905273a0b86991c6218b36c1d19d4a2e9eb0ce3606eb4860a052600380546001600160a01b031990811693909317905560028054909216179055604051615298908161012c8239608051818181610a4101528181610d58015281816125c8015281816137f401528181613c3a0152613d21015260a05181818161033d01528181610bb00152818161187b015281816123e401528181612ad401528181612bda015281816132fa015281816137910152613ac30152f35b600080fd5b634e487b7160e01b600052604160045260246000fdfe61020080604052600436101561001457600080fd5b60003560e01c90816303624fc01461439c57508063049869c91461437e5780631ad876e014613e2d5780631b4ee53914613e0f57806322a1f5d614613df3578063276fa69514613d0557806327ddc9c114613c1e5780632def6620146139a55780632e0dcbf7146137c05780633e413bee1461377b578063423aee311461374c5780634d82c6011461323657806350de9b40146131f2578063564a565d14612fd057806356989a83146128e65780635e20b389146128c75780635f2f85b71461289657806361d027b31461286d578063646e6f8b1461272c5780636e9500f3146127105780637280ef69146126e757806373ad6c2d146125ad578063784940c5146125815780637d36f4d31461256357806391e2b67f146125475780639342c8f414612331578063968dcad314611bb1578063987e0836146117845780639da691801461150a5780639f29f13514611044578063a00724ff1461121b578063a6a7f0eb14611072578063abc8c7af14611049578063ac9446f114611044578063ae169a5014610ec2578063babbd16914610e93578063bb09d9b714610e64578063bbe3de0414610e48578063d02b3fba14610d87578063d5f3948814610d42578063dca5f6b014610cbf578063eb4f16b514610b3c578063ec446c0714610b13578063f0f4426014610a25578063f1b8a98c146109d2578063f936a14c146109b4578063fa3fbee8146102545763faf5625f1461023057600080fd5b3461024f57600036600319011261024f5760206040516305f5e1008152f35b600080fd5b3461024f57602036600319011261024f5760043567ffffffffffffffff811161024f573660238201121561024f57806004013561029081614588565b9161029e60405193846143cd565b818352602083016024819360051b8301019136831161024f57602401905b8282106109a4575050506102ce614e10565b33600052600660205260ff6040600020541661096e5781511561092957600a8251116108ee576004546001600160a01b03168015159081610898575b5015610853576040516323b872dd60e01b81523360048201523060248201526305f5e100604482015260208160648160007f00000000000000000000000000000000000000000000000000000000000000006001600160a01b03165af180156108475761038291600091610818575b509291926149d4565b33600052600660205260406000209061010161ffff198354161782556305f5e1006001830155600060028301556000600383015560006004830155600060058301556000906006600784019301915b81518110156107a7576103e481836147ca565b5160005260086020526103fe60ff60406000205416614995565b61040881836147ca565b516000528360205260ff604060002054166107695761042781836147ca565b51600052836020526040600020600160ff1982541617905561045361044c82846147ca565b5184614a18565b61045d81836147ca565b516000908082526005602052604082209160038301923382528360205260408220548015600014610657575060018101805490816105ca57505060028101938454946104ad6305f5e10082614a18565b600186141580610598575b6104f7575b50926305f5e10092600460019796936104f1965b338452602052846040842055848352016020526040339120556005615162565b016103d1565b610502835487614646565b906004840190828652816020526040862054926001890191828a11610584579360049360019b9a979383610552886105456104f19e9b976305f5e1009e9b614691565b90549060031b1c90614a18565b8752816020526000604088205582875283602052806040882055865260205260408520559396509396975050926104bd565b634e487b7160e01b88526011600452602488fd5b5060001986018681116105b65783546105b091614e32565b156104b8565b634e487b7160e01b85526011600452602485fd5b6000198201959186116106435792600486936104f19693866105f460019b9a6305f5e10099614691565b90549060031b1c966000916106098282614691565b8154906000199060031b1b19169055556106268760028501614691565b815460001960039290921b91821b1916908a901b179055506104d1565b634e487b7160e01b84526011600452602484fd5b92949350600291500161066a8282614691565b90549060031b1c6305f5e10003610687575b5050600191506104f1565b6305f5e1006106968383614691565b90549060031b1c111560008160001461071b57506106b48383614691565b90549060031b1c6305f5e10003926305f5e1008411610705576001956106de826106fe9695614691565b81549060031b906305f5e100821b91600019901b191617905560056151c9565b868061067c565b634e487b7160e01b600052601160045260246000fd5b61072a84849697939594614691565b90549060031b1c906305f5e0ff1982019182116107555750916106fe93916106de8260019897614691565b634e487b7160e01b81526011600452602490fd5b60405162461bcd60e51b815260206004820152601660248201527510d85d1959dbdc9e48185b1c9958591e48185919195960521b6044820152606490fd5b84826040519060408201906305f5e1008352604060208401525180915260608201929060005b81811061080257337f7002ae6aacf6bb5cb9416d902940414cc918feb48bd0b29cdd6d5d987a23256885870386a26001600055005b82518552602094850194909201916001016107cd565b61083a915060203d602011610840575b61083281836143cd565b8101906147de565b84610379565b503d610828565b6040513d6000823e3d90fd5b60405162461bcd60e51b815260206004820152601960248201527f4d757374206265207265676973746572656420776f726b6572000000000000006044820152606490fd5b604051633b093fb760e01b81523360048201529150602090829060249082905afa908115610847576000916108cf575b508361030a565b6108e8915060203d6020116108405761083281836143cd565b836108c8565b60405162461bcd60e51b8152602060048201526013602482015272546f6f206d616e792063617465676f7269657360681b6044820152606490fd5b60405162461bcd60e51b815260206004820152601760248201527f4d75737420737065636966792063617465676f726965730000000000000000006044820152606490fd5b60405162461bcd60e51b815260206004820152600e60248201526d105b1c9958591e481cdd185ad95960921b6044820152606490fd5b81358152602091820191016102bc565b3461024f57600036600319011261024f5760206040516202a3008152f35b3461024f57604036600319011261024f576004356000526007602052610a21610a0d610a076024356019604060002001614691565b50614480565b604051918291602083526020830190614547565b0390f35b3461024f57602036600319011261024f57610a3e6143b7565b337f00000000000000000000000000000000000000000000000000000000000000006001600160a01b0316148015610ae6575b610a7a90614754565b6001600160a01b03168015610aa1576001600160601b0360a01b6002541617600255600080f35b60405162461bcd60e51b815260206004820152601860248201527f496e76616c6964207472656173757279206164647265737300000000000000006044820152606490fd5b50600154610a7a906001600160a01b03168015159081610b09575b509050610a71565b9050331483610b01565b3461024f57600036600319011261024f576004546040516001600160a01b039091168152602090f35b3461024f57602036600319011261024f57600435610b58614e10565b3360005260066020526040600020610b7360ff825416614791565b610b7e821515614949565b6040516323b872dd60e01b81523360048201523060248201526044810183905260208160648160006001600160a01b037f0000000000000000000000000000000000000000000000000000000000000000165af1801561084757610bea91600091610ca0575b506149d4565b6001810190610bfa838354614639565b80835581549060ff8260081c16159081610c91575b50610c59575b5050610c2033614ab7565b5460405191825260208201527fd8e2da98367639ff6f52330905018cade405c9fbd54eb9c34001000b81539b8f60403392a26001600055005b61ff001916610100179055337fc4eb624ed461b92f6ab937b2548f4382e29a117640c0c0b50e41302c45142e08600080a28280610c15565b90506002830154111585610c0f565b610cb9915060203d6020116108405761083281836143cd565b84610be4565b3461024f57602036600319011261024f576001600160a01b03610ce06143b7565b16600052600660205260e060406000208054906001810154906002810154600382015490600560048401549301549360ff604051968181161515885260081c161515602087015260408601526060850152608084015260a083015260c0820152f35b3461024f57600036600319011261024f576040517f00000000000000000000000000000000000000000000000000000000000000006001600160a01b03168152602090f35b3461024f57602036600319011261024f576004356000526007602052600c6040600020016040518060208354918281520190819360005260206000209060005b818110610e295750505081610ddd9103826143cd565b6040519182916020830190602084525180915260408301919060005b818110610e07575050500390f35b82516001600160a01b0316845285945060209384019390920191600101610df9565b82546001600160a01b0316845260209093019260019283019201610dc7565b3461024f57600036600319011261024f57602060405160028152f35b3461024f57600036600319011261024f57602060405173a0b86991c6218b36c1d19d4a2e9eb0ce3606eb488152f35b3461024f57602036600319011261024f5760043560005260076020526020601e60406000200154604051908152f35b3461024f57602036600319011261024f57600435610ede614e10565b806000526007602052604060002060ff600682015460081c161561100857601e810154421115610fc357336000908152601191909101602052604090205460ff16610f8c5733600090815260066020908152604080832084845260080190915290205460ff1615610f5957610f5290614ee1565b6001600055005b60405162461bcd60e51b815260206004820152600b60248201526a2737ba103090353ab937b960a91b6044820152606490fd5b60405162461bcd60e51b815260206004820152600f60248201526e105b1c9958591e4818db185a5b5959608a1b6044820152606490fd5b60405162461bcd60e51b815260206004820152601760248201527f41707065616c20706572696f64206e6f7420656e6465640000000000000000006044820152606490fd5b60405162461bcd60e51b8152602060048201526014602482015273111a5cdc1d5d19481b9bdd081c995cdbdb1d995960621b6044820152606490fd5b61456c565b3461024f57600036600319011261024f576001546040516001600160a01b039091168152602090f35b3461024f57604036600319011261024f5760043560243567ffffffffffffffff811161024f576110a69036906004016143ef565b9080600052600760205260406000206110c560ff6006830154166145a0565b60028101546001600160a01b031633148015611205575b156111c057601b810154421015611184576019018054600160401b81101561116e5761110d91600182018155614691565b611158578261111b916147f6565b7fa49e7517d2b5714f7812f718444c5a2931d4fc670ed2d2aa2426ff2f42c5b44d604051602081528061115333956020830190614547565b0390a3005b634e487b7160e01b600052600060045260246000fd5b634e487b7160e01b600052604160045260246000fd5b60405162461bcd60e51b815260206004820152601460248201527322bb34b232b731b2903832b934b7b21037bb32b960611b6044820152606490fd5b60405162461bcd60e51b815260206004820152601760248201527f4f6e6c7920706172746965732063616e207375626d69740000000000000000006044820152606490fd5b5060038101546001600160a01b031633146110dc565b3461024f57606036600319011261024f57600435602435908115159182810361024f5760443567ffffffffffffffff811161024f5761125e9036906004016143ef565b9082600052600760205260406000209161127e60ff6006850154166145a0565b601c83015442106114c557601d83015442101561148b57336000908152600e8401602052604090205460ff161561145457600f83019060018060a01b0333166000528160205260ff6040600020541661141c57604051611314601460218360208101958b60f81b87526112fa8151809260208686019101614524565b81013360601b838201520301600b198101845201826143cd565b519020336000908152600d85016020526040902054036113e757336000908152602091825260408082208054600160ff1991821617909155601086019093529020805490911660ff83151516179055600b820161137181546146f9565b9055156113d35760070161138581546146f9565b90555b33600052600660205260036040600020016113a381546146f9565b90556040519182527f943b1e1e6ea36d3a013c9f482eb56e6fec8904129c7ed1869bcfe1f04727cd4c60203393a3005b6008016113e081546146f9565b9055611388565b60405162461bcd60e51b815260206004820152600d60248201526c090c2e6d040dad2e6dac2e8c6d609b1b6044820152606490fd5b60405162461bcd60e51b815260206004820152601060248201526f105b1c9958591e481c995d99585b195960821b6044820152606490fd5b60405162461bcd60e51b815260206004820152600f60248201526e139bc818dbdb5b5a5d08199bdd5b99608a1b6044820152606490fd5b60405162461bcd60e51b81526020600482015260126024820152712932bb32b0b6103832b934b7b21037bb32b960711b6044820152606490fd5b60405162461bcd60e51b815260206004820152601960248201527f52657665616c20706572696f64206e6f742073746172746564000000000000006044820152606490fd5b3461024f57604036600319011261024f57600435806000526007602052604060002061153c60ff6006830154166145a0565b60ff60208201541661173f57601b81015442106116fa57601c8101544210156116c057600e81019060018060a01b0333166000528160205260ff604060002054166116875733600090815260066020908152604080832086845260080190915290205460ff161561164d5733600052600660205260ff604060002054161561161357336000818152600d92909201602090815260408084206024359055939052918120805460ff191660011790559091907f3834a2c8ea101e1468b529270d35fbff0a12de32a5a7e5729b8b4dad6fb32c019080a3005b60405162461bcd60e51b81526020600482015260126024820152712737ba10309039ba30b5b2b210353ab937b960711b6044820152606490fd5b60405162461bcd60e51b81526020600482015260126024820152712737ba1039b2b632b1ba32b210353ab937b960711b6044820152606490fd5b60405162461bcd60e51b8152602060048201526011602482015270105b1c9958591e4818dbdb5b5a5d1d1959607a1b6044820152606490fd5b60405162461bcd60e51b815260206004820152601260248201527121b7b6b6b4ba103832b934b7b21037bb32b960711b6044820152606490fd5b60405162461bcd60e51b815260206004820152601960248201527f45766964656e636520706572696f64206e6f7420656e646564000000000000006044820152606490fd5b60405162461bcd60e51b815260206004820152601d60248201527f4a75726f722073656c656374696f6e206e6f7420636f6d706c657465640000006044820152606490fd5b3461024f5760a036600319011261024f576004356024356001600160a01b038116810361024f57604435906001600160a01b038216820361024f5760015460643592906001600160a01b031633819003611b79578360005260086020526117f260ff60406000205416614995565b83600052600560205260016002604060002001541115611b3c57836000526005602052630393870061182a6002604060002001614666565b90549060031b1c10611af75760035461184d906001600160a01b03161515614708565b6040516323b872dd60e01b8152600481019190915230602482015262989680604482015260208160648160007f00000000000000000000000000000000000000000000000000000000000000006001600160a01b03165af190811561084757600091611ad8575b5015611a93576118c5600a546146f9565b9182600a558260005260076020526040600020928355846001840155600283019060018060a01b03166001600160601b0360a01b825416179055600382019060018060a01b03166001600160601b0360a01b825416179055816004820155608435600582015560068101600160ff198254161790556003600982015562989680601482015542601a8201556202a3004201908142116107055781601b8201556000620697804201808411611a7f57601c83015550620a8c00420180921161070557600091601d820155602060018060a01b036003541660046040518095819363f8413b0760e01b83525af191821561084757600092611a28575b602060008051602061524383398151915286827f8092765f946b732cf44a3a396fe2854f71320d246c46d0f03ccb563fcbcc920e818989828a82601f82015501600160ff19825416179055600a549687958692604051908152a2604051908152a3604051908152f35b90916020823d602011611a77575b81611a43602093836143cd565b81010312611a74575051907f8092765f946b732cf44a3a396fe2854f71320d246c46d0f03ccb563fcbcc920e6119bf565b80fd5b3d9150611a36565b634e487b7160e01b82526011600452602482fd5b60405162461bcd60e51b815260206004820152601f60248201527f4172626974726174696f6e20666565207472616e73666572206661696c6564006044820152606490fd5b611af1915060203d6020116108405761083281836143cd565b856118b4565b60405162461bcd60e51b815260206004820152601a60248201527f4e6f7420656e6f75676820617661696c61626c65207374616b650000000000006044820152606490fd5b60405162461bcd60e51b81526020600482015260156024820152744e6f206a75726f727320696e2063617465676f727960581b6044820152606490fd5b60405162461bcd60e51b815260206004820152601060248201526f4f6e6c79206d61726b6574706c61636560801b6044820152606490fd5b3461024f57602036600319011261024f57611bca614e10565b6004356000526007602052604060002060ff602082015416156122f4576001546001600160a01b0316331480156122de575b80156122c8575b611c0c90614754565b600354601f82015460405163bd5901a160e01b8152600481018290526001600160a01b039092169291602081602481875afa908115610847576000916122a9575b501561226d5760209060246040518095819363cb923ccd60e01b835260048301525afa91821561084757600092612239575b5060098101546004356000526007602052604060002091600483015490611cb66015611caf85600c880154614639565b11156148f7565b816000526005602052611ccf6002604060002001614666565b90549060031b1c80156121fd57611ce584614588565b93611cf360405195866143cd565b808552601f19611d0282614588565b0136602087013760009692879180600a810204600a14811517156121e95794969295919790975b858210806121dd575b1561211957611d40906146f9565b97866040516020810190878252846040820152600435606082015260608152611d6a6080826143cd565b51902090611d7791614e32565b908860005260056020526040600020998a99600098899460028d01611d9b90614666565b90549060031b1c611dab91614e32565b9a8c546002819f015496611dbe91614626565b6001810180911161070557861115611e4b578d60018e5b82821115611dea575b50508b611dbe91614626565b909d611e008f8f611dfb9086614626565b614639565b90611e0e8260028501614691565b905460039190911b1c91828210611e395750611e3391611e2d916146a9565b9e6146f9565b90611dd5565b909f509d50611dbe91508f9050611dde565b9450949a9198909596979b5060049299506000520160205260018060a01b03604060002054169788600052600660205260ff604060002054161580156120fd575b80156120cb575b61208357600089815260066020526040902060018101546002909101546301312d0091611ec091906146a9565b1061208357600c860154600160401b81101561116e57806001611eec9201600c890155600c8801614691565b81549060031b908b821b9160018060a01b03901b19161790558860005260066020526001604060002001546040600060018060a01b038c16815260128901602052205588600052600660205260086040600020016004356000526020526040600020600160ff1982541617905588600052600660205260026040600020019081546301312d00810180911161070557611fae92558960005260066020526005604060002001611f9b81546146f9565b905589611fa882886147ca565b526146f9565b9560005b896000526006602052600660406000200154811015611ffe576001908a6000526006602052611ff88b611fec836006604060002001614691565b90549060031b1c614e3c565b01611fb2565b5092959890939691949761207161206391604051928184926004357f6a547857424ddf8f94427bf9c458627075464dcf7326c192e44abf6aea499fb4600080a36020830195865260601b6bffffffffffffffffffffffff191660408301526054820190565b03601f1981018352826143cd565b519020935b9496929591979097611d29565b60408051602081019b8c5260609a909a1b6bffffffffffffffffffffffff1916908a015298949793969295919490939192916120c28160548101612063565b51902093612076565b506001600160a01b0389166000908152600660209081526040808320600435845260080190915290205460ff16611e93565b5088600052600660205260ff60406000205460081c1615611e8c565b5087918582036121985760005b828110612173576020808501805460ff191690556009850154604051908152600435917f938fbf5e4e3926ba077f07d75dbeaca4610c2c70653fb158a9f477a7240a4e5891a26001600055005b6001906121926001600160a01b0361218b83866147ca565b5116614ab7565b01612126565b60405162461bcd60e51b815260206004820152601e60248201527f436f756c64206e6f742073656c65637420656e6f756768206a75726f727300006044820152606490fd5b50600a86028110611d32565b634e487b7160e01b89526011600452602489fd5b60405162461bcd60e51b81526020600482015260146024820152734e6f207374616b6520696e2063617465676f727960601b6044820152606490fd5b9091506020813d602011612265575b81612255602093836143cd565b8101031261024f57519082611c7f565b3d9150612248565b60405162461bcd60e51b815260206004820152601460248201527352616e646f6d6e657373206e6f7420726561647960601b6044820152606490fd5b6122c2915060203d6020116108405761083281836143cd565b84611c4d565b5060038101546001600160a01b03163314611c03565b5060028101546001600160a01b03163314611bfc565b60405162461bcd60e51b815260206004820152601560248201527453656c656374696f6e206e6f742070656e64696e6760581b6044820152606490fd5b3461024f57602036600319011261024f5760043561234d614e10565b336000526006602052604060002061236860ff825416614791565b612373821515614949565b6001810190815490600261238785846146a9565b910154116124f7576305f5e10061239e84836146a9565b106124b257826123ad916146a9565b90556123b833614ab7565b60405163a9059cbb60e01b81523360048201526024810182905260208160448160006001600160a01b037f0000000000000000000000000000000000000000000000000000000000000000165af190811561084757600091612493575b501561244e576040519081527f5c45795390227bad14c589be94b394e53ebea956c951f46a6718ca861ec97ffb60203392a26001600055005b60405162461bcd60e51b815260206004820152601a60248201527f5769746864726177616c207472616e73666572206661696c65640000000000006044820152606490fd5b6124ac915060203d6020116108405761083281836143cd565b82612415565b60405162461bcd60e51b815260206004820152601b60248201527f4d757374206d61696e7461696e206d696e696d756d207374616b6500000000006044820152606490fd5b60405162461bcd60e51b815260206004820152602260248201527f43616e6e6f742077697468647261772062656c6f77206c6f636b6564207374616044820152616b6560f01b6064820152608490fd5b3461024f57600036600319011261024f57602060405160158152f35b3461024f57600036600319011261024f576020600a54604051908152f35b3461024f57602036600319011261024f576004356000526009602052610a21610a0d6040600020614480565b3461024f57602036600319011261024f576125c66143b7565b7f00000000000000000000000000000000000000000000000000000000000000006001600160a01b031633036126b257600154906001600160a01b03821661266d576001600160a01b0316908115612628576001600160a01b03191617600155005b60405162461bcd60e51b815260206004820152601b60248201527f496e76616c6964206d61726b6574706c616365206164647265737300000000006044820152606490fd5b60405162461bcd60e51b815260206004820152601760248201527f4d61726b6574706c61636520616c7265616479207365740000000000000000006044820152606490fd5b60405162461bcd60e51b815260206004820152600d60248201526c27b7363c903232b83637bcb2b960991b6044820152606490fd5b3461024f57600036600319011261024f576003546040516001600160a01b039091168152602090f35b3461024f57600036600319011261024f57602060405160038152f35b3461024f57602036600319011261024f5760043567ffffffffffffffff811161024f573660238201121561024f57806004013567ffffffffffffffff811161024f576024820191602436918360051b01011161024f5761278a614e10565b601481116128285733919060005b8181106127a6576001600055005b806127b46001928486614939565b356000526007602052604060002060ff6040600088815260118401602052205416159081612816575b81612808575b506127ef575b01612798565b6128036127fd828587614939565b35614ee1565b6127e9565b601e915001544211866127e3565b600681015460081c60ff1691506127dd565b60405162461bcd60e51b815260206004820152601760248201527f546f6f206d616e7920636c61696d73206174206f6e63650000000000000000006044820152606490fd5b3461024f57600036600319011261024f576002546040516001600160a01b039091168152602090f35b3461024f57602036600319011261024f576004356000526008602052602060ff604060002054166040519015158152f35b3461024f57600036600319011261024f5760206040516301312d008152f35b3461024f57602036600319011261024f57600435806000526007602052612927601d604060002061291d60ff6006830154166145a0565b01544210156145e1565b8060005260076020526040600020600c81015460438102908082046043149015171561070557606381018091116107055760649004600b82015410612f7757600781019081549060088101908154808414612f32576006820161010061ffff198254161790556203f480420190814211610705576129bc91601e840155601783019411849060ff801983541691151516179055565b825460ff1615612f2a578354935b856000526007602052604060002092600093600c810180549060006012840191600f8501915b848110612d145750505050505083601584015560ff855416600014612d0b575054915b612a2860168301918483556014840154614639565b9215612b9157612a5592916018612a4f925491612a458386614646565b9182910155614626565b906146a9565b80151580612b7d575b612a9e575b507f5add0b1fc2a3dfd95be33d1d5feb6709087e50213b7a73c3c3b2c387001221e79160ff6040925b541690825191151582526020820152a2005b60025460405163a9059cbb60e01b81526001600160a01b03909116600482015260248101919091526020818060448101038160007f00000000000000000000000000000000000000000000000000000000000000006001600160a01b03165af190811561084757600091612b5e575b5015612b195783612a63565b60405162461bcd60e51b815260206004820152601d60248201527f54726561737572792064757374207472616e73666572206661696c65640000006044820152606490fd5b612b77915060203d6020116108405761083281836143cd565b84612b0d565b506002546001600160a01b03161515612a5e565b50506002549092906001600160a01b03168015612cd35760405163a9059cbb60e01b81526001600160a01b039091166004820152602481018490526020818060448101038160007f00000000000000000000000000000000000000000000000000000000000000006001600160a01b03165af190811561084757600091612cb4575b5015612c6f5760ff604092857fbec1a08e6dcd95f4cbb560bf9010af9efaf4b5b424d78d43652646cdc7726ec860207f5add0b1fc2a3dfd95be33d1d5feb6709087e50213b7a73c3c3b2c387001221e7978751908152a2612a8c565b60405162461bcd60e51b815260206004820152601860248201527f5472656173757279207472616e73666572206661696c656400000000000000006044820152606490fd5b612ccd915060203d6020116108405761083281836143cd565b85612c13565b60405162461bcd60e51b815260206004820152601060248201526f151c99585cdd5c9e481b9bdd081cd95d60821b6044820152606490fd5b90505491612a13565b612d1e8183614691565b905460039190911b1c6001600160a01b031660008181526020868152604080832054918790529091205460ff16612e1f57600a810290808204600a14901517156107055760648f91049b8260005260066020526001604060002001548d11612e06575b907fcb678bc243071267b4fb840c654935aa7f2bd7bc0902c724d84ecc04674654396080612dcc8f60019796958160408f60136000918d8060a01b038c168352016020522055614639565b9e6040519081526040602082015260146040820152734e6f6e2d72657665616c202870656e64696e672960601b6060820152a35b016129f0565b6000838152600660205260409020600101549c50612d81565b6001600160a01b0382166000908152601089016020526040902054601789015460ff90811615159116151503612e5a575b5050600190612e00565b600a810290808204600a14901517156107055760648f91049b8260005260066020526001604060002001548d11612f11575b907fcb678bc243071267b4fb840c654935aa7f2bd7bc0902c724d84ecc04674654396080612ed78f60019796958160408f60136000918d8060a01b038c168352016020522055614639565b9e60405190815260406020820152601460408201527357726f6e6720766f7465202870656e64696e672960601b6060820152a3908e612e50565b6000838152600660205260409020600101549c50612e8c565b8154936129ca565b60405162461bcd60e51b815260206004820152601f60248201527f54696520766f74652c2075736520726574727944697370757465526f756e64006044820152606490fd5b60405162461bcd60e51b815260206004820152602b60248201527f496e73756666696369656e742072657665616c732c207573652072657472794460448201526a1a5cdc1d5d19549bdd5b9960aa1b6064820152608490fd5b3461024f57602036600319011261024f57600435600052600760205260406000206101e0526101e0515460016101e05101546101005260018060a01b0360026101e0510154166101405260018060a01b0360036101e05101541660046101e051015460056101e051015460066101e051015460076101e051015460086101e051015460096101e051015490600a6101e05101549260ff600b6101e05101549560146101e05101549760156101e05101549960166101e05101549b8460176101e0510154169d60186101e0510154608052601a6101e051015460c052601b6101e05101546101c052601c6101e05101546101a052601d6101e051015461018052601e6101e051015461016052601f6101e0510154610120528560206101e05101541660e05260405160a05260a0515261010051602060a051015261014051604060a0510152606060a0510152608060a051015260a080510152818116151560c060a051015260081c16151560e060a051015261010060a051015261012060a051015261014060a051015261016060a051015261018060a05101526101a060a05101526101c060a05101526101e060a0510152151561020060a051015260805161022060a051015260c05161024060a05101526101c05161026060a05101526101a05161028060a0510152610180516102a060a0510152610160516102c060a0510152610120516102e060a051015260e051151561030060a051015261032060a051f35b3461024f57602036600319011261024f57600435600052600760205260408060002060ff601781600684015460081c16920154168251911515825215156020820152f35b3461024f57602036600319011261024f576004356000526007602052604060002060ff600682015460081c161561370757601e81015442116136ca5760028101546001600160a01b0316331480156136b4575b1561366f576009810154600281018111610705576132ad60156002830111156148f7565b600281016298968002906298968082046002820103610705576040516323b872dd60e01b815233600482015230602482015260038304604482015260208160648160006001600160a01b037f0000000000000000000000000000000000000000000000000000000000000000165af190811561084757600091613650575b501561360b57600c830154600d840190600e85016012860160138701600f88016011890160005b8681106134fa578a8a60028b613376600c8501546000600c870155600c86016146da565b600161ffff1960068601541617600685015560006007850155600060088501556000600b850155600a84016133ab81546146f9565b90550160098301556133c560036014840192048254614639565b90556000601582015560006016820155600060188201556202a3004201908142116107055781601b8201556000620697804201808411611a7f57601c83015550620a8c00420180921161070557600091601d82015581601e820155602060018060a01b0360035416613438811515614708565b60046040518095819363f8413b0760e01b83525af1918215610847576000926134c3575b5081600992601f83015560208201600160ff19825416179055604051908152600080516020615243833981519152602060043592a201546040519081527fead0487c02d0f095e1fe74850663019ec16cf3263590f00977b0ef944af0249e602060043592a2005b6020813d6020116134f2575b816134dc602093836143cd565b810103126134ee57519150600961345c565b8280fd5b3d91506134cf565b61350781600c8d01614691565b60018060a01b0391549060031b1c1690816000526006602052600560406000200161353281546146b6565b9055816000526006602052600260406000200180546301312cff1981019081116107055760019360408f6000828f81968398558583526006602052600882842001600435845260205281832060ff19815416905561358f86614ab7565b60a08a901b8a9003959095168083526020958652908220919091558086528c8452828620805460ff199081169091558187528a8552838720805482169055818752601092909201845291852080548216905581855287835283852080549091169055808452898252828420849055835287905281205501613352565b60405162461bcd60e51b815260206004820152601a60248201527f41707065616c20666565207472616e73666572206661696c65640000000000006044820152606490fd5b613669915060203d6020116108405761083281836143cd565b8461332b565b60405162461bcd60e51b815260206004820152601760248201527f4f6e6c7920706172746965732063616e2061707065616c0000000000000000006044820152606490fd5b5060038101546001600160a01b03163314613289565b60405162461bcd60e51b8152602060048201526015602482015274105c1c19585b081c195c9a5bd908195e1c1a5c9959605a1b6044820152606490fd5b60405162461bcd60e51b815260206004820152601860248201527f44697370757465206e6f74207265736f6c7665642079657400000000000000006044820152606490fd5b3461024f57602036600319011261024f5760043560005260076020526020601960406000200154604051908152f35b3461024f57600036600319011261024f576040517f00000000000000000000000000000000000000000000000000000000000000006001600160a01b03168152602090f35b3461024f57602036600319011261024f5760043567ffffffffffffffff811161024f576137f19036906004016143ef565b337f00000000000000000000000000000000000000000000000000000000000000006001600160a01b0316148015613978575b61382d90614754565b80511561393a5761383f600b546146f9565b80600b5560005260086020526040600020600160ff19825416179055600b5460005260096020526138748160406000206147f6565b600b546000526005602052604060002080546138fe57600581556002018054600160401b81101561116e576138ae91600182018155614691565b8154906000199060031b1b191690557f5bae3f75753ef0a1c0ea0f6c51d7b43a4b8d116572b8b7b5cb771f9ad32d4ae56138f9600b5492604051918291602083526020830190614547565b0390a2005b60405162461bcd60e51b81526020600482015260146024820152732a3932b29030b63932b0b23c9032bc34b9ba399760611b6044820152606490fd5b60405162461bcd60e51b815260206004820152601660248201527510d85d1959dbdc9e481b985b59481c995c5d5a5c995960521b6044820152606490fd5b5060015461382d906001600160a01b0316801515908161399b575b509050613824565b9050331483613993565b3461024f57600036600319011261024f576139be614e10565b33600052600660205260406000206139d960ff825416614791565b6005810154613be4576002810154613baa57600660018201549101906040518083602082955493848152019060005260206000209260005b818110613b91575050613a26925003836143cd565b60005b8251811015613a4f57600190613a4933613a4383876147ca565b51614e3c565b01613a29565b50336000526006602052613a976006604060002060008155600060018201556000600282015560006003820155600060048201556000600582015501805490600081556146da565b60405163a9059cbb60e01b81523360048201526024810182905260208160448160006001600160a01b037f0000000000000000000000000000000000000000000000000000000000000000165af190811561084757600091613b72575b5015613b2d576040519081527f610a1d949cc1ca7d4391b2530deda84f33b5f02dbd462643f21cd8a1b3cd573f60203392a26001600055005b60405162461bcd60e51b815260206004820152601760248201527f556e7374616b65207472616e73666572206661696c65640000000000000000006044820152606490fd5b613b8b915060203d6020116108405761083281836143cd565b82613af4565b8454835260019485019487945060209093019201613a11565b60405162461bcd60e51b815260206004820152601260248201527114dd185ad9481cdd1a5b1b081b1bd8dad95960721b6044820152606490fd5b60405162461bcd60e51b815260206004820152601260248201527141637469766520696e20646973707574657360701b6044820152606490fd5b3461024f57602036600319011261024f57613c376143b7565b337f00000000000000000000000000000000000000000000000000000000000000006001600160a01b0316148015613cd8575b613c7390614754565b6001600160a01b03168015613c9a576001600160601b0360a01b6003541617600355600080f35b60405162461bcd60e51b8152602060048201526016602482015275496e76616c6964206f7261636c65206164647265737360501b6044820152606490fd5b50600154613c73906001600160a01b03168015159081613cfb575b509050613c6a565b9050331483613cf3565b3461024f57602036600319011261024f57613d1e6143b7565b337f00000000000000000000000000000000000000000000000000000000000000006001600160a01b0316148015613dc6575b613d5a90614754565b6001600160a01b03168015613d81576001600160601b0360a01b6004541617600455600080f35b60405162461bcd60e51b815260206004820152601860248201527f496e76616c6964207265676973747279206164647265737300000000000000006044820152606490fd5b50600154613d5a906001600160a01b03168015159081613de9575b509050613d51565b9050331483613de1565b3461024f57600036600319011261024f57602060405160438152f35b3461024f57600036600319011261024f5760206040516203f4808152f35b3461024f57602036600319011261024f576004358060005260076020526040600020613e5f60ff6006830154166145a0565b601d8101613e7081544210156145e1565b600c8201805492604384029380850460431490151715610705576063840180941161070557600b8101916064835495048510600783019485549660088501978854149081614374575b508290831561436c575b501561431b57600096959694600096600f8601975b855481101561408457613eeb8187614691565b905460039190911b1c6001600160a01b0316600081815260208b9052604090205490919060ff1615613f91575b8160005260066020526005604060002001613f3381546146b6565b905581600052600660205260026040600020018054926301312cff19840193841161070557600193613f8b92558060005260066020528d600860406000200190600052602052604060002060ff198154169055614ab7565b01613ed8565b6040600060018060a01b038416815260128a016020522054600a810290808204600a14901517156107055760648d9104998360005260066020526001604060002001548b11614068575b907fcb678bc243071267b4fb840c654935aa7f2bd7bc0902c724d84ecc046746543960806140288d879586600052600660205260016040600020016140218382546146a9565b9055614639565b9c61403285614a55565b6040519081526040602082015260136040820152724e6f6e2d72657665616c20696e20726574727960681b6060820152a3613f18565b6000848152600660205260409020600101549a508d9150613fdb565b50888a9695898961409a60148a01918254614639565b9055815490600d89019060138a019060128b019060118c019060108d0190600e8e0160005b88811061428d57505050505050505050916000809493926140e682948054908481556146da565b555555600a83016140f781546146f9565b90556009830154926202a30042018042116107055780601b8301556000620697804201808311611a7f57601c84015550620a8c0042018091116107055760009255602060018060a01b0360035416614150811515614708565b60046040518095819363f8413b0760e01b83525af1908115610847578592600092614248575b509160008051602061524383398151915260208381866142139896601f7f256a43f43adf3828ceb17cab8dbda302b4497c779928ade71a7c58d87fcbd35a9b99015501600160ff19825416179055604051908152a26000901561421e57506040516141e26040826143cd565b600e81526d145d5bdc9d5b481b9bdd081b595d60921b6020820152905b604051928392604084526040840190614547565b9060208301520390a2005b5060405161422d6040826143cd565b600881526754696520766f746560c01b6020820152906141ff565b919092506020823d602011614285575b81614265602093836143cd565b81010312611a745750518491600080516020615243833981519152614176565b3d9150614258565b806000604061429e6001948e614691565b905460039190911b1c60a085901b8590031680835260208c8152828420849055818452868152828420805460ff199081169091558285528882528385208054821690558285528982528385208054821690558285528a8252838520805490911690558184528a81528284208490559083528a9052812055016140bf565b60405162461bcd60e51b815260206004820152602360248201527f526f756e642069732076616c69642c207573652066696e616c697a654469737060448201526275746560e81b6064820152608490fd5b905089613ec3565b9050151589613eb9565b3461024f57600036600319011261024f576020604051629896808152f35b3461024f57600036600319011261024f57602090600b548152f35b600435906001600160a01b038216820361024f57565b90601f8019910116810190811067ffffffffffffffff82111761116e57604052565b81601f8201121561024f5780359067ffffffffffffffff821161116e5760405192614424601f8401601f1916602001856143cd565b8284526020838301011161024f57816000926020809301838601378301015290565b90600182811c92168015614476575b602083101461446057565b634e487b7160e01b600052602260045260246000fd5b91607f1691614455565b906040519182600082549261449484614446565b808452936001811690811561450257506001146144bb575b506144b9925003836143cd565b565b90506000929192526020600020906000915b8183106144e65750509060206144b992820101386144ac565b60209193508060019154838589010152019101909184926144cd565b9050602092506144b994915060ff191682840152151560051b820101386144ac565b60005b8381106145375750506000910152565b8181015183820152602001614527565b9060209161456081518092818552858086019101614524565b601f01601f1916010190565b3461024f57600036600319011261024f576020604051600a8152f35b67ffffffffffffffff811161116e5760051b60200190565b156145a757565b60405162461bcd60e51b815260206004820152601260248201527144697370757465206e6f742061637469766560701b6044820152606490fd5b156145e857565b60405162461bcd60e51b81526020600482015260166024820152752932bb32b0b6103832b934b7b2103737ba1037bb32b960511b6044820152606490fd5b8181029291811591840414171561070557565b9190820180921161070557565b8115614650570490565b634e487b7160e01b600052601260045260246000fd5b80541561467b57600052602060002090600090565b634e487b7160e01b600052603260045260246000fd5b805482101561467b5760005260206000200190600090565b9190820391821161070557565b8015610705576000190190565b8181106146ce575050565b600081556001016146c3565b90806146e4575050565b6144b9916000526020600020908101906146c3565b60001981146107055760010190565b1561470f57565b60405162461bcd60e51b815260206004820152601f60248201527f52616e646f6d6e657373206f7261636c65206e6f7420617661696c61626c65006044820152606490fd5b1561475b57565b60405162461bcd60e51b815260206004820152600e60248201526d139bdd08185d5d1a1bdc9a5e995960921b6044820152606490fd5b1561479857565b60405162461bcd60e51b815260206004820152600a602482015269139bdd081cdd185ad95960b21b6044820152606490fd5b805182101561467b5760209160051b010190565b9081602091031261024f5751801515810361024f5790565b919091825167ffffffffffffffff811161116e576148148254614446565b601f81116148ba575b506020601f8211600114614858578192939460009261484d575b50508160011b916000199060031b1c1916179055565b015190503880614837565b601f1982169083600052806000209160005b8181106148a257509583600195969710614889575b505050811b019055565b015160001960f88460031b161c1916905538808061487f565b9192602060018192868b01518155019401920161486a565b6148e790836000526020600020601f840160051c810191602085106148ed575b601f0160051c01906146c3565b3861481d565b90915081906148da565b156148fe57565b60405162461bcd60e51b815260206004820152601360248201527213585e081a9d5c9bdc9cc8195e18d959591959606a1b6044820152606490fd5b919081101561467b5760051b0190565b1561495057565b60405162461bcd60e51b815260206004820152601760248201527f416d6f756e74206d75737420626520706f7369746976650000000000000000006044820152606490fd5b1561499c57565b60405162461bcd60e51b815260206004820152601060248201526f496e76616c69642063617465676f727960801b6044820152606490fd5b156149db57565b60405162461bcd60e51b815260206004820152601560248201527414dd185ad9481d1c985b9cd9995c8819985a5b1959605a1b6044820152606490fd5b805490600160401b82101561116e5781614a3a916001614a5194018155614691565b819391549060031b91821b91600019901b19161790565b9055565b6001600160a01b031660008181526006602052604090206001810154600282015411614a7f575050565b805461ff001916815590919060060160005b8154811015614ab15780614aab85611fec60019486614691565b01614a91565b50509050565b6001600160a01b0316600081815260066020526040902080549192909160ff811615614e0a5760081c60ff1615614e055760018201546002830154600091818110614dfc57614b0692506146a9565b90915b60060160005b8154811015614df557614b228183614691565b90549060031b1c9081600052600560205283604060002092600384019088600052816020526040600020548015600014614cdb575082614b6b575b505050600191505b01614b0f565b6001850180549081614c775750506002850191825492614b8b8582614a18565b600184141580614c55575b614bd5575b50906004600196614bcd9594935b8c600052602052836040600020558360005201602052896040600020556005615162565b833880614b5d565b9291909350614be5865483614646565b926004870196846000528760205260406000205495600185019687861161070557600199614bcd9888614c208f9a9761054560049982614691565b600052816020526000604081205582600052836020528060406000205560005260205260406000205592939495509650614b9b565b506000198401945083851161070557614c718995885490614e32565b15614b96565b600019820196945091908611610705576004614bcd94899488614c9c60019a87614691565b90549060031b1c956000614cb08383614691565b8192915491506000199060031b1b191690555585614cd4614a3a8760028601614691565b9055614ba9565b906001959315600014614d52576004846002614d4d960194614d0e85614d018189614691565b90549060031b1c97614691565b8154906000199060031b1b19169055614d29858a8401614a18565b8c600052602052600060408120558360005201602052600060408120556005615107565b614b65565b91509160020190614d638383614691565b90549060031b1c8703614d79575b505050614b65565b8287614d88614dcb9585614691565b90549060031b1c11159182600014614dd35788614dc2614a3a84614dbc614daf828a614691565b90549060031b1c856146a9565b97614691565b905560056151c9565b388080614d71565b88614dc2614a3a84614dbc84614de9838b614691565b90549060031b1c6146a9565b5050509050565b50509091614b09565b915050565b50915050565b600260005414614e21576002600055565b633ee5aeb560e01b60005260046000fd5b8115614650570690565b9081600052600560205260406000209160038301908260005281602052604060002054918215600014614e71575b5050505050565b846004916002614ed7970195614e9886614e8b818a614691565b90549060031b1c98614691565b8154906000199060031b1b19169055614eb48660018501614a18565b600052602052600060408120558360005201602052600060408120556005615107565b3880808080614e6a565b6000818152600760209081526040808320338452600683528184208585526008019092529091205460ff16156150cb57336000908152601382016020819052604090912054615051575b503360009081526011820160209081526040808320805460ff19166001179055600690915290206005018054614f60906146b6565b905533600052600660205260026040600020018054906301312cff1982019182116107055755336000908152600f8201602052604090205460ff1680615028575b1561501d5760180154903360005260066020526001604060002001614fc7838254614639565b90553360005260066020526004604060002001614fe481546146f9565b9055614fef33614ab7565b6040519182527f24b5efa61dd1cfc659205a97fb8ed868f3cb8c81922bab2b96423e5de1de2cb760203393a3565b50506144b933614ab7565b50336000908152601082016020526040902054601782015460ff91821615159116151514614fa1565b336000908152602082815260408083205460069092529091206001015481116150b3575b33600052600660205261509160016040600020019182546146a9565b905561509c33614a55565b336000908152602091909152604081205538614f2b565b50336000526006602052600160406000200154615075565b60405162461bcd60e51b81526020600482015260146024820152732737ba10309039b2b632b1ba32b210353ab937b960611b6044820152606490fd5b600091825260205260409020600281019291805b6151255750505050565b600019810190811161070557815461513c91614646565b918261514c82614de98388614691565b615159614a3a8388614691565b9055909261511b565b600091825260205260409020600281019291805b6151805750505050565b600019810190811161070557815461519791614646565b91826151b3826151a78388614691565b90549060031b1c614639565b6151c0614a3a8388614691565b90559092615176565b600091825260205260409020600281019390929091805b6151eb575050505050565b600019810190811161070557835461520291614646565b91811561522e5782615218826151a78389614691565b615225614a3a8389614691565b905590926151e0565b8261523d82614de98389614691565b61521856fe587602b661da57eff43c58d2ebb4b7c66d08862f786faf29f390136b3309a128a264697066735822122041e347a5c69789a79f7ee85b32e236294885cd3dcad461eef8562e1cd9eb89a464736f6c634300081c0033",
  "linkReferences": {},
  "deployedLinkReferences": {}
}